:020000040800F2
:10000000B00A002001010008A1120008E91100084F
:100010009D12000845030008091B000800000000AD
:100020000000000000000000000000004117000870
:100030004903000800000000D1120008B9170008A9
:100040001B0100081B0100081B0100081B01000820
:100050001B0100081B0100081B0100081B01000810
:100060001B0100081B0100081B0100081B01000800
:100070001B0100081B0100081B0100081B010008F0
:100080001B0100081B0100081B0100081B010008E0
:100090001B0100081B0100081B0100081B010008D0
:1000A0001B0100081B0100081B0100081B010008C0
:1000B0001B0100081B0100081B0100081B010008B0
:1000C0001B0100081B0100081B0100081B010008A0
:1000D0001B010008F91A00081B0100081B01000899
:1000E0001B0100081B0100081B010008DFF80CD0F1
:1000F00000F016F900480047791F0008B00A0020F8
:100100000648804706480047FEE7FEE7FEE7FEE7B1
:10011000FEE7FEE7FEE7FEE7FEE7FEE72118000840
:10012000ED00000840EA01039B0703D009E008C97D
:10013000121F08C0042AFAD203E011F8013B00F8AC
:10014000013B521EF9D27047D2B201E000F8012BF8
:10015000491EFBD270470022F6E710B513460A4647
:1001600004461946FFF7F0FF204610BD421C10F868
:10017000011B0029FBD1801A704710B5002200E056
:10018000521C835C8C5CA34201D1002BF8D1D8B205
:10019000E1B2401A10BD30B505460020034600E02C
:1001A0005B1C934205D2EC5CC85C201A01D1002C88
:1001B000F6D130BD80EA010210B502F000434000E4
:1001C00022D04A001FD0010E01EB1261C0F356008D
:1001D000C2F3560240F4000042F40002A0FB0220E9
:1001E00000047F39140400D0401C50EA124001D4AE
:1001F0004000491EC2B20C0604EBD010401C40085F
:10020000802A02D003E0002010BD20F00100002968
:1002100000DA0020184310BD30B480EA010202F079
:10022000004530F0004221F0004013D090B1C30DE2
:10023000D40DC2F31601C0F31600E41A41F4000114
:1002400040F400027D34914201D3641C00E0490077
:10025000002C02DA30BC002070474FF4000000236D
:10026000914201D3891A034340084FEA4101F7D173
:1002700051B1914202D14FF0004105E002D24FF05E
:10028000010101E06FF0010103EBC450284430BCD0
:1002900000F00EB8C10F80EAE0700844CA07962348
:1002A000002100F00EB896230022114600F009B894
:1002B0000029A8BF7047401C490008BF20F001007A
:1002C000704710B4B0FA80FC00FA0CF050EA010458
:1002D00004BF10BC704749B1CCF1200421FA04F4EA
:1002E00011FA0CF118BF012121430843A3EB0C01C3
:1002F000CB1D4FEA00614FEA102042BF002010BC26
:10030000704700EBC35010440029A4BF10BC7047D5
:10031000401C490008BF20F0010010BC70470000DD
:10032000064C074D06E0E06840F0010394E8070042
:1003300098471034AC42F6D3FFF7DCFEEC390008E6
:100340000C3A0008FEE7000070470000EFF3108051
:1003500072B600BFFEE70000014690F821000228B7
:1003600013D10868D1E90FC3026822F00E020260BF
:10037000026822F001020260012000FA03F2CCF8C8
:10038000042081F82100002002E00420886301207D
:10039000002281F82020704780B590F821100229B2
:1003A00023D10268116821F00E0111602F2113681A
:1003B000C4F202018A4240F20401C4F2020123F0B5
:1003C0000103136016DD3023C4F202039A421DD0EC
:1003D0004423C4F202039A421BD05823C4F20203FE
:1003E0009A421BD14FF4803320E004218163012124
:1003F000084680BD0823C4F202039A420CD01C2395
:10040000C4F202039A4209D110230FE04FF4807323
:100410000CE04FF4805309E0012307E001F1680C80
:100420004FF08073624508BF4FF480130B600121C9
:1004300080F82110426B002180F820100AB190470B
:100440000021084680BD0000B0B5044600F01CF94C
:10045000054640F20400C2F200000078611C18BF9B
:10046000044400BF00F010F9401BA042FAD3B0BD15
:100470002DE9F04F82B00E68002E00F0F38041F2BB
:100480000042C4F20102042340F2004E904208BF31
:1004900003234FF6FF7CC4F2010E009300240123D6
:1004A000C1F2100C4FF0000A4FF0000941E00125A5
:1004B00004F00C030F279F402BEA070705FA03F30C
:1004C0003B4342F826304E6840F20C45F202DEF81B
:1004D000082054BF22EA080242EA0802C4F20105D9
:1004E000CEF808202A68B30254BF22EA080242EA82
:1004F00008022A60B303DEF8042054BF22EA08028F
:1005000042EA0802F303CEF80420DEF800204FF0A0
:10051000010354BF22EA080242EA0802CEF8002092
:100520000E680AF1010A36FA0AF204F1040400F036
:10053000998003FA0AFB16EA0B08F1D04A68624573
:1005400010DC122A50D8DFE802F0330A41454F4F41
:100550004F4F4F4F4F4F4F4F4F4F4F484C00D1F8D9
:100560000C9041E04FF6FF75C1F22105AA420FDC65
:100570000025C1F21105AA421AD00025C1F21205C8
:10058000AA4215D00025C1F22105AA4210D02BE0C5
:100590000025C1F22205AA420AD00025C1F2310588
:1005A000AA4205D00025C1F23205AA421CD100BFE3
:1005B0008A6842B1012A14BFC0F814B0C0F810B064
:1005C0004FF0080910E04FF004090DE0CA6802F18D
:1005D000080909E04FF0000906E0CA6802F10409C1
:1005E00002E0CA6802F10C0922460546B8F5807F90
:1005F00024BF203A04352E680F279740BE4309FADE
:1006000002F232432A60CA79D2067FF589AF41F2FD
:100610001803C4F202031A684FEA9A0642F0010274
:100620001A601A6840F6000302F001020192019A72
:10063000AEF57E7252F826B0C4F2010398420FD094
:1006400040F60043C4F2010398423FF430AF41F258
:100650000003C4F20103009D984208BF022527E76A
:10066000002525E702B0BDE8F08F0000C26802EA6D
:100670000103914341EA034101617047002A08BF29
:10068000090401617047000040F2AC60C2F2000052
:100690000068704740F2040040F2AC61C2F2000012
:1006A000C2F2000100780A68104408607047000038
:1006B00080B542F20000C4F20200016841F010016E
:1006C0000160032000F064F80F2000F005F800F04E
:1006D0002BF8002080BD0000B0B540F20402C2F249
:1006E000000240F200011278C2F200014FF47A7366
:1006F0000968B3FBF2F20446B1FBF2F1084600F0E0
:10070000E7FA0F2C4FF001050CD858B94FF0FF3025
:1007100021460022002500F02BF840F20800C2F22A
:10072000000004602846B0BD82B041F21800C4F257
:100730000200016841F001010160016801F001015E
:1007400001910199416841F080514160406800F099
:100750008050009000980420C4F20100016821F04C
:10076000E061016002B0704780B501F097FB80BD89
:1007700070B514460D46064601F0A0FB29462246F8
:1007800000F090FD0146304601F0A0FB70BD000076
:1007900080B501F0ADFB80BD01F0BAFB2DE9F0435F
:1007A00081B0002800F0898042F20008C4F20208FB
:1007B0000446D8F800000D4600F0070088420CD22D
:1007C000D8F8000020F007002843C8F80000D8F847
:1007D000000000F00700A8426FD1206841F2040930
:1007E0008107C4F2020917D5410705D5D9F80010D1
:1007F00041F4E061C9F80010010705D5D9F80010EF
:1008000041F46051C9F80010D9F80010A26821F035
:10081000F0011143C9F80010C00745D1D8F8000015
:1008200000F00700A8420CD9D8F8000020F007001B
:100830002843C8F80000D8F8000000F00700A842DC
:100840003BD12068410707D5D9F80010E26821F4B0
:10085000E0611143C9F80010000708D5D9F800007D
:10086000216920F4605040EAC100C9F8000000F09E
:1008700079F8D9F8001043F22A62C1F30311C0F6E7
:100880000002515C40F2000220FA01F140F208003F
:10089000C2F200000068C2F200021160FFF71CFF04
:1008A000002001B0BDE8F0836068022809D001286B
:1008B00029D159F8041C890307D4012001B0BDE8EF
:1008C000F08359F8041C8901F7D5D9F8001021F0FC
:1008D00003010843C9F80000FFF7D6FE064641F2BF
:1008E000883700BFD9F80000616800F00C00B0EB59
:1008F000810F93D0FFF7C8FE801BB842F2D90320C6
:1009000001B0BDE8F08359F8041C8907D5D5DCE7B0
:1009100040F20000C2F200000068704780B5FFF7A7
:10092000F7FF41F20401C4F20201096843F23A629E
:10093000C1F30221C0F60002515CC84080BD000036
:1009400080B5FFF7E5FF41F20401C4F20201096836
:1009500043F23A62C1F3C221C0F60002515CC840C2
:1009600080BD000041F2040CC4F2020CDCF800303F
:1009700003F00C00082841F20020C0F27A0018BFF2
:100980007047C3F383420AA18A5CD90305D440F6B9
:100990000010C0F23D0050437047DCF8001008A37F
:1009A000C1F34041595C5043B0FBF1F0704700BFC8
:1009B00002030405060708090A0B0C0D0E0F1010A0
:1009C000010200002DE9F04182B0002800F0C4804F
:1009D0000446007841F20006C007C4F2020643D084
:1009E000706800F00C00042817D0706800F00C004C
:1009F000082802D17068C0030FD465682DB1B5F521
:100A0000A02F10D0B5F5803F11D0306820F4803091
:100A10003060306820F480200CE03068800323D5FB
:100A2000606808BB98E0306840F48020306030682F
:100A300040F480303060FFF727FE002D054610D0CF
:100A40003068800310D4FFF71FFE401B6428F7D9DD
:100A500004E100BFFFF718FE401B64284FF00300BD
:100A600077D830688003F5D42078800718D570686F
:100A700010F00C0F07D0706800F00C00082826D189
:100A80007068C00323D43068800702D5206901282C
:100A900062D13068616920F0F80040EAC10030603E
:100AA000207800073DD5A06938B30020C4F2422069
:100AB0000121C0F88014FFF7E7FD0546706A800742
:100AC0002DD4FFF7E1FD401B0228F7D9C6E02069CD
:100AD000002840F20000C4F2422000F0968001217C
:100AE0000160FFF7D1FD054630688007D1D4FFF7DC
:100AF000CBFD401B0228F7D9B0E00020C4F2422011
:100B00000021C0F88014FFF7BFFD0546706A80071A
:100B100007D5FFF7B9FD401B0228F7D99EE000F08A
:100B2000D9FB207840071BD4E5698DB1706800F0CF
:100B30000C00082847D1012D0ED07068216A00F4FE
:100B400080328A4208D1616A00F47010884203D171
:100B5000002002B0BDE8F081012002B0BDE8F081C4
:100B6000F06910F0805808D1F06940F08050F061D1
:100B7000F06900F080500190019847F20007C4F23C
:100B800000073868C00510D4386840F480703860B9
:100B9000FFF77AFD054600BF3868C00505D4FFF7AA
:100BA00073FD401B6428F7D958E0E5681DB1052D99
:100BB0003CD0012D3ED0306A20F001003062306A16
:100BC00020F0040039E00027C4F2422700203866F4
:100BD000FFF75AFD022D05460CD100BF3068800199
:100BE00054D5FFF751FD401B02284FF00300F5D903
:100BF000AFE700BF30688001AAD5FFF745FD401B75
:100C000002284FF00300F5D9A3E700210160FFF7A8
:100C10003BFD0546306880077FF542AFFFF734FDA6
:100C2000401B02284FF00300F4D992E7306A40F0ED
:100C300004003062306A40F001003062FFF724FDAA
:100C4000002D054641F2883714D000BF306A800776
:100C500013D4FFF719FD401BB842F7D9032002B0A7
:100C6000BDE8F081FFF710FD401BB8424FF00300D4
:100C70003FF66FAF306A8007F4D4B8F1000F7FF40D
:100C800053AFF06920F08050F0614DE7206AB0F575
:100C9000803F05D17168A26821F400311143716071
:100CA0007168626A21F47411104308437060012076
:100CB0003866FFF7E9FC0446306880013FF548AF2D
:100CC000FFF7E2FC001B02284FF00300F4D940E7D5
:100CD00080B500F059FD80BD7047000070470000EE
:100CE000B0B582B0036804461868D9685A6900F044
:100CF0002F05202D01F0200505D125B1204600F05B
:100D0000CDFD02B0B0BD5FEA007C1EBF02F0010E57
:100D100001F4907212EB0E024AD1226B0840C10618
:100D20003DD5012A3BD100200190186801905868F8
:100D3000019001985869400642D4A08DE18DE28D62
:100D4000002A1CBF401A5FEA004101D102B0B0BDC9
:100D5000216851E8031F226821F4907142E80313CF
:100D6000002BF5D1216851E8051F226821F001010F
:100D700042E80513002BF5D1202184F84210002110
:100D8000216300BF216851E8031F226821F0100190
:100D900042E80313002BF5D10221616354E0010600
:100DA00058D44006D2D5204600F06CFD02B0B0BD4C
:100DB000C20718BF11F4807251D1420755D45BE0CD
:100DC000E06B016849688AB2002ABFD0A38D9A42BD
:100DD000BCD2E1858069202831D000BF206850E86E
:100DE000030F216820F4807041E80302002AF5D146
:100DF000206850E8050F216820F0010041E8050255
:100E0000002AF5D1206850E8050F216820F0400045
:100E100041E80502002AF5D1202084F84200002094
:100E2000206300BF206850E8030F216820F0100005
:100E300041E80302002AF5D1E06BFFF78DFA0220AA
:100E40006063A08DE18D401A81B22046FFF744FF18
:100E500002B0B0BD204600F0E7FD02B0B0BD626C4C
:100E600042F001026264420706D5BEF1000F03D0D2
:100E7000626C42F002026264820706D5BEF1000F86
:100E800003D0626C42F004026264BCF1000F06D52C
:100E90005EEA050203D0626C42F008026264626C92
:100EA000002A3FF453AF0840800602D5204600F0E8
:100EB000F5FC20684069616C00F0400001F0080119
:100EC000401827D0204600F0B5FC20684069400655
:100ED0001BD500BF206850E8050F216820F04000B6
:100EE00041E80502002AF5D1E06B70B141F6250119
:100EF000C0F600014163FFF74FFA00283FF426AF28
:100F0000E06B416B884702B0B0BD2046FFF7E6FEBC
:100F100002B0B0BD2046FFF7E1FE0020606402B0E1
:100F2000B0BD0000002804BF0120704710B5044682
:100F300090F8410028B9002084F84000204600F0D5
:100F400021F8242084F841002068C16821F4005170
:100F5000C160204600F006FD2068016921F490413F
:100F60000161416921F02A014161C16841F40051E8
:100F7000C16000202021606484F8411084F8421090
:100F8000606310BD70B586B040F60004C4F2010481
:100F9000006804F54051002688420596CDE90366B5
:100FA000029601D006B070BD41F21800C4F20200F2
:100FB000016802AD41F480410160016801F48041A3
:100FC00001910199016841F004010160006829461E
:100FD00000F00400019001984FF40070029002208C
:100FE0000390032005902046FFF742FA4FF48060FB
:100FF000CDE90206204629460496FFF739FA252056
:1010000000210022FFF7B4FB2520FFF7ADFB06B05F
:1010100070BD00002DE9F041054690F842002028FF
:101020001CBF0220BDE8F0810E4600294FF00100F0
:1010300049D01746002A08BFBDE8F0814FF00008EC
:1010400022201C46C5F8448085F84200C5F830804F
:10105000FFF71AFBAF85EF85A9680746B1F5805FFA
:1010600010D12869002814BF3046B046064609E072
:101070002868002640686FF35F2028F8020BE88D8F
:101080000138E885E88DD0B1284620213A4623462C
:1010900000F0F4FCC8B9002EEAD0A868B0F5805F73
:1010A00008D008B9286928B12868406800F07F0096
:1010B00002E000BF2868406806F8010BDFE7202047
:1010C00085F842000020BDE8F0810320BDE8F081F2
:1010D00010B590F84230202B1CBF022010BD002913
:1010E0004FF0010418BF002A01D1204610BD002492
:1010F000046300F07FFC204610BD000010B50068BE
:1011000043F60001C4F20101884218BF10BD40F24D
:101110001454C2F20004217840F21850C2F20000C8
:1011200001F0D6FA40F2CC40C2F200002146012282
:10113000FFF7CEFF10BD00002DE9F041044690F806
:10114000410020281CBF0220BDE8F0810E46002986
:101150004FF0010044D01746002A08BFBDE8F081D7
:101160004FF0000821201D46C4F8448084F8410057
:10117000FFF78AFAA784E784A1680746B1F5805F84
:101180000DD12069002814BF3046B046064606E05F
:1011900016F8010B21684860E08C0138E084E08C8F
:1011A00080B1204680213A462B4600F067FC80B98A
:1011B000002EEDD138F8020B21686FF35F204860F4
:1011C0000026E9E7204640213A462B4600F056FC2F
:1011D00010B10320BDE8F081202084F841000020F8
:1011E000BDE8F08170470000FEE70000F0B585B073
:1011F000002541F21800CDE90355CDE90155C4F2AF
:101200000200016840F6000441F02001016001681D
:10121000C4F2010401F0200100910099016801224B
:1012200041F0040101600168062601F0040100910B
:1012300000990168012741F008010160006806215A
:1012400000F00800009000982046FFF717FA0220EF
:10125000049001A92046CDE901670395FFF708F93D
:1012600005B0F0BD80B540F2CC4043F60001C2F2BB
:101270000000C4F2010100234FF00C0C4FF4E132E6
:1012800080E80E00C0E90333C0E905C3C361FFF77E
:1012900049FE002818BFFFF759F880BDFEE700009F
:1012A000FEE7000000F0070080F00703042B28BFD2
:1012B00004234FF0FF3C03380CFA03F338BF00203F
:1012C000994381400CFA00F022EA0000084370477D
:1012D0007047000081B040F20000C2F200000068D8
:1012E00044F6D351C1F26201A0FB0101480A00900B
:1012F00000BF0098411E00280091F9D101B070474D
:101300002DE9F04140F21404C2F20004164622789E
:101310009846532A0F46054618BF00F0F7FB022DEA
:1013200084BF4FF0FF30BDE8F081069AEFF31180E3
:101330004FF0200181F3118855B105EB450104EB15
:10134000C10100230F664E66C1F868800B67CB664B
:1013500005EB450104EBC1014A6780F311880020C9
:10136000BDE8F0812DE9F04140F21404C2F200041E
:10137000164622789846532A0F46054618BF00F0B5
:10138000C5FB022D84BF4FF0FF30BDE8F081069A07
:10139000EFF311804FF0200181F3118855B105EB77
:1013A000450104EBC10100238F61CE61C1F82080AB
:1013B0008B624B6205EB450104EBC101CA6280F30D
:1013C00011880020BDE8F08180B500F09FFB80BD52
:1013D00070B582B040F21405C2F2000529780446C7
:1013E000532918BF00F092FBFF200F2C8DF8060048
:1013F0001ED843F24260C0F60000005D8DF8070081
:10140000EFF311864FF0200181F31188E86A00F0B4
:101410000300022810D140F21000C2F20000047054
:1014200005F118000DF10601022200F0DFFC14E0C6
:101430004FF0FF3002B070BD1835284600F0A4FB15
:1014400002280CD340F21000C2F2000004700DF12B
:1014500006012846022200F0FDFC002001E04FF0CA
:10146000FF3086F3118802B070BD0000F0B581B086
:10147000144640F21402C2F2000212780D46532ABA
:10148000064618BF00F042FBEFF311874FF0200132
:1014900081F3118830462946224600F005F887F38B
:1014A000118801B0F0BD000070B50D4640F2140186
:1014B00000EB4000C2F2000101EBC001C86A144613
:1014C000022801F118060AD001280ED020B93046B2
:1014D00000F05AFBA0420ED20024204670BD3046D8
:1014E0002946224600F082FC70BD304600F04CFBDD
:1014F000A04238BF044630462946224600F0AAFCE6
:10150000204670BD82B080B582B0CDE9042304AA24
:10151000019201AA00F006F802B0BDE8804002B0D6
:10152000704700002DE9F04F97B0804602A893461F
:101530000E46129040204FF0000912AF4FF0080AFB
:101540001390CDF85880CDE914990AE0002900F0F5
:10155000E680384600F02AFC1598B0F1FF3F40F3D2
:10156000DE8016F8011B2529F0D1002502E00136A6
:101570000020F8B93078A0F123010D294FF00100C7
:10158000F7D8DFE801F009070707070707070C0787
:101590000F070713EDE700BF45F00805E7E745F043
:1015A0000405E4E745F00105E1E700BF45F0020569
:1015B000DDE700BF30780023A0F1300109290ED803
:1015C000014600BF16F8010F03EB830201EB420155
:1015D000A1F13003A0F130010A290146F2D32E28EF
:1015E00014D116F8010F0024A0F1300109290FD8F9
:1015F00004EB840100EB410116F8010FA1F1300466
:10160000A0F130020A2AF3D302E000BF002400BF99
:10161000013616F8010C253853283FF69DAFDFE858
:1016200000F0362B2B2B2B2B2B2B2B2B2B2B2B2B65
:101630002B2B2B2B2B2B2B2B2B2B2B2B2B2B2B2BFA
:101640002B2B2B2B2B2B2B2B2B2B2B2B2B2B2B2BEA
:101650002B2B2B2B2B2C2B2B2B2B2B2B2B2B2B2BD9
:1016600039402B2B2B2A2B2B2B2A2B2B2B4C2B2B88
:101670005C2B702B2B2CCBE76EE7DBF800001022E5
:10168000011DCBF8001001680093384642E038464F
:1016900025215FE7DBF80000011DCBF80010017881
:1016A00057E7DBF800002246011DCBF80010016867
:1016B0003846009500F072FA4EE7DBF80000102281
:1016C000011DCBF80010016838460823CDF800A0B2
:1016D000CDF8049000F0EAFA3EE7DBF80000011DC7
:1016E000CBF80010046800BF217800293FF434AF24
:1016F0003846013400F05AFB1598B0F1FF3FF3DC97
:101700002AE7DBF800000A22011DCBF8001001686F
:10171000384600932346019500F0C8FA1CE7159D52
:10172000012D08DB149C24B102A940462246FFF794
:101730009DFE60191590159817B0BDE8F08F000058
:10174000704700000020704780B5014640F2CC4051
:10175000C2F2000001224FF6FF73FFF75BFCB0FA04
:1017600080F0400980BD00000020704710B50C4695
:10177000014640F2CC40C2F2000022464FF6FF7311
:10178000FFF7DAFC20B210BDB0B501380024B4EB8D
:10179000106F1CBF0120B0BD4EF21005CEF2000547
:1017A00068604FF0FF300F2100F090FB0720AC6025
:1017B00028602046B0BD000080B5FEF76BFF80BDFD
:1017C00070B590B006AC20462821FEF7C4FC01207D
:1017D00006900A904FF4E01000254FF48031022665
:1017E0000F9020460595CDE90355CDE90155CDE98A
:1017F0000715CDE90D61FFF7E5F878B90F20CDE9C0
:1018000001064FF48060CDE9040501A8022103958B
:10181000FEF7C4FF002804BF10B070BDFEF796FDB0
:101820007047000080B5406A0021C185C184FFF780
:1018300055FA80BD016851E8031F026821F49071D8
:1018400042E80313002BF5D1016851E8051F026837
:1018500021F0010142E80513002BF5D1016B0129AC
:101860000AD100BF016851E8031F026821F010018E
:1018700042E80313002BF5D1202180F8421000210B
:101880000163704780B50168CA6822F04002CA60EF
:10189000202180F84110FFF7A5FC80BD80B582B003
:1018A00090F8421022291ED18268B2F5805F02D1E1
:1018B000016900294AD0816AB2F5805F07D00AB970
:1018C000026922B10268526802F07F0201E00268F8
:1018D00052680A700121826A11448162C18D013906
:1018E0000A04C18501D002B080BD0168CA6822F037
:1018F0002002CA60CA6822F48072CA604A6922F073
:1019000001024A61202180F8421000214163026BEC
:10191000012A23D1016300BF016851E8031F026857
:1019200021F0100142E80313002BF5D101680A6889
:10193000D20606D5002201920A68019249680191F7
:101940000199818DFFF7C8F902B080BD0168826AF4
:1019500049686FF35F2111800221BCE7FFF7CEFBDE
:1019600002B080BD10B504460068D4E902C2236904
:10197000016921F4405111430161616943EA0C029C
:101980001143C26841F20C639A431143C16041693B
:10199000A26921F44071114343F60002C4F201022E
:1019A0009042416102D0FEF7B9FF01E0FEF7C8FFA7
:1019B0006268192148439100B0FBF1F048F21F51D1
:1019C000C5F2EB11A0FB01235A096FF0630302FB80
:1019D0000300322303EB0010A0FB0101F02303EA14
:1019E0005113206803EB0212C1F3431111448160CB
:1019F00010BD0000816200218285C28541642221E0
:101A000080F84210016921B10168CA6842F480720D
:101A1000CA600168486940F001004861C86840F048
:101A200020020020CA60704790F84110212923D17C
:101A30008168B1F5805F01D1016931B1016A026845
:101A40004B1C03620978516007E0016A036831F8B2
:101A5000022B6FF35F225A600162C18C01390A04C4
:101A6000C18418BF70470068C16821F08001C1605F
:101A7000C16841F04001C160704700002DE9F041AC
:101A80000446006800680840884202D10020BDE892
:101A9000F0811D460E4690465F1C04E020680068F9
:101AA0003040B042F2D0002FF8D02DB1FEF7ECFD5F
:101AB000A0EB0800A842F1D9206850E8030F216884
:101AC00020F4D07041E80302002AF5D1206850E8E4
:101AD000050F216820F0010041E80502002AF5D138
:101AE000202084F8410084F84200002084F840005F
:101AF0000320BDE8F081000080B540F2CC40C2F286
:101B00000000FFF7EDF880BDFEE7000010B540F2E1
:101B10001404C2F200042046A821FEF71CFB032097
:101B20002061606143F2607040F2CC01C0F60000B9
:101B3000C2F20001A061E1614FF4806121620021E5
:101B4000A1626162E162206640F2BC00C2F2000064
:101B500060661020A0662167E1666167601E0F2144
:101B600004A200BF535C01394C1C00F8013FF9D1BD
:101B700010BD00BF00000000000054545220524528
:101B80004747455300000000C268016991428FBF7A
:101B9000D0438068D2431144084470472DE9F04F88
:101BA00083B08A460546BAF1000F50469146C1F10E
:101BB000000148BF08460A284FF0010702910CDBDC
:101BC00046F26761C6F2666180FB0124A2106328B9
:101BD00002EBD47007F10107F6DC0C9E4F4538BFCD
:101BE0004F464FF0000443B106F00400BAF1000F75
:101BF00048BF012444EA90001C1AB9F1000F06F016
:101C0000020B02D1BBF1000F13D1F00711D184B147
:101C1000B846BC4238BFA046A74209D22846202178
:101C2000013C00F0C3F8E868B0F1FF3FF4DC00E0ED
:101C30004446E86800281DD4BAF1000F03D47007A9
:101C400007D52B2102E0DDF808A02D21284600F061
:101C5000ADF8E86800280DD4BBF1000F0DD1E8689D
:101C6000002807D4284651460A224B460094019684
:101C700000F01CF803B0BDE8F08F06F0010050EA58
:101C80000900ECD1002CEAD0B846BC4238BFA046CF
:101C9000A74209D228463021013C00F087F8E868C5
:101CA000B0F1FF3FF4DCDAE74446D8E72DE9F04F26
:101CB00081B08B46DDE90AA11F4615469345814652
:101CC0004FF0010405D35846B0FBF5F00134A842AB
:101CD000FAD2BC4238BF3C46BAF1000F01F0010015
:101CE00000901ED0E8B988074FF0200848BF4FF099
:101CF0003008002F26464FF0200018BF804654457C
:101D000088BF564654450BD248464146AAF1010ABF
:101D100000F04CF8D9F80C00B0F1FF3FF2DC00E025
:101D2000B246D9F80C00002824D4012602E000BFF6
:101D3000013F6E43022FFBD2BBFBF6F0A842F8D264
:101D40000FF25808BBFBF6F7484618F8071000F0EA
:101D50002DF8D9F80C00002806D4B6FBF5F007FBE7
:101D600016BBAE420646EDD20098002818BFBAF165
:101D7000000F02D101B0BDE8F08F0AF1010500BFEC
:101D8000013DAC42F6D24846202100F00FF8D9F8C8
:101D90000C00B0F1FF3FF3DCECE700BF3031323331
:101DA00034353637383941424344454610B5D0E9D9
:101DB00001320446501C984205D823689954E168C2
:101DC000A060481CE060D4E90102824218BF10BD47
:101DD00021682069FFF74AFBA168884202D10020F0
:101DE000A06010BD4FF0FF30E06010BD2DE9F04362
:101DF00081B0C76814460D4680464FF000091EE0CA
:101E0000D8F80810FA4310440844D8E90121CE1B41
:101E1000B04238BF0646A64228BF2646D0192946FA
:101E20003246FEF77FF9D8F80800F119A41B0F1A03
:101E3000B144354418BF0F46C8F80C702CB1D8F81F
:101E40001000B842DCD9F943DEE7484601B0BDE8EE
:101E5000F08300002DE9F04104468068E66888467A
:101E60006168871B1546974201EB060007D941467A
:101E70002A46FEF757F93544E560BDE8F081414652
:101E80003A46FEF74FF9ED1B606808EB07012A465A
:101E9000FEF748F9E560BDE8F0810000002848BF82
:101EA000704700F01F01012202FA01F14EF2001208
:101EB0004009CEF2000242F8201070474EF60C5056
:101EC000CEF200000068C0F3022070474EF61453B3
:101ED00000F00F02CEF2000309011A4400F1604342
:101EE000B0F1FF3FC8BF03F56442117070470000B6
:101EF0004EF60C51CEF200010A684FF6FF031A406D
:101F000060F30A2242F0806040F0FD700860704784
:101F10004EF60C50BFF34F8FCEF200000168042242
:101F200001F4E061C0F2FA5211430160BFF34F8F38
:101F300000BFFDE780B582B094460B46024604A17F
:101F40000020CDF800C000F05BF802B080BD00BFFB
:101F5000696E70757420696E743A2025642C206354
:101F60006861723A2025632C20737472696E673A37
:101F70002025730D0A000000FEF79AFBFFF720FCF6
:101F8000FFF734F9FFF76EF940F2CC4040F21451FC
:101F9000C2F20000C2F200010122FFF799F800F03E
:101FA00011F801F011FB40F60004C4F2010400BF77
:101FB00020460421FEF75AFB4FF4FA70FEF744FA6C
:101FC000F6E7000010B582B0FFF7FEF9002408A183
:101FD0000020002200230094FFF7C4F906A100208E
:101FE000002200230094FFF78BF902B010BD00BF60
:101FF0005254545F555000005254545F44570000EF
:1020000082B010B582B00C46CDE90423FFF7E0F9A9
:1020100004A8019001AA00202146FFF783FA044694
:1020200004A10020FFF76EFA204602B0BDE8104080
:1020300002B070471B5B313B33376D0040F2986C48
:102040000022C2F2000C05E093B2032B02F1010260
:1020500088BF704713B25CF823100029F4D14CF804
:102060002300704780B5012100F070F880BD0000AA
:1020700010B50168044600698968FEF77EF820B152
:1020800043F67211C0F6000109E094F8600043F6CF
:10209000190140F00100C0F6000184F860002046FC
:1020A00001F048FA0020E06010BD00000A784AB153
:1020B0004B7803F00F03082B04D003688BB11B7817
:1020C00013420ED090F86000C0071EBF00204042AF
:1020D00070474878012100F0100081EA101040425A
:1020E000704701204042704780B500F0BBFA0028DD
:1020F00008BF80BD43F6D811C0F6000101F01AFAFE
:1021000080BD0000B0B504468089E189401A05B25F
:10211000012D07DB2046202101F03AF928B2013DCC
:102120000128F7DC217B204600F078F8B0BD0000E4
:1021300080B500F097FA002818BF00F0A5FC80BD1C
:1021400080B54FF0FF3100F001F880BDB0B5C28915
:102150000446012908BF002A52D0A38911F1010CBD
:1021600008BF9A424CD0012908BF9A4249D0A2899F
:10217000E189BCFA8CF35D09531AAB420DDD2B46A5
:1021800022692944555C114401F8015CA289E18966
:1021900001331DB2501AA842F2DC013ABCF1000F23
:1021A000A28105D0481EE0812046082101F0F0F808
:1021B0002069A18900224254B4F90E00A189884205
:1021C0000ADA85B22169095C204601F0E1F801359F
:1021D000A18928B28842F5DB2046202101F0D8F8F9
:1021E000A089E189401A013005B2012DB8BFB0BD08
:1021F0002046082101F0CCF8681E05B2002DF7DC5E
:10220000B0BD501EE081581E2169A08180B200221D
:102210000A542046012100F001F8B0BD70B5002934
:1022200008BF70BD0C46054604A600BF28463146CF
:10223000013C01F07FF92006F8D170BD08200800AC
:1022400080B54FF0FF3100F0DBFA80BD10B50446D9
:1022500000F006F82046012101F0FEF810BD000054
:10226000B0B50446808948B1216900250D5494F821
:102270006000C00703D12046FFF7FAFEB0BD20463C
:1022800000F00CFB204600F01BFDE08EE56000280E
:1022900008BFB0BD43F69211C0F60001204601F020
:1022A00049F96169A26D2046002300F0D9FD20B1F3
:1022B0000146204600F08AFDB0BD43F2A671C0F68B
:1022C0000001204601F036F9B0BD0000014600785B
:1022D000302806D14A7842F02002782A15D103200E
:1022E00000E000200A78002A08BF7047013107E0AB
:1022F0004A78002A1CBF0420704711F8012B1AB13C
:102300000A782E2AF4D0F8E77047302806D14878AA
:1023100040F02000622801D10120E3E70220E1E73C
:10232000014611F8012B272A18BF014608785C28BE
:1023300018BF70474978A1F16202122A0ED808200E
:10234000DFE802F011101010101010101010101013
:102350000A101010121014000A207047302904BF10
:1023600000207047084670470D20704709207047CD
:102370002DE9F04381B0064600784FF001092D3871
:10238000B0FA80F04FEA501406EB040008BF4FF09B
:10239000FF39FFF79BFF05460138C1B2022907D874
:1023A00040B21FA151F8208020A151F8200002E086
:1023B00000204FF00A08304404440026002701346E
:1023C00014F8010C2E2803D101340127F8E700BFCF
:1023D00038B100F00BF906FB080607EB8700470051
:1023E000EDE7042D16D1AFB13046FDF75CFF054691
:1023F0003846FDF758FF01462846FDF70DFF054614
:102400004846FDF747FF01462846FDF7D3FE01B0D9
:10241000BDE8F08306FB09F001B0BDE8F08300BF22
:102420000200000008000000100000000200000090
:10243000010000000200000010B51C4622B10A781D
:10244000242A25D14A781AB30A782D2A0DD0272AB2
:1024500007D14B781BB10846FFF762FF08E02D2A31
:1024600003D0A2F13003092B05D80846FFF780FFFF
:102470002060002010BD5AB1242A05D14B7813B139
:1024800000F032F8F4E71AB1084600F005F8EFE77B
:102490004FF0FF3010BD0000F0B581B0044614F8D5
:1024A000011B0025222918BF04462746002607E005
:1024B000781EFFF735FFB1B260540137013701369E
:1024C0003878222806D05C28F2D030B1B1B26054FE
:1024D000F4E700BFB0B22554F0E7B1B200222046C5
:1024E000625401B0F0BD0000B0B5826D013100232F
:1024F0000446002500F0B4FC20B10146204600F05F
:10250000C7F805462846B0BD2DE9F0438BB0884694
:102510000546002089780A90CDE90800CDE906003B
:10252000CDE904000390501E01F00F0920EAE07489
:102530001F1D03AE9145B8BF814600BF84B157F857
:10254000041B284600223346FFF776FF013C002893
:1025500006F10406F2D04FF0FF300BB0BDE8F08377
:10256000B9F1070FF7D8DFE809F0040A111921269D
:102570002C34D8F8080080470BB0BDE8F083D8F8B9
:102580000810039888470BB0BDE8F083D8F80820FE
:10259000DDE9030190470BB0BDE8F08303AAD8F84A
:1025A000083007CA98470BB0BDE8F08303ABD8F8F2
:1025B00008700FCB16E0D8F8087003AE4FCE009627
:1025C00010E0089DD8F8087003AE4FCECDE9006545
:1025D00008E0DDE90854D8F8087003AE4FCECDE925
:1025E00000650294B8470BB0BDE8F083A0F130015C
:1025F000C9B20A2901D2D02105E0A0F16101C9B216
:10260000062903D2A9210844C0B27047A0F14101B4
:10261000C9B20022062938BFA0F13702D0B27047F4
:10262000C068704710B540F28C61C2F200013022E0
:102630000A724FF03032C1E90022417801F00F01F7
:10264000012988BF072901D8406810BD0829FBD09F
:1026500040F28C644068C2F20004214600F062FE41
:10266000204610BD40F298620021C2F2000207E04D
:1026700090F860309B0748BF70470131052904D0AE
:1026800052F821000028F3D1F7E70020704700003E
:1026900080B5487800F00F000238052816D8DFE82A
:1026A00000F005080C03030F886880BD8868006887
:1026B00080BD8868B0F9000080BD8868007880BD62
:1026C0008868416811B10068884780BD002080BDDE
:1026D000002908BF70472DE9F04F83B00D46C16E49
:1026E00004468847A06B10F47F4F05D06FF0FF0AB7
:1026F0004FF00008012016E010F47F0F06D040F2E2
:10270000000ACFF6FF7A4FF008080BE04FF01008F0
:102710004FF07F4AB0F1807F38BF4FF0180838BFC4
:102720004FF0000A00200290B4F85C0000283FD06F
:10273000FF20A8F10801A76D00FA08FB884001906E
:1027400000204FF0000909E0002500BF09F1010950
:10275000B4F85C100FFA89F0884229DA07EB00160A
:10276000707800F00F000928F0D120463146FFF7BD
:102770009DFC0028EAD1304650F8042FA16B02EAF4
:102780000A038B42E2D102EA0B03EAB202FA08F230
:102790009342DBD11143029AA1631AB900680199EF
:1027A0000842D1D1B16809B1204688470025A56308
:1027B000280605D00020A063E9B2204600F076FA92
:1027C000FDF762FF10B1FDF75FFF6060216F2046EB
:1027D000884703B0BDE8F04F70470000B0B50C4625
:1027E0000546FFF73FFF50B1012D02D100F048F937
:1027F000B0BD022DB8BFB0BD616800F0FDFDB0BD39
:1028000010B50129044636DBB4F85000B4F8521074
:10281000B4F95420884288BF0146531E4842824280
:10282000A4F85430D8BFA4F854002046FFF76AFC3F
:10283000B4F9540018B3B4F852100844411D46F2DC
:102840006760C6F2666081FB0002531003EBD27230
:1028500002EB8202891A04EB81012069C96B00F046
:102860004FFC0028A08108BF10BD2169E0812046EF
:1028700000F060FE02E0B1F1FF3F03DD10BD00207B
:10288000E06010BDB4F85400013001B20129A4F891
:102890005400CADB0020A4F8540010BD10B5044653
:1028A000B0F850000021A4F8541070B1B4F85200F0
:1028B000411E002808BF042104EB8100C06B216980
:1028C000FDF75BFC002808BF10BDB4F85200216979
:1028D00004EB8000C06B00F013FC20B1B4F8520090
:1028E0000130A4F85200B4F85000013081B205293B
:1028F000B4F8521028BF05200529A4F8500024BFC1
:102900000020A4F8520010BD10B54AF6AB23CAF659
:10291000AA23044690F86000A2FB0323002240F0A3
:102920000100226084F86000C4E903219808A4F83B
:102930005420226501EB93013822A086A3180432AB
:1029400059604C2A0144F9D143F60C2043F65C311E
:10295000C0F60000C0F60001A065081A0009A4F83E
:102960005C002046FFF76AFBA26D07A1204600230A
:1029700000F076FA0146204600F0B4FA2046012124
:1029800000F06AFD10BD00BF6C65747465720000D4
:10299000B0B5828E04468089013A824211DDE28917
:1029A00090421ED12269431CA38111542069A2893F
:1029B00000238354E0890130E081204600F0E8FCE8
:1029C000B0BD43F2BA71C0F60001204600F0B2FD7E
:1029D0002046012100F040FD2169204600F0AAFDBB
:1029E000B0BD35D9801A00B2012808DB2269E3891D
:1029F0001A44131813F8013C13540138F6DCE0892B
:102A00002269431CE3811154A08921690130A0810E
:102A100080B200220A54E089451E00BFA18928B275
:102A2000884206DA2169095C204600F0B1FC0135D4
:102A3000F4E7E089081A05B2012DB8BFB0BD00BFA8
:102A40002046082100F0A4FC28B2013D0128F7DC53
:102A5000B0BD000080B5FFF705FE002818BF00F0EC
:102A6000A5F880BD10B50446C089002808BF10BD78
:102A70002046082100F08CFCE0890138E08110BD7F
:102A800080B500F001F880BDF0B581B043F2697106
:102A9000866DC0F60001044600F04CFDB4F85C0001
:102AA000C8B10020002705E00137B4F85C1038B247
:102AB000884210DA06EB0015687810F00E0FF3D19B
:102AC00020462946FFF7F2FA0028EDD12046294694
:102AD00000F004F8E8E701B0F0BD000070B504466E
:102AE00008460D46FFF79EFD0146204600F022FDF8
:102AF000C0F1160630B20028D8BF04262046202197
:102B000000F046FC013E3004F8D1687800F00F0078
:102B1000022804D243F69811C0F6000117E00828F5
:102B200004D243F69D11C0F6000110E004D143F633
:102B3000E111C0F600010AE043F6D31143F6A212F8
:102B4000C0F60001C0F600020A2838BF1146204630
:102B500000F0F0FC43F69511C0F60001204600F0AD
:102B6000E9FC08262878013EF040C0074FF07801C4
:102B7000204608BF2D2100F00BFC002EF2DC43F6AE
:102B80009511C0F60001204600F0D4FC2846FFF75E
:102B900047FD0146204600F007FC43F69211C0F6BF
:102BA0000001204600F0C6FC70BD0000F0B581B009
:102BB00043F29871866DC0F60001044600F0BAFC3D
:102BC000B4F85C00D0B10020002705E00137B4F86C
:102BD0005C1038B2884211DA06EB0015687800F014
:102BE0000F000928F2D120462946FFF75FFA002896
:102BF000ECD120462946FFF771FFE7E701B0F0BDB1
:102C0000F0B581B043F28971866DC0F600010446CB
:102C100000F090FCB4F85C00D0B10020002705E083
:102C20000137B4F85C1038B2884211DA06EB0015AF
:102C3000687800F00F000828F2D120462946FFF7F7
:102C400035FA0028ECD120462946FFF747FFE7E791
:102C500001B0F0BDF0B581B043F27B71866DC0F676
:102C60000001044600F066FCB4F85C00D8B1002016
:102C7000002705E00137B4F85C1038B2884212DA58
:102C800006EB0015687800F00F0002380528F1D82F
:102C900020462946FFF70AFA0028EBD120462946AC
:102CA000FFF71CFFE6E701B0F0BD000080B590F82B
:102CB000602002F0FB0280F86020FFF769FE80BD13
:102CC00070B581894FF0000C0029C0E905CCC0E93E
:102CD00007CCC0E909CCC0F82CC0C0F830C0A0F8BF
:102CE00036C008BF70BD4FF0010E00210022002346
:102CF0000FE000BF0469655C45F02005202D0AD176
:102D00004FF0010E04F801C00132848991B2A14252
:102D10001FD21C06EED00469DDB2665CB5FA85F5FB
:102D2000222E08BF6B09BEF1010F214409D1C48EC8
:102D3000072C04D8661CC68600EB840671614FF030
:102D4000000E0C785C2CDFD14978002918BF0132C5
:102D5000DAE770BD2DE9F0410446C08E002808BFB7
:102D6000BDE8F08104F114064FF0000800270FE0E1
:102D700056F827502846FDF7F9F980B20138295C4A
:102D80000137222908BF05F80080E08E87420CD267
:102D900056F8270001782229EAD180F8008056F8F9
:102DA0002700013046F82700E2E7BDE8F081000087
:102DB00080B5C1898289914228BF80BD02694B1CC0
:102DC000C381515C00F0E4FA80BD0000B0B5044658
:102DD00090F860000D4640F0020084F860004878EA
:102DE00000F00F00012811D000BB2046FFF7B2FF12
:102DF000AA68E08E04F114019047697805468906B7
:102E000025D42046294600F057FB20E0E28E04F14D
:102E1000140320462946FFF777FB697805468906A3
:102E200015D42046294600F047FB10E0072805D8B6
:102E30002046294600F0F4F8002508E0082805D1CE
:102E40002046294600F04EF8002500E0002594F8C1
:102E5000600000F0FD01284684F86010B0BD00005D
:102E60002DE9F0470746806D9046B7F85C20A8EB47
:102E70000000A2EB101002042CD09A46894685B2BD
:102E80000024464607E0FDF778F930B30134013DF0
:102E900006F110061AD0707800F00F000928F5D05E
:102EA00038463146FFF702F90028EFD13046FFF7E8
:102EB000B9FBBAF1000F01464846E4D05246FDF78F
:102EC0006AF90028E2D13046BDE8F0870026304696
:102ED000BDE8F0870020BDE8F08708EB0410BDE8EE
:102EE000F087000010B501600446886830B10178B1
:102EF00031B1E18E022905D2002009E0012007E06E
:102F0000012005E0A169FDF738F9B0FA80F0400929
:102F100094F8601001F0FE01084443F6D81184F8DB
:102F20006000C0F60001204600F004FB94F8600049
:102F3000C00708BF10BD43F61901C0F600012046C6
:102F400000F0F8FA10BD000070B50D460646FFF718
:102F500089FBB0B1826D314600230446FFF780FF44
:102F600088B10146407800F00F000238062813D3DC
:102F70002046314600F0DEFA43F2DB71C0F6000174
:102F800005E0002070BD43F68511C0F60001204623
:102F900000F0D0FA002070BD20462A4600F002F86A
:102FA00070BD0000B0B50C46497805464B060CD400
:102FB00001F00F00023805280ED8DFE800F00312F8
:102FC00015181D25A068026006E043F2EB71C0F6FB
:102FD0000001284600F0AEFA2846214600F020F80D
:102FE000B0BDA0680280F7E7A0680270F4E7A068AF
:102FF000114600F085F8EFE743F60501C0F6000141
:10300000284600F097FAE7E7A0688368002BE3D032
:10301000006810B111469847DEE710469847DBE795
:10302000F0B583B0044643F23000C0F230004FF0F8
:1030300030370E460290CDE90077FFF729FB716823
:103040000546204600F076FA20A1204600F072FAEC
:10305000707800F00F00052810D143F6B816C0F6BE
:1030600000062046314600F065FA2046294600F069
:1030700061FA2046314600F05DFA1DE06E462846B2
:10308000314600F017F9301A00F10B01204600F02C
:1030900051FA43F6E611C0F60001204600F04AFA64
:1030A00028463146CDE90077CDF8077000F03AF9AF
:1030B0002046314600F03EFA43F69211C0F6000178
:1030C000204600F037FA284603B0F0BD203D20002E
:1030D00090F800C0BCF1000F0FD00023002200BF09
:1030E000CB5C43B19C4506D1013293B210F803C0CA
:1030F000BCF1000FF4D190B27047002290B270473B
:1031000080B50A7886464FF0000C4AB100230020B3
:1031100001300EF8032083B2CA5C002AF8D101E026
:103120000020002380B20EF803C080BD2DE9F04FCF
:1031300081B004468089002853D021694FF0000AED
:10314000B4F8349001F800A0B4F85C00D4F858B09A
:10315000002850D0002000254FF000084FF0000A52
:103160001EE01FFA88F00BEB001720463946FFF7E8
:10317000B5FC3846FFF756FA07463046FFF752FAD5
:1031800001463846FFF7A4FF814588BF81460AF112
:10319000010AA8460135B4F85C1028B288422CDA3E
:1031A0000BEB001620463146FEF780FF0028F1D1D8
:1031B00027693046FFF736FA01463846FFF788FFA1
:1031C000A1898842E6D11FFA8AF00028DFD00128C1
:1031D000C7D143F692112046C0F6000100F0AAF9CB
:1031E000BFE72046FFF74CFC2046012100F034F9F0
:1031F0004FF0000A2DE04FF000081FFA8AF5002D6D
:1032000054D0012D02D12046FEF77CFF1FFA88F032
:103210000BEB001726693846FFF704FA01463046E3
:10322000FFF76EFF022DA08109D320463946FFF734
:1032300055FC2046012100F00FF9A4F80C902069FC
:10324000A18900224254A0892169E081204600F032
:1032500071F9FDF719FA48B31FFA8AF001281FD156
:1032600094F8600040071BD5FDF70EFA6168401A1C
:10327000C72815D843F69211C0F60001204600F089
:1032800059F92169204600F0B7F82046012100F0E5
:10329000E3F82169204600F04DF901B0BDE8F08F58
:1032A00094F8600040F0040084F8600001B0BDE8CC
:1032B000F08F00000346002848BF4342B0B500220B
:1032C0004FF00B0ECA72B3B146F2676CC6F2666C71
:1032D00083FB0C24A21002EBD47202EB8204A3EB5A
:1032E0004404AEF1010E093330345FFA8EF5122B2F
:1032F00013464C55ECD8B0F1FF3F04DD58B1CEF188
:103300000B0040B2B0BDAEF1010E5FFA8EF22D237C
:103310008B540028F3D1AEF1010E5FFA8EF030220B
:103320000A54ECE710B54FF0000C81F808C0A8B1C2
:10333000082300BF9E4600F00F0303F13002092B63
:1033400088BF03F15702AEF10103DCB2BCEB101FE2
:103350004FEA10100A55EDD1CEF1090C4FFA8CF05E
:1033600010BD000080B50121FFF74AFA80BD0000C2
:1033700080B5FFF777F9002818BFFFF741FC80BD43
:1033800080B5FFF76FF9002818BFFFF763FC80BD19
:1033900080B582B0826E8DF807100DF10700012113
:1033A000904702B080BD0000F0B581B0836EF3B1EC
:1033B00007460020012242F201440D4602E000BF10
:1033C000013501302E780D2EFAD802FA06F6264283
:1033D000F6D082B20846252A07D324219847BA6E30
:1033E00004A00321904701B0F0BD1146984701B0F9
:1033F000F0BD00BF2E2E2E0070B5826D0023044656
:10340000FFF72EFDF0B143F6A7110546C0F6000107
:10341000204600F08FF82846FFF704F901462046C1
:1034200000F088F843F69216C0F6000620463146B2
:1034300000F080F82846FFF7F3F80146204600F038
:1034400079F803E043F2A676C0F60006204631463E
:1034500000F070F870BD000010B5044690F86000F0
:10346000C00704D143F6BC11C0F600011CE031B125
:1034700043F69211C0F60001204600F05BF8206888
:103480004168204600F056F809A1204600F052F8A5
:10349000A06843F6BA11C0F60001002818BF014623
:1034A000204600F047F803A1204600F043F810BD85
:1034B0003A00000024200000F0B583B0044643F237
:1034C0003000C0F230000D4602904FF0303716A1A8
:1034D0002046CDE9007700F02DF86E4628463146AB
:1034E000FFF7E8FE301A00F10B01204600F022F849
:1034F00043F6E611C0F60001204600F01BF828460E
:103500003146CDE90077CDF80770FFF70BFF204675
:10351000314600F00FF843F69211C0F60001204644
:1035200000F008F803B0F0BD52657475726E3A2071
:103530000000000080B5D0F868C0BCF1000F0AD0D0
:10354000087858B14A1E002093780130002B02F110
:103550000102F9D103E0002080B280BD002082B2D8
:1035600008461146E04780B280BD000080B506A144
:103570000020FEF745FD40F60000C4F201000221E4
:10358000FDF774F880BD00BF6C65643220746F670E
:10359000676C6520746573740D0A000080B505A121
:1035A0000020FEF72DFD40F6B830FCF74DFFFDF78B
:1035B000F3F880BD73797374656D207265737461FF
:1035C00072740D0A0000000080B540F2185041F2FC
:1035D000457341F26971C2F2000041F26D7C41F223
:1035E0004972C0F60003C0F60001C0F6000CC0F638
:1035F0000002C0E91B3140F28C51C0E9192CC2F223
:1036000000014FF48072FFF77FF980BD02E008C827
:10361000121F08C1002AFAD170477047002001E04C
:1036200001C1121F002AFBD17047000000000000FA
:10363000000001020304060708090000000001025F
:10364000030430313233343536373839414243445C
:1036500045466C657474657200636C6561720063E5
:103660006D64730066756E0068656C70006B6579DB
:1036700073006C6564007265626F6F7400736574CB
:1036800056617200757365727300766172730064BF
:10369000656661756C742075736572006261636B39
:1036A00073706163650074616200656E74657200B9
:1036B000656E7465720064656C6574650075700094
:1036C000646F776E007269676874006C6566740079
:1036D0006261636B737061636500636C6561722026
:1036E000636F6E736F6C65006C69737420616C6CD2
:1036F00020636D6400746573740073686F77206372
:103700006F6D6D616E6420696E666F0D0A68656C21
:1037100070205B636D645D006C69737420616C6C18
:10372000206B6579006C65643220746F67676C6527
:1037300073006D6375207265736574007365742022
:10374000766172006C69737420616C6C20757365AE
:1037500072006C69737420616C6C20766172000079
:103760005465726D696E616C000D0A436F6D6D6119
:103770006E64204C6973743A0D0A000D0A5661722A
:10378000204C6973743A0D0A000D0A557365722056
:103790004C6973743A0D0A000D0A4B6579204C6927
:1037A00073743A0D0A00436F6D6D616E64206E6F25
:1037B0007420466F756E640D0A000D0A5761726EB3
:1037C000696E673A20436F6D6D616E642069732086
:1037D000746F6F206C6F6E670D0A00206973206E26
:1037E0006F742061207661720D0A0063616E277428
:1037F000207365742072656164206F6E6C79207629
:1038000061720D0A0063616E277420736574207005
:103810006F696E7465720D0A000D0A205F2020200A
:103820002020202020205F2020205F20202020201A
:10383000202020202020202020202020205F202049
:1038400020202020202020205F205F200D0A7C20C7
:103850007C202020205F5F5F7C207C5F7C207C5F61
:10386000205F5F5F205F205F5F2020205F5F5F7CC5
:10387000207C5F5F2020205F5F5F7C207C207C0DB0
:103880000A7C207C2020202F205F205C205F5F7C32
:10389000205F5F2F205F205C20275F5F7C202F2030
:1038A0005F5F7C20275F205C202F205F205C207CD6
:1038B000207C0D0A7C207C5F5F7C20205F5F2F20B6
:1038C0007C5F7C207C7C20205F5F2F207C20202060
:1038D000205C5F5F205C207C207C207C20205F5F60
:1038E0002F207C207C0D0A7C5F5F5F5F5F5C5F5FE9
:1038F0005F7C5C5F5F7C5C5F5F5C5F5F5F7C5F7C6D
:10390000202020207C5F5F5F2F5F7C207C5F7C5CC1
:103910005F5F5F7C5F7C5F7C0D0A0D0A4275696C9E
:10392000643A202020202020204A756C203132204B
:10393000323032332030393A32343A30390D0A5687
:10394000657273696F6E3A2020202020332E322E4C
:10395000300D0A436F707972696768743A202020CD
:103960002863292032303230204C65747465720D22
:103970000A000D0A70617373776F7264206572724A
:103980006F720D0A00566172206E6F7420466F755B
:103990006E740D0A00202000434D44200056415211
:1039A00020004B45592000636F6D6D616E64206887
:1039B000656C70206F66200022002F00506C6561DE
:1039C000736520696E7075742070617373776F72A0
:1039D000643A004E4F4E45001B5B324A1B5B314838
:1039E0000055534552002C2030780000603B000801
:1039F00000000020100000000C360008703B00089A
:103A000010000020A00A00001C360008000800007A
:103A1000523600085F3700088F360008002100008A
:103A20007D360008492F00083C37000800090000D7
:103A300000415B1B65330008BD360008000900002B
:103A400000425B1B41220008C0360008001900003C
:103A500000435B1BB12D0008C536000800190000AB
:103A600000445B1B652A0008CB36000800090000F3
:103A7000000000092D310008A636000800190000DA
:103A800000000008652000089C36000800190000AE
:103A90000000007F65200008D036000800190000F3
:103AA0007E335B1B41210008B63600080019000078
:103AB0000000000A4D220008AA3600080019000084
:103AC0000000000D4D220008B03600080020000064
:103AD00068360008DD270008FA36000800210000DB
:103AE00084360008713300084437000800210000C4
:103AF0005F36000831210008E83600080021000088
:103B00008A3600088133000852370008002100007F
:103B10006D360008552A00081837000800210000FB
:103B200059360008E9200008DA36000800010000D4
:103B3000763600089D350008323700080001000085
:103B4000723600086D3500082537000800010000B6
:103B500064360008351F0008F53600080000000034
:103B60000024F4000100000010000000000000002C
:04000005080000ED02
:00000001FF
