:020000040800F2
:10000000000C0020050100082D17000861160008EB
:1000100029170008490300088D200008000000008F
:10002000000000000000000000000000F11B0008BC
:100030004D0300080000000031170008411C0008B3
:100040001F0100081F0100081F0100081F01000810
:100050001F0100081F0100081F0100081F01000800
:100060001F0100081F0100081F0100081F010008F0
:100070001F0100081F0100081F0100081F010008E0
:100080001F0100081F0100081F0100081F010008D0
:100090001F0100081F0100081F0100081F010008C0
:1000A0001F0100081F0100081F0100081F010008B0
:1000B0001F0100081F0100081F0100081F010008A0
:1000C0001F0100081F0100081F0100081F01000890
:1000D0001F0100087D2000081F0100081F01000803
:1000E0001F0100081F0100081F010008DFF810D0E1
:1000F00000F018F900480047A1240008AFF3008081
:10010000000C00200648804706480047FEE7FEE74F
:10011000FEE7FEE7FEE7FEE7FEE7FEE7FEE7FEE7B7
:10012000AF1C0008ED00000840EA01039B0703D064
:1001300009E008C9121F08C0042AFAD203E011F826
:10014000013B00F8013B521EF9D27047D2B201E0E8
:1001500000F8012B491EFBD270470022F6E710B5CC
:1001600013460A4604461946FFF7F0FF204610BD25
:10017000421C10F8011B0029FBD1801A704710B5F2
:10018000002200E0521C835C8C5CA34201D1002B56
:10019000F8D1D8B2E1B2401A10BD30B50546002002
:1001A000034600E05B1C934205D2EC5CC85C201A5D
:1001B00001D1002CF6D130BD80EA010210B502F069
:1001C0000043400022D04A001FD0010E01EB126113
:1001D000C0F35600C2F3560240F4000042F400029D
:1001E000A0FB022000047F39140400D0401C50EA18
:1001F000124001D44000491EC2B20C0604EBD010DC
:10020000401C4008802A02D003E0002010BD20F0EE
:100210000100002900DA0020184310BD30B480EA44
:10022000010202F0004530F0004221F0004013D0FE
:1002300090B1C30DD40DC2F31601C0F31600E41A39
:1002400041F4000140F400027D34914201D3641C6A
:1002500000E04900002C02DA30BC002070474FF467
:1002600000000023914201D3891A034340084FEA5A
:100270004101F7D151B1914202D14FF0004105E067
:1002800002D24FF0010101E06FF0010103EBC45015
:10029000284430BC00F00EB8C10F80EAE07008447A
:1002A000CA079623002100F00EB8962300221146BB
:1002B00000F009B80029A8BF7047401C490008BFDA
:1002C00020F00100704710B4B0FA80FC00FA0CF086
:1002D00050EA010404BF10BC704749B1CCF12004BE
:1002E00021FA04F411FA0CF118BF0121214308434B
:1002F000A3EB0C01CB1D4FEA00614FEA102042BF77
:10030000002010BC704700EBC35010440029A4BF6C
:1003100010BC7047401C490008BF20F0010010BC11
:1003200070470000064C074D06E0E06840F001030E
:1003300094E8070098471034AC42F6D3FFF7DAFE92
:100340009C400008BC40000800BFFEE7704772B642
:1003500000BFFEE70146002291F82100022808D0E4
:100360000420886300BF002081F8200000BF012026
:1003700070470868006820F00E000B681860086875
:10038000006820F001000B68186091F840300120EF
:100390009840CB6B5860012081F8210000BF0020FD
:1003A00081F8200000BF1046E2E7000070B5044667
:1003B000002594F82100022803D00420A063012521
:1003C00048E02068006820F00E002168086020687E
:1003D000006820F00100216808601F4920688842F9
:1003E00001D1012026E01C4914312068884201D146
:1003F00010201FE0184928312068884201D180155B
:1004000018E015493C312068884201D1801411E080
:10041000114950312068884202D14FF4803009E000
:100420000D4964312068884202D14FF4801001E008
:100430004FF08070084908394860012084F8210095
:1004400000BF002084F8200000BF606B10B1204680
:10045000616B8847284670BD0800024070B50446AD
:1004600000F0B0F906462546681C10B10448007833
:10047000054400BF00F0A6F9801BA842FAD370BD66
:10048000080000202DE9F8470346002294466EE15B
:100490004FF0010808FA02F4D1F8008008EA0400DD
:1004A000A0427DD1DFF8DCA2D1F80480A8EB0A09D4
:1004B000D0453AD014DCB8F1030F50D009DCB8F1C4
:1004C000000F31D0B8F1010F1CD0B8F1020F49D1A3
:1004D00020E0B8F1110F18D0B8F1120F42D11EE090
:1004E000B9F5881F25D006DCB9F5803F20D0B9F5D5
:1004F000801F37D11AE0B9F5001F18D0B9F5041FD5
:1005000030D117E0D1F80CC02DE0D1F80C8008F103
:10051000040C28E0D1F80C8008F1080C23E0D1F895
:100520000C8008F10C0C1EE000BF00BF00BF00BF34
:1005300000BF00BFD1F80880B8F1000F02D14FF022
:10054000040C0BE0D1F80880B8F1010F03D14FF093
:10055000080C1C6102E04FF0080C5C6103E04FF0F6
:10056000000C00E000BF00BFFF2801D8984601E062
:1005700003F104084646FF2802D84FEA820803E048
:10058000A2F108084FEA88084746D6F800804FF0E5
:100590000F0909FA07F928EA09080CFA07F900E037
:1005A00088E048EA0908C6F80080D1F8048008F01D
:1005B0008058B8F1805F7DD100BFDFF8CC81D8F8DA
:1005C000188048F00108DFF8C091C9F81880C846C3
:1005D000D8F8188008F00108CDF8008000BF00BFEF
:1005E0004FEAB9384FEA920958F829504FEA827811
:1005F0004FEA18794FF00F0808FA09F825EA0805BC
:10060000DFF88881434502D14FF0000816E0DFF89B
:100610008081434502D14FF001080FE0DFF874817B
:10062000434502D14FF0020808E0DFF86C814345F2
:1006300002D14FF0030801E04FF004084FEA82793D
:100640004FEA197908FA09F848EA0505DFF84C81FC
:100650004FEA920948F82950D1F8048008F480182C
:10066000B8F5801F0AD1DFF83881D8F8008048EA51
:100670000008DFF82C91C9F8008009E0DFF820813C
:10068000D8F8008028EA0008DFF81491C9F8008043
:10069000D1F8048008F40018B8F5001F10D1DFF875
:1006A000008108F10408D8F8008048EA0008DFF863
:1006B000F09000E05AE009F10409C9F800800DE06B
:1006C000DFF8DC8008F10408D8F8008028EA000888
:1006D000DFF8CC9009F10409C9F80080D1F8048052
:1006E00008F40038B8F5003F0ED1DFF8B480A8F167
:1006F0000408D8F8008048EA0008DFF8A490A9F1BF
:100700000409C9F800800DE0DFF89480A8F104081E
:10071000D8F8008028EA0008DFF88490A9F10409DD
:10072000C9F80080D1F8048008F48038B8F5803F1B
:100730000ED1DFF86C80A8F10808D8F8008048EAEC
:100740000008DFF85C90A9F10809C9F800800DE005
:10075000DFF84C80A8F10808D8F8008028EA0008E3
:10076000DFF83C90A9F10809C9F80080521CD1F8C3
:10077000008028FA02F8B8F1000F7FF489AEBDE8D6
:10078000F88700000000111000100240000801402E
:10079000000C01400010014000140140080001401D
:1007A0000804014010B5C26821EA020302EA01040C
:1007B00043EA0443036110BD0AB1016101E00B0487
:1007C0000361704701480068704700000000002086
:1007D00003480068034909780844014908607047E4
:1007E000000000200800002010B50848006840F014
:1007F000100006490860032000F0A8F80F2000F060
:1008000007F800F02BF8002010BD00000020024087
:1008100070B504460E4800784FF47A71B1FBF0F0E1
:100820000C490968B1FBF0F5284600F01BFC08B143
:10083000012070BD102C07D200222146501E00F06E
:1008400047F80548046001E00120F2E70020F0E7E6
:10085000080000200C0000200400002008B500BFA4
:100860001148806940F001000F498861084680699D
:1008700000F00100009000BF00BF00BF0846C06943
:1008800040F08050C8610846C06900F08050009078
:1008900000BF00BF00BF0549486820F0E06000BF0E
:1008A000486000BF08BD0000001002400000014089
:1008B00001460846002809DB00F01F0301229A4088
:1008C00043099B0003F1E023C3F8002100BF7047F8
:1008D0002DE9F05F80460D461646002701F094FD95
:1008E000074639462A46334601F00700C0F1070A99
:1008F000BAF1040F02D94FF0040A01E0C0F1070A6F
:10090000D14600F1040ABAF1070F02D24FF0000AF3
:1009100001E0A0F1030AD4464FF0010A0AFA09FAED
:10092000AAF1010A0AEA020A0AFA0CFA4FF0010BCC
:100930000BFA0CFBABF1010B0BEA030B4AEA0B04BD
:100940002146404601F068FDBDE8F09F00BF00F081
:100950000702064B19684FF6FF031940044B0B437F
:1009600043EA0221014B196000BF70470CED00E023
:100970000000FA0500BF00BF00BF00BF00BFBFF30B
:100980004F8F00BF00BF00BF0948006800F4E0605F
:1009900008490843001D0649086000BF00BF00BFAA
:1009A000BFF34F8F00BF00BF00BF00BF00BFFDE718
:1009B0000CED00E00000FA0570B504460D460CB9D8
:1009C000012070BD5A48006800F00700A8420ED20E
:1009D0005748006820F0070028435549086008463A
:1009E000006800F00700A84201D00120E9E7207864
:1009F00000F0020002281DD1207800F00400042835
:100A000005D14C48406840F4E0604A49486020788D
:100A100000F00800082805D14648406840F46050BE
:100A2000444948604348406820F0F000A16808430A
:100A300040494860207800F0010078B360680128E0
:100A400006D13C48006800F4003090B90120B8E7B6
:100A50006068022806D13748006800F0007040B98D
:100A60000120AEE73348006800F0020008B9012019
:100A7000A7E73048406820F00300616808432D492B
:100A80004860FFF79FFE064609E0FFF79BFE801BCC
:100A900041F28831884202D9032092E707E02548D5
:100AA000406800F00C006168B0EB810FEDD1204888
:100AB000006800F00700A8420ED91D48006820F029
:100AC000070028431A4908600846006800F007003C
:100AD000A84201D0012074E7207800F00400042827
:100AE00007D11448406820F4E060E16808431149E8
:100AF0004860207800F00800082808D10D484068B8
:100B000020F46050216940EAC1000A49486000F0C1
:100B10003FF808494968C1F30311074A515CC840CE
:100B20000649086006480068FFF772FE002048E7A3
:100B300000200240001002409E3C00080C000020F3
:100B40000400002001480068704700000C000020ED
:100B500000B5FFF7F7FF04494968C1F30221034AD2
:100B6000515CC84000BD000000100240AE3C0008CF
:100B700000B5FFF7E7FF04494968C1F3C221034A02
:100B8000515CC84000BD000000100240AE3C0008AF
:100B900070B500210022002400230020134D696855
:100BA00001F00C05F5B1042D02D0082D19D101E09A
:100BB0000F4819E00F4DC1F38346AB5D01F480355A
:100BC00055B10A4D6D68C5F340450B4E725D084D39
:100BD0005D43B5FBF2F402E0084D03FB05F420464B
:100BE00002E000BF024800BF00BF70BD001002401D
:100BF00000127A008C3C00089C3C000800093D0073
:100C0000F8B504460CB90120F8BD207800F00100C9
:100C1000002878D0F848406800F00C0004280CD078
:100C2000F548406800F00C00082811D1F2484068EF
:100C300000F48030B0F5803F0AD1EF48006800F43E
:100C4000003000285FD0606800285CD10120DBE71D
:100C500000BF6068B0F5803F06D1E748006840F407
:100C60008030E549086028E0606858B9E2480068CB
:100C700020F48030E04908600846006820F48020B5
:100C800008601AE06068B0F5A02F0BD1DA48006860
:100C900040F48020D84908600846006840F480305D
:100CA00008600AE0D448006820F48030D249086027
:100CB0000846006820F48020086000BF606888B1A2
:100CC000FFF780FD054606E0FFF77CFD401B64282A
:100CD00001D9032098E7C848006800F400300028D4
:100CE000F2D010E0FFF76EFD054606E0FFF76AFD63
:100CF000401B642801D9032086E7BF48006800F440
:100D000000300028F2D1207800F00200022857D1EC
:100D1000B948406800F00C0050B1B748406800F096
:100D20000C00082818D1B448406800F4803098B905
:100D3000B148006800F0020020B12069012801D00C
:100D4000012061E7AC48006820F0F800616940EAE2
:100D5000C100A949086033E02069E8B10120A74932
:100D60000860FFF72FFD054606E0FFF72BFD401B4F
:100D7000022801D9032047E79F48006800F00200DD
:100D80000028F2D09C48006820F0F800616940EA31
:100D9000C1009949086013E0002098490860FFF7F6
:100DA00011FD054606E0FFF70DFD401B022801D9A5
:100DB000032029E79048006800F002000028F2D1E3
:100DC000207800F0080008282DD1A069B8B10120D2
:100DD0008B490860FFF7F6FC054606E0FFF7F2FCDA
:100DE000401B022801D903200EE78348406A00F027
:100DF00002000028F2D0012000F09CFC13E000204B
:100E00007F490860FFF7DEFC054606E0FFF7DAFCE5
:100E1000401B022801D90320F6E67748406A00F01B
:100E200002000028F2D1207800F00400042873D1D9
:100E300000277148C06900F0805070B900BF6E484B
:100E4000C06940F080506C49C8610846C06900F034
:100E50008050009000BF00BF01276A48006800F47E
:100E60008070B0B96748006840F4807065490860D8
:100E7000FFF7A8FC054606E0FFF7A4FC401B64282A
:100E800001D90320C0E65F48006800F480700028A4
:100E9000F2D000BFE068012806D15748006A40F050
:100EA00001005549086227E0E06858B95248006AD5
:100EB00020F00100504908620846006A20F0040052
:100EC000086219E0E06805280BD14B48006A40F041
:100ED0000400494908620846006A40F001000862BF
:100EE0000AE04548006A20F00100434908620846CC
:100EF000006A20F00400086200BFE068A0B1FFF7BC
:100F000061FC054609E0FFF75DFC401B41F28831BA
:100F1000884202D9032077E622E03748006A00F0D1
:100F200002000028EFD012E0FFF74CFC054608E075
:100F3000FFF748FC401B41F28831884201D9032069
:100F400062E62D48006A00F002000028F0D1012F6F
:100F500005D12948C06920F080502749C86100BFE9
:100F6000E069C8B32448406800F00C00082860D04D
:100F7000E069022848D1002020490866FFF722FCDA
:100F8000054606E0FFF71EFC401B022801D903209E
:100F90003AE61948006800F000700028F2D1206A93
:100FA000B0F5803F07D11448406820F40030A168B4
:100FB000084311494860D4E9080108430E494968CB
:100FC00021F4741108430C49486001200B4908665C
:100FD000FFF7F8FB054607E03DE0FFF7F3FB401B9A
:100FE000022801D903200FE60348006800F00070D2
:100FF0000028F2D02FE00000001002400000424222
:101000008004424200700040002014490866FFF747
:10101000D9FB054606E0FFF7D5FB401B022801D9A6
:101020000320F1E50E48006800F000700028F2D1BE
:1010300011E0E069012800D1E6E50948466806F4B8
:101040008031206A814204D106F47011606A8142C5
:1010500001D00120D8E50020D6E500000000424282
:101060000010024070B504462546681EB0F1807F2E
:1010700001D301200FE0681E4FF0E02148610F21ED
:101080004FF0FF3001F0C8F900204FF0E0218861F7
:1010900007200861002070BD704770472DE9F84FA8
:1010A0000446206805682068C668206847694FF0D4
:1010B0000009CA4605F00F09B9F1000F0AD105F081
:1010C000200038B106F0200020B1204600F040FE9C
:1010D000BDE8F88FB9F1000F7BD007F0010018B917
:1010E00006F49070002874D005F0010030B106F4C9
:1010F000807018B1606C40F00100606405F004007D
:1011000030B107F0010018B1606C40F0020060647B
:1011100005F0020030B107F0010018B1606C40F03A
:101120000400606405F0080048B106F0200010B922
:1011300007F0010018B1606C40F008006064606C5A
:10114000002845D005F0200028B106F0200010B19D
:10115000204600F0FDFD20684069C0F3801A606CF5
:1011600000F0080010B9BAF1000F2CD0204600F0B2
:10117000A9FD2068406900F0400000B300BF00BF37
:101180002168143151E8001F21F04000216814311A
:1011900041E80002002AF3D100BFE06B50B177486C
:1011A000E16B4863E06BFFF701F988B1E06B416BDD
:1011B00088470DE02046FFF770FF09E009E0204670
:1011C000FFF76BFF04E02046FFF767FF0020606435
:1011D0007EE7206B012877D105F01000002873D03E
:1011E00006F010000028FAD000BF00200090206810
:1011F0000068009020684068009000BF00BF206831
:10120000406900F0400000285FD0E06B0068406853
:101210001FFA80F8B8F1000F55D0A08D404552DD7F
:10122000A4F82E80E06B8069202843D000BF00BF67
:1012300021680C3151E8001F21F4807021680C31C5
:1012400041E80002002AF3D100BF00BF00BF2168BF
:10125000143151E8001F21F001002168143141E8E8
:101260000002002AF3D100BF00BF00BF2168143183
:1012700051E8001F21F040002168143141E80002CC
:10128000002AF3D100BF202084F842000020206310
:1012900000BF00BF21680C3151E8001F21F0100091
:1012A00021680C3141E80002002AF3D100BFE06B55
:1012B000FFF750F802206063A08DE28D801A81B2A2
:1012C0002046FFF7E9FE03E742E0A08DE18D401ADA
:1012D0001FFA80F8E08DD0B3B8F1000F37D000BF0F
:1012E00000BF21680C3151E8001F21F49070216883
:1012F0000C3141E80002002AF3D100BF00BF00BF5B
:101300002168143151E8001F21F0010021681431D7
:1013100041E80002002AF3D100BF202084F84200F7
:101320000020206300BF00BF21680C3151E8001F7E
:1013300021F0100021680C3141E80002002AF3D1AD
:1013400000BF0220606341462046FFF7A5FEBFE6CE
:1013500005F0800030B106F0800018B1204600F0A2
:1013600013FEB5E605F0400030B106F0400018B1BC
:10137000204600F0DDFCABE600BFA9E6B11C00088A
:1013800010B504460CB9012010BDA06900B100E001
:1013900000BF94F8410028B9002084F8400020469E
:1013A00000F02AF8242084F841002068C06820F466
:1013B00000502168C860204600F048FD20680069A0
:1013C00020F49040216808612068406920F02A00DC
:1013D000216848612068C06840F400502168C860F6
:1013E00000206064202084F8410084F8420000203E
:1013F000606300BFC8E7000010B586B00446002057
:1014000002900390049005901E492068884236D1CE
:1014100000BF1D48806940F480401B498861084630
:10142000806900F48040019000BF00BF00BF084603
:10143000806940F0040088610846806900F004007B
:10144000019000BF00BF48150290022003900320C6
:10145000059002A90D48FFF715F84FF4806002903F
:1014600000200390049002A90848FFF70BF800221F
:1014700011462520FFF72CFA2520FFF719FA06B0B0
:1014800010BD00000038014000100240000801407B
:101490002DE9F84F04460E46174699464FF0000ACC
:1014A00094F8420020284FD106B117B90120BDE8B9
:1014B000F88F00206064222084F84200002020631E
:1014C000FFF780F98246A785E785A068B0F5805FC1
:1014D00004D1206910B90025B04602E035464FF02E
:1014E000000829E05346002220212046CDF8009034
:1014F00000F07AFD08B10320D9E745B920684068BB
:10150000C0F30800A8F8000008F1020811E0A06884
:10151000B0F5805F03D0A06828B9206918B92068A9
:101520004068287004E02068406800F07F00287060
:101530006D1CE08D401EE085E08D0028D2D120207A
:1015400084F842000020B2E70220B0E770B50446FC
:101550000D46164694F8420020280BD105B10EB96D
:10156000012070BD0020206332462946204600F04D
:10157000EBFCF6E70220F4E710B5044607492068C3
:10158000884209D106480178064801F093FB012200
:1015900003490548FFF7DAFF10BD0000003801409D
:1015A000680000208C0500206C0000202DE9F84F19
:1015B00004460E46174699464FF0000A94F841003B
:1015C00020284AD106B117B90120BDE8F88F0020C4
:1015D0006064212084F84100FFF7F4F88246A78474
:1015E000E784A068B0F5805F04D1206910B90025B8
:1015F000B04602E035464FF000081BE0534600229B
:1016000080212046CDF8009000F0EEFC08B10320C8
:10161000DBE745B9B8F80000C0F30800216848606E
:1016200008F1020803E02878216848606D1CE08C0E
:10163000401EE084E08C0028E0D153460022402187
:101640002046CDF8009000F0CFFC08B10320BCE7A5
:10165000202084F841000020B7E70220B5E770475A
:1016600000BFFEE700B585B0002001900290039016
:10167000049000BF1C48806940F020001A4988612E
:101680000846806900F02000009000BF00BF00BF46
:101690000846806940F0040088610846806900F0CF
:1016A0000400009000BF00BF00BF0846806940F002
:1016B000080088610846806900F00800009000BFBB
:1016C00000BF012206210948FFF776F806200190A5
:1016D00001200290002003900220049001A90348F9
:1016E000FEF7D0FE05B000BD00100240000801402A
:1016F00010B50B480B4908604FF4E13048600021F9
:1017000008488160C16001610C2141610021816153
:10171000C161FFF735FE08B1FEF719FE10BD0000EC
:10172000003801406C00002000BFFEE700BFFEE76C
:101730007047000008B508490968C9084FF47A7273
:10174000B1FBF2F14143009100BF00BF00994A1E76
:1017500000920029F9D108BD0C0000202DE9F05FAE
:1017600005460F469046994600BFDFF864B09BF8E7
:101770000000532801D000F08BFC00BFDFF850A020
:10178000032D1FD2EFF311810846202181F3118828
:1017900000BF00BF05EB45020AF1600101EBC20486
:1017A0003DB12760C4F80480C4F80890002121618D
:1017B000E1600A996161C1B281F3118800BF00BF85
:1017C000002601E04FF0FF363046BDE8F09F0000F4
:1017D000B40000202DE9F05F05460F46904699467B
:1017E00000BFDFF864B09BF80000532801D000F080
:1017F0004FFC00BFDFF850A0032D1FD2EFF3118183
:101800000846202181F3118800BF00BF05EB450287
:101810000AF1180101EBC2043DB12760C4F804804D
:10182000C4F8089000212161E1600A996161C1B2A8
:1018300081F3118800BF00BF002601E04FF0FF36A2
:101840003046BDE8F09F0000B400002010B500F065
:101850001FFC10BD2DE9F843044600BFDFF8888067
:1018600098F80000532801D000F012FC00BF0027B8
:10187000FF208DF80000102C31D21C48005D8DF83F
:101880000100194D1835EFF311808046202080F3B8
:10189000118800BF00BF287D00F00300022807D197
:1018A0001348047002226946284600F045FD0FE007
:1018B000284600F025FC0646022E07D30C4804708B
:1018C00002226946284600F072FD01E04FF0FF3722
:1018D00008F0FF0080F3118800BF00BF01E04FF067
:1018E000FF373846BDE8F883B4000020B63C000856
:1018F000100000202DE9F04104460D46164600BFB9
:101900000E4F3878532801D000F0C2FB00BFEFF330
:1019100011800746202080F3118800BF00BF3246A7
:101920002946204600F00CF88046F8B280F3118872
:1019300000BF00BF4046BDE8F0810000B4000020B9
:101940002DE9F047074688461646C24607EB470191
:101950001B4800EBC109D9F8140020B1012811D0AF
:10196000022826D11EE0484600F0CAFB0546B542D3
:1019700001D2002405E0344632465146484600F084
:1019800016FD18E0484600F0BBFB0546B54201D203
:10199000284600E03046044622465146484600F0BC
:1019A00006FD08E032465146484600F0C5FC0446B4
:1019B00001E0002400BF00BF2046BDE8F087000022
:1019C000CC0000200FB438B5044606A800906A4643
:1019D0002046059900F007F80546002000902846AB
:1019E00038BC5DF814FB2DE9F04F99B082460D46E6
:1019F000144603A814904020159000201690CDF8AE
:101A000060A0179000BF2E786D1C06B9DDE0252E72
:101A100079D100274FF0010900BF2E78232E12D074
:101A20002B2E0CD02D2E02D0302E10D103E047F0FB
:101A300001076D1C0EE047F002076D1C0AE047F03D
:101A400004076D1C06E047F008076D1C02E04FF02C
:101A5000000900BF00BFB9F1000FDED14FF0000850
:101A600000BF2E78302E01DB392E00DD07E06D1C23
:101A7000A6F1300008EB880100EB4108F1E700BF58
:101A8000002013902E782E2E12D16D1C00BF2E78C0
:101A9000302E01DB392E00DD09E06D1CA6F130008F
:101AA000139901EB810100EB41001390EFE700BFB8
:101AB0002E7800BF6C2E01D0682E02D16D1C2E78BE
:101AC00000E000E0F6E700BF702E5DD008DC252EB8
:101AD0006AD0582E35D0632E09D0642E69D113E018
:101AE000732E3CD0752E1DD0782E62D128E021684F
:101AF000081D2060D1F8009009F0FF0B594614A88A
:101B000000F0F8FB56E058E02168081D2060D1F88D
:101B10000090CDE900870A22494614A8139B00F0E3
:101B2000FDFA47E02168081D2060D1F80090CDE95A
:101B300000870A22494614A8139B00F065FB39E090
:101B400000BF2168081D2060D1F80090CDE9008712
:101B50001022494614A8139B00F056FB2AE0216886
:101B6000081D2060D1F800B000BF9BF800600BF1A9
:101B7000010B06B906E0314614A800F0BBFB17982C
:101B80000028F2DA00BF15E02168081D2060D1F8B6
:101B90000090002008210B461022CDE90010494694
:101BA00014A800F031FB05E0252114A800F0A2FBE9
:101BB00000E000BF00BF6D1C03E0314614A800F038
:101BC00099FB17980028BFF61EAF00BF1798002892
:101BD0000ADD169820B103A95046169AFFF78AFE2F
:101BE000DDE9161008441790179819B0BDE8F08F7A
:101BF000704701460020704770B504460D464FF609
:101C0000FF73012221460448FFF742FC08B100207F
:101C100070BD0120FCE700006C00002001460020A0
:101C20007047000070B505460C464FF6FF7322461C
:101C300029460248FFF7BAFC20B270BD6C000020B4
:101C400010B5FEF7C5FD10BD00B58FB0282105A861
:101C5000FEF783FA14216846FEF77FFA012005900B
:101C600000040690002007900120099002200C90AB
:101C7000C1030D914FF4E0110E9105A8FEF7C0FFCE
:101C800008B1FEF764FB0F200090022001900020B5
:101C900002904FF480600390002004900221684677
:101CA000FEF78AFE08B1FEF752FB0FB000BD704789
:101CB00070B505466C6A0020E085E0842046FFF799
:101CC000ECF970BD00BF00BF02680C3252E8002F73
:101CD00022F4907102680C3242E80013002BF3D119
:101CE00000BF00BF00BF0268143252E8002F22F08C
:101CF00001010268143242E80013002BF3D100BF47
:101D0000016B01290ED100BF00BF02680C3252E8FE
:101D1000002F22F0100102680C3242E80013002B61
:101D2000F3D100BF202180F84210002101637047E9
:101D300010B504462068C06820F040002168C860E3
:101D4000202084F841002046FFF789FC002010BDC8
:101D5000F8B5044694F84200222875D1A068B0F581
:101D6000805F0CD1206950B90025A66A20684068C0
:101D7000C0F308003080A06A801CA06215E0A56A4C
:101D80000026A068B0F5805F03D0A06828B920695C
:101D900018B920684068287004E02068406800F0A6
:101DA0007F002870A06A401CA062E08D401E80B2B7
:101DB000E085002846D12068C06820F02000216816
:101DC000C8602068C06820F480702168C8602068FE
:101DD000406920F0010021684861202084F8420019
:101DE00000206063206B012826D10020206300BF03
:101DF00000BF21680C3151E8001F21F0100021685C
:101E00000C3141E80002002AF3D100BF20680068CD
:101E100000F0100010280AD100BF002000902068B8
:101E20000068009020684068009000BF00BFA18D4E
:101E30002046FFF731F902E02046FFF79DFB002026
:101E4000F8BD01E00020FBE70220F9E770B5044689
:101E50002168096921F44051E26811432268116147
:101E60002269A1681143626941EA02052168C968D3
:101E700041F20C62914329432268D160216849698B
:101E800021F44071A2691143226851612D4A2168F1
:101E9000914202D1FEF76CFE01E0FEF759FE00EB25
:101EA000C00101EB001162689200B1FBF2F100EB9E
:101EB000C00202EB001263689B00B2FBF3F26423E2
:101EC000B2FBF3F202EBC20303EB0212A1EB8201BD
:101ED000322202EB01116422B1FBF2F101F0F001B8
:101EE00000EBC00202EB001263689B00B2FBF3F24E
:101EF0006423B2FBF3F201EB021200EBC00101EB31
:101F0000001163689B00B1FBF3F100EBC00303EB2E
:101F100000136668B600B3FBF6F36426B3FBF6F372
:101F200003EBC30606EB0313A1EB8301322303EBA0
:101F300001116423B1FBF3F101F00F011144226898
:101F4000916070BD0038014010B5034699629A85D2
:101F5000DA8500205864222083F84200186928B1ED
:101F60001868C06840F480701C68E06018684069B8
:101F700040F001001C6860611868C06840F02000F3
:101F80001C68E060002010BD014691F84100212846
:101F900028D18868B0F5805F0BD1086948B90A6A12
:101FA0001088C0F308000B685860086A801C08623B
:101FB00005E00B6A581C086218780B685860C88CDA
:101FC000401E80B2C88458B90868C06820F08000FC
:101FD0000B68D8600868C06840F040000B68D860A3
:101FE000002070470220FCE72DE9F04104460D4631
:101FF00017469846069E34E0701C88B32EB1FEF753
:10200000E1FBA0EB0800B0422BD900BF00BF216864
:102010000C3151E8001F21F4D07021680C3141E8E7
:102020000002002AF3D100BF00BF00BF21681431B5
:1020300051E8001F21F001002168143141E800023D
:10204000002AF3D100BF202084F8410084F8420028
:1020500000BF002084F8400000BF0320BDE8F081ED
:10206000FFE7206800682840A84201D1012000E075
:102070000020B842C0D00020F0E7000010B50248B0
:10208000FFF70CF810BD00006C00002000BFFEE759
:1020900070B5144CA8212046FEF75FF8032020619C
:1020A000606111A0A0611349E1614FF48061216278
:1020B0000021A1626162E1620BA020660E496166A7
:1020C0001021A16600212167E1666167002505E016
:1020D000C5F10F000949085C60556D1C102DF7D340
:1020E00070BD0000B40000205465726D696E616CB3
:1020F000000000005C0100205C050020C63C0008D8
:1021000010B501460A69CB689A4204D88C68641EEF
:10211000E41AA01801E0D41A601E10BD2DE9FC5F7E
:1021200006460F4692469846DDE90C45002F01DA37
:10213000784200E0384683464FF0010903E09BFBFC
:10214000FAFB09F10109D345F9DAC84500D9C146BE
:1021500034B1002F03DB05F00400042800D1641E15
:1021600005F0020010B1B8F1000F11D005F0010028
:1021700070B96CB108E0641E2021304600F0BAF856
:10218000F068002800DA02E00CB1A145F3D300BFEB
:10219000F068002836DB002F05DA7F422D2130461B
:1021A00000F0A8F807E005F00400042803D12B2173
:1021B000304600F09FF8F068002823DB05F00200AD
:1021C000022814D105F0010088B9B8F1000F0ED132
:1021D0006CB108E0641E3021304600F08BF8F068E6
:1021E000002800DA02E00CB1A145F3D300BFF0688B
:1021F000002807DB4346524639463046CDE90045C4
:1022000000F002F8BDE8FC9F2DE9FC5F804689469E
:1022100015461E460C9CCDF804900127BB4605E0F0
:102220000198B0FBF5F001900BF1010B0198A84269
:10223000F6D25E4500D9B3460D9800F00100D0B942
:10224000CCB10D9800F00200022803D116B930205D
:10225000009001E02020009009E0641E40460099B3
:1022600000F048F8D8F80C00002800DA02E00CB1C1
:10227000A345F2D300BFD8F80C00002835DB09E0F5
:10228000012E01D9761E04E0B9FBF7FAAA4500D267
:1022900001E06F43F4E700BF00BFB9FBF7FA0AFBA8
:1022A0001799134810F80A10404600F023F8D8F8A0
:1022B0000C00002800DA03E0B7FBF5F7002FECD1A3
:1022C00000BF0D9800F0010078B174B109E0641E00
:1022D0002021404600F00EF8D8F80C00002800DA63
:1022E00002E00CB1A345F2D300BFBDE8FC9F0000A3
:1022F000D73C000870B504460E46A568681C6168A6
:10230000814206D320684655681CA060E068401CE6
:10231000E060D4E9011088420DD1A26821682069EB
:10232000FFF7E8FAA168884203D04FF0FF30E06081
:1023300001E00020A06070BD2DE9F05F04468946F1
:1023400017464FF0000AE56800BFD4F81080A84592
:1023500003D9A8EB0500461E04E0A5EB0800401CCD
:10236000A1680E1AA068401BB04201D9304601E0B6
:10237000A068401B0646BE4201D2304600E0384607
:102380000646606800EB050B324649465846FDF7A5
:10239000CBFEB244B144BF1B3544A068A84200D173
:1023A0000025E560002FD0D15046BDE8F09F2DE913
:1023B000F047044689461546E668A068871BAF4289
:1023C0000AD9606800EB060A2A4649465046FDF7DE
:1023D000ABFE7019E06014E0B846606800EB060AD6
:1023E000424649465046FDF79FFEA5EB0708D4F844
:1023F00004A009EB070142465046FDF795FEC4F8DC
:102400000C80BDE8F087000002480068C0F302209D
:10241000704700000CED00E010B5002804DB0A074F
:10242000130E054A135406E00A07140E034A00F07F
:102430000F031B1FD45410BD00E400E018ED00E0B2
:1024400002E008C8121F08C1002AFAD1704770477D
:10245000002001E001C1121F002AFBD170470000DB
:10246000F8B504460D4616462B46224602A100202A
:10247000009600F051F8F8BD696E70757420696EB1
:10248000743A2025642C20636861723A2025632CFD
:1024900020737472696E673A2025730D0A0000007C
:1024A000FEF7A2F9FFF7D0FBFFF7DCF8FFF720F902
:1024B000012209490948FFF749F800F013F801F033
:1024C000C7FB07E004210648FEF76CF94FF4FA70E9
:1024D000FDF7C4FFF6E70000680000206C00002054
:1024E0000008014008B5FFF7B1F900200346024695
:1024F00005A10090FFF76EF900200346024604A1F3
:102500000090FFF72BF908BD5254545F555000005E
:102510005254545F445700000FB438B50446204667
:10252000FFF798F906A800906A4600200599FFF782
:102530005AFA054604A10020FFF744FA0020009053
:10254000284638BC5DF814FB1B5B313B33376D000C
:102550000146002009E0074A52F820201AB9054A2E
:1025600042F820107047421C10B20528F3DB00BF70
:10257000F8E700006C05002010B504460121204654
:1025800000F075F810BD000010B50446226891688F
:102590002069FDF7F4FD60B994F8600020F00100B7
:1025A000401C84F8600008480168204601F00CFBDC
:1025B00004E00548416B204601F006FB0020A081A5
:1025C0000021E18110BD00001400002002460878BF
:1025D00058B1487800F00F00082806D0106878B18C
:1025E000087813681B78184050B192F8600000F02A
:1025F000010018B94878C0F3001008B100207047F6
:102600004FF0FF30FBE7000010B500F00FFB044671
:1026100024B10348816B204601F0D6FA10BD0000BA
:102620001400002070B50446A189E089081A05B29B
:1026300005E02021204601F0E1F9681E05B2002DD9
:10264000F7DC217B204600F07FF870BD10B500F06C
:10265000EDFA044614B1204600F03CFD10BD10B563
:1026600004464FF0FF31204600F001F810BD2DE97F
:10267000F04104460D46681C08B9012000E0002026
:102680000746E08908B9012D05D0E089A189884273
:1026900003D1681C08B9BDE8F081E089A1898842AE
:1026A00010D1012D0ED1E089401EE081A089401E8D
:1026B000A0810021A289206981540121204600F0D7
:1026C00043F83FE038460AE0E18901442269525C60
:1026D000E1890144491E23695A54411C08B2A28968
:1026E000E189511A8142EFDCA089401EA08137B9EF
:1026F000E089401EE0810821204601F07FF9002199
:10270000A28920698154E08906B206E02069815DD2
:10271000204601F073F9701C06B2A089B042F5DCC6
:102720002021204601F06AF9A189E089081A401C9D
:1027300006B205E00821204601F060F9701E06B2DD
:10274000002EF7DC00BFA6E770B505460C4603E097
:1027500004A1284601F038FA201EA4F10101CCB2F0
:10276000F6D170BD0820080010B504464FF0FF31C7
:10277000204600F039FB10BD10B50446204600F09D
:1027800005F80121204601F0A5F910BD70B50446F9
:10279000A08900B970BD0021A2892069815494F8F4
:1027A000600000F0010010B3204600F07EFB2046E0
:1027B00000F0C6FD0021E181A181E08E00B9E9E7CA
:1027C0000DA1204601F000FA00232046A26D6169A8
:1027D00000F097FE054625B12946204600F03AFE56
:1027E00004E006488169204601F0EEF902E0204647
:1027F000FFF7CAFE00BFCDE70D0A0000140000205D
:1028000010B50246114600200B78302B07D14B78CB
:10281000782B02D04B78582B01D103200EE00B7897
:10282000302B07D14B78622B02D04B78422B01D151
:10283000012003E00B78302B00D1022006E00B785A
:102840002E2B03D14B780BB1042003E011F8014B80
:10285000002CF4D100BF10BD02461378272B01D104
:10286000531C00E01346194600200B785C2B1AD14C
:102870004B786E2B0ED004DC302B0FD0622B0FD197
:1028800004E0722B04D0742B0AD105E0082009E083
:102890000D2007E00A2005E0092003E0002001E008
:1028A000487800BF00E0087870472DE9F04F85B008
:1028B00005464FF000094FF00A0A2C46CB46012688
:1028C000002700200490804628782D2800D1B61ECD
:1028D000711C09B9012100E000214819FFF790FFA0
:1028E0008146B9F1010F0FD0B9F1020F07D0B9F14C
:1028F000030F0DD14FF0100A4FF0020B09E04FF01B
:10290000080A4FF0010B04E04FF0020AD34600E042
:1029100000BF00BF05EB0B01701C08B9012000E0EF
:1029200000200C1811E020782E2803D14FF0010868
:10293000641C0AE0207800F01EF907FB0A0708EB88
:1029400088004FEA4008641C00BF20780028EAD1C4
:10295000B9F1040F1AD1B8F1000F17D03046FDF7C6
:102960009BFC03904046FDF7A0FC01903846FDF724
:102970009CFC00900199FDF751FC02900399FDF732
:102980001BFC0490049805B0BDE8F08F07FB06F02F
:10299000F9E72DE9F04107460C4616461D4626B1DB
:1029A0002078242831D1607870B32078272808D186
:1029B000607830B12046FFF74FFF28600020BDE867
:1029C000F08120782D2805D02078302808DB207869
:1029D000392805DC2046FFF768FF28600020EEE775
:1029E0002078242808D1607830B12146384600F09C
:1029F00034F828600020E2E7207828B1204600F073
:102A000007F828600020DAE7FFE74FF0FF30D6E74D
:102A100070B50446254600262078222802D1601C85
:102A20000446054613E028785C2805D1681EFFF7A8
:102A300013FFA0556D1C07E02878222802D1002042
:102A4000A05501E02878A0556D1C701C86B228782E
:102A50000028E8D1A055204670BD70B504460D464B
:102A60000023691C2046A26D00F04BFD064626B1EE
:102A70003146204600F0F4F870BD0020FCE72DE957
:102A8000F0478CB081460C4615461E46202104A80E
:102A9000FDF763FBA07800F00F01681E814203DDA3
:102AA000A07800F00F0000E0681E07464FF0000815
:102AB000C24612E004A800EB8A030AF1010056F8AE
:102AC000201000224846FFF764FF20B14FF0FF308E
:102AD0000CB0BDE8F0870AF1010A681E5045E9DC38
:102AE000082F42D2DFE807F004080D13192029341B
:102AF000A068804780463BE00498A16888478046EC
:102B000036E0DDE90401A2689047804630E004A881
:102B100007C8A368984780462AE004A80FC8D4F8DD
:102B200008C0E047804623E00898009004A80FC83A
:102B3000D4F808C0E04780461AE0DDE90801CDE995
:102B4000000104A80FC8D4F808C0E04780460FE091
:102B5000DDE908120A98CDE90012029004A80FC816
:102B6000D4F808C0E047804602E04FF0FF3800BFCD
:102B700000BF4046ACE70146302905DB392903DCBC
:102B8000A1F13000C0B27047612905DB662903DC82
:102B9000A1F15700C0B2F6E7412905DB462903DC65
:102BA000A1F13700C0B2EEE70020ECE7014648781B
:102BB00000F00F00012801DCC8687047487800F079
:102BC0000F00072801DCC868F7E7487800F00F001D
:102BD000082801DCC868F0E7C868EEE710B50446CD
:102BE000002004E03021104A1154411CC8B20928C9
:102BF000F8DB607800F00F00012801DC606810BD90
:102C0000607800F00F00072801DC6068F7E7607863
:102C100000F00F00082801DC6068F0E702496068F6
:102C200000F0B7FE0048EAE780050020002111E02F
:102C30000A4850F8210058B1084850F8210090F88F
:102C40006000C0F3400018B1044850F821007047FC
:102C5000481C01B20529EBDB0020F8E76C050020D9
:102C600070B506460C460025607800F00F00801E07
:102C700006281BD2DFE800F003060A0D0E10A0683C
:102C8000056814E0A068B0F9005010E0A06805786D
:102C90000DE000BFA5680AE0A068406818B1A2680E
:102CA00003CA884700E00020054600E000BF00BFDF
:102CB000284670BD2DE9F04704468846B8F1000F5C
:102CC00001D1BDE8F0872046E16E884718274FF014
:102CD0000009208F00F47F4018B100276FF0FF0932
:102CE0000EE0A06B00F47F0018B10827DFF8C89051
:102CF00006E0A06B00F07F4010B110274FF07F4935
:102D0000A66D00253EE006EB0510407800F00F00B0
:102D1000092835D106EB05112046FFF757FC70BB9B
:102D200006EB0510406800EA0900A16B884227D134
:102D300006EB05104068FF21B940084008FA07F18A
:102D400088421DD108FA07F1A06B0843A0634FF039
:102D5000000847B106EB05104068A7F10801FF2203
:102D60008A40104058B906EB0510806820B106EB88
:102D700005108168204688470021A16306E0FFE72F
:102D8000681C05B25C20005BA842BCDC00BFB8F147
:102D9000000F05D00021A1634146204600F0C2FA91
:102DA000FDF710FD10B1FDF70DFD60602046216FAD
:102DB000884700BF85E700000000FFFF70B50446AC
:102DC0000D46FFF733FF064606B970BD012C03D14F
:102DD000304600F079F905E0012C03DD30466968E2
:102DE00000F042FE00BFF0E770B504460D46002D2E
:102DF00025DDB4F954105420005B401E02B254206B
:102E000002535020025B5220005B824202DD5020C0
:102E1000005B01E05220005B404281421DDC5020FB
:102E2000015B5220005B814202DD5020005B01E02B
:102E30005220005B404201B2542001530DE0002DAE
:102E40000ADA5420005B401C01B2542001530029CF
:102E500003DD0021015370BDFDE72046FFF7E2FBD3
:102E60005420005B18B90021A181E1811BE05220B0
:102E7000005B401DB4F954100844052190FBF1F2A9
:102E800001FB120104F13C0050F821603146206939
:102E900000F098FCA08100B9DDE7A189E18120461E
:102EA000216900F091FE00BFD5E710B5044600216E
:102EB000542001535020005B002810DD5222125B89
:102EC00021690AB9052201E05222125B521E04F167
:102ED0003C0353F82200FDF752F900B910BD52220D
:102EE000135B04F13C0252F82300216900F06AFCF4
:102EF00028B15220005B401C81B252200153502067
:102F0000005B401C81B250200153052901DD0521E1
:102F100001535220005B052802DB0021522001539F
:102F200000BFDBE72DE9F04104460D4616460020C0
:102F3000A0810021E181206094F8600020F0010070
:102F4000401C84F860002561062096FBF0F0A08606
:102F5000542001535020015352200153002009E016
:102F6000A28E411C02FB015204F13C0141F82020D9
:102F7000411C08B20528F3DB0E48A0650E480D4938
:102F8000401AC0F30F115C2001532046FFF7E0FA0E
:102F900000230AA12046A26D00F0B3FA0746394685
:102FA000204600F0EBFA0121204600F093FDBDE839
:102FB000F0810000BC4000080C4200086C6574748D
:102FC0006572000070B504460D46A189A08E401EB2
:102FD00081420DDB30484168204600F0F5FD0121BB
:102FE000204600F077FD2046216900F0EDFD70BD20
:102FF000E089A189884210D1A189481CA08120695B
:1030000045540021A28920698154E089401CE08157
:103010002946204600F0F2FC3CE0E089A189884284
:1030200038DAA289E189511A08B20AE0E18901443B
:10303000491E2269525CE189014423695A54411EA8
:1030400008B20028F2DCE189481CE081206945547F
:103050000021A089401C80B22269A0811154E0891E
:10306000401E06B206E02069815D204600F0C6FCE5
:10307000701C06B2A089B042F5DCA189E089081A6B
:1030800006B205E00821204600F0B8FC701E06B22A
:10309000002EF7DC00BFAAE71400002010B5FFF7F0
:1030A000C5FD044614B1204600F0B8F810BD10B5B7
:1030B0000446E089002806DD0821204600F09EFC39
:1030C000E089401EE08110BD10B50446204600F0A6
:1030D00001F810BD70B50546AE6D104881682846F0
:1030E00000F072FD002413E006EB0410407800F0BD
:1030F0000F0001280ADC06EB04112846FFF766FAE8
:1031000020B906EB0411284600F00AF8601C04B24E
:103110005C20405BA042E7DC70BD00001400002092
:103120002DE9F04107460C462046FFF757FD0546BE
:103130002946384600F048FDC0F1160006B2002EC0
:1031400001DD304600E00420064600BF202138465D
:1031500000F054FC701E00B2061EF7D1607800F03B
:103160000F00012805DC2A48016C384600F02CFDD0
:1031700025E0607800F00F00072805DC2448416C4A
:10318000384600F021FD1AE0607800F00F000828B2
:1031900005DC1F48816C384600F016FD0FE06078B2
:1031A00000F00F00092805DC1948C16C384600F012
:1031B0000BFD04E01648016D384600F005FD15A131
:1031C000384600F001FD07250DE020780122AA40D5
:1031D000104008B1782000E02D200146384600F06C
:1031E0000DFC681E45B2002DEFDA0AA1384600F04A
:1031F000EBFC2046FFF7DAFC05462946384600F08E
:1032000005FC05A1384600F0DFFCBDE8F0810000B8
:1032100014000020202000000D0A000070B50646B2
:10322000B56D13484169304600F0CEFC00241AE029
:1032300005EB0410407800F00F00082811DD05EBC5
:103240000410407800F00F0009280ADC05EB041197
:103250003046FFF7BBF920B905EB04113046FFF704
:103260005FFF601C04B25C20805BA042E0DC70BDAC
:103270001400002070B50646B56D1348016930464C
:1032800000F0A2FC00241AE005EB0410407800F0E6
:103290000F00072811DD05EB0410407800F00F0047
:1032A00008280ADC05EB04113046FFF78FF920B936
:1032B00005EB04113046FFF733FF601C04B25C20BD
:1032C000805BA042E0DC70BD1400002070B50646B3
:1032D000B56D1348C168304600F076FC00241AE052
:1032E00005EB0410407800F00F00012811DD05EB1C
:1032F0000410407800F00F0007280ADC05EB0411E9
:103300003046FFF763F920B905EB04113046FFF7AB
:1033100007FF601C04B25C20805BA042E0DC70BD53
:103320001400002070B504460D4694F8600020F0AB
:10333000040084F8600029462046FFF743FE70BD74
:10334000F0B500220123002106E0002500F114045D
:1033500044F821504C1C21B20829F6DB0024C48615
:10336000002130E032B90469645C202C25D0046966
:10337000645C14B30469645C222C04D10AB901248E
:1033800000E000242246012B0CD1C48E082C08DA60
:1033900004696518C68E741CC48600F1140444F8D0
:1033A000265000230469645C5C2C0AD14C1C05691E
:1033B0002C5D34B14C1CA1B203E0002504696554B6
:1033C00001234C1CA1B284898C42CBDCF0BD70B5CA
:1033D000044600252BE004F1140050F82500007885
:1033E00022280CD1002104F1140050F825000170AE
:1033F00004F1140050F82510491C40F8251004F180
:10340000140151F82500FCF7B3FE86B204F1140054
:1034100050F82510701E085C222806D1002104F106
:10342000140050F82520701E1154681C85B2E08EDF
:10343000A842D0DC70BD10B50446E089A18988425D
:1034400007DAE289501CE0812069815C204600F0A7
:10345000D5FA10BD70B504460D46002694F86000FC
:1034600020F00200801C84F86000687800F00F00F3
:1034700088B92046FFF7ABFFE08E04F11401AA687B
:10348000904706466878C0F3401040BB314620465E
:1034900000F054FB2DE0687800F00F00012810D1F7
:1034A000E28E04F1140329462046FFF7E8FA0646A7
:1034B0006878C0F3401090B93146204600F03EFBDA
:1034C00017E0687800F00F00022809DB687800F048
:1034D0000F00072804DC2946204600F0FDF808E02C
:1034E000687800F00F00082803D12946204600F034
:1034F00045F894F8600020F0020084F8600030463F
:1035000070BD2DE9F0470646884614461F465C20EC
:10351000805BB16D611AA0EB11101FFA80F90025D4
:1035200028E004EB0510407800F00F00092805D0D2
:1035300004EB05113046FFF749F800B118E004EB41
:103540000510FFF74BFB824647B951464046FCF752
:1035500016FE60B904EB0510BDE8F0873A46514607
:103560004046FCF71AFE10B904EB0510F4E700BF63
:10357000681C85B24D45D4DB0020EDE770B50446EC
:103580000D462560A86858B1A868FCF7F1FD38B170
:10359000E08E022806DBA169A868FCF7F0FD08B9F7
:1035A000012000E0002094F8601060F3000184F82E
:1035B00060100848816B204600F006FB94F860001C
:1035C00000F0010020B103480168204600F0FCFA39
:1035D00070BD0000140000202DE9F04106460F46A2
:1035E000FFF724FB054615B90020BDE8F081002354
:1035F00031462846AA6DFFF784FF044634B91148C6
:10360000816A284600F0E0FA0020EEE7607800F0DA
:103610000F00022804DB607800F00F0007280ADDA5
:103620003146284600F0D0FA0648416A284600F0A4
:10363000CBFA0020D9E73A462146284600F004F8A4
:10364000D3E700001400002070B506460C4615466E
:103650006078C0F3801028B11E48016A304600F03F
:10366000B3FA32E0607800F00F00801E06282AD2FC
:10367000DFE800F003060A0D1218A068056023E0D9
:1036800029B2A06801801FE0A06805701CE02946EF
:10369000A06800F097F817E00E48C169304600F0C6
:1036A00093FA11E0A068806860B1A068006828B152
:1036B000A1688A6808682946904703E0A068816885
:1036C0002846884700E000BF00BF2146304600F092
:1036D00003F870BD14000020FEB505460C4626A276
:1036E00007CA8DE8070021462846FFF7B9FA0746C2
:1036F0002846616800F068FA22A1284600F064FAC2
:10370000607800F00F0005280CD11FA1284600F0BA
:103710005BFA3946284600F057FA1BA1284600F00C
:1037200053FA21E06946384600F008F9C0F10B0071
:10373000694646183146284600F046FA13A1284645
:1037400000F042FA002004E030210DF80010411C86
:1037500008B20B28F8DB6946384600F01AF96946CA
:10376000284600F031FA00BF00BF0AA1284600F049
:103770002BFA3846FEBD000030303030303030306B
:1037800030303000203D2000220000002C20307816
:10379000000000000D0A000030B502460B46002074
:1037A000002108E0545C5D5CAC4200D008E0441CA1
:1037B000A0B24C1CA1B2545C14B15C5C002CF1D1E1
:1037C00000BF30BD0246002003E00B5C1354431CD5
:1037D00098B20B5C002BF8D1135470472DE9F84FC9
:1037E0000446B4F834A04FF000080025A08938B989
:1037F0002046FFF769FC0121204600F06BF970E0DC
:10380000A08900286DDD0021A28920698154A66D60
:10381000002737E006EB07112046FEF7D7FE78BBFE
:1038200006EB0710FFF7DAF9834659462069FFF7E0
:10383000B3FFA189884223D1F5B1012D03D13EA167
:10384000204600F0C1F906EB08112046FFF768FC9E
:1038500006EB0710FFF7C2F9834606EB0810FFF7E7
:10386000BDF959460090FFF797FF8146CA4501DD33
:10387000484600E0504682461FFA87F8681C85B229
:10388000781C07B25C20005BB842C3DC0DB9BDE810
:10389000F88F012D02D12046FEF7C4FE4DB106EB94
:1038A0000810FFF79BF9074639462069FFF78AFFA2
:1038B000A081012D0ADD06EB08112046FFF730FC40
:1038C0000121204600F006F9A4F80CA00021A289ED
:1038D00020698154A189E1812046216900F074F9B1
:1038E00000BFFCF76FFF20B3012D1BD194F86000DF
:1038F000C0F38000B0B1FCF765FF6168401AC828CA
:1039000010D20DA1204600F05FF92046216900F099
:10391000ABF80121204600F0DDF82046216900F0D7
:1039200053F906E094F8600020F00400001D84F8CC
:10393000600000BFABE700000D0A000030B5024692
:103940000B241346002A00DA53420020C8720DE00F
:103950000A2093FBF0F500FB15303030C5B2601E35
:10396000C0B204460D540A2093FBF0F3002BEFD1B4
:10397000002A04DA2D25601EC0B204460D5422B977
:103980003025601EC0B204460D54C4F10B0040B295
:1039900030BD30B502460B460824002018720EE0F8
:1039A00002F00F01092902DD01F1570001E001F1E8
:1039B0003000C5B2601EC0B204461D541209002A70
:1039C000EED1C4F1080040B230BD10B5044601216B
:1039D0002046FFF709FA10BD10B5FFF727F9044696
:1039E00014B12046FFF746FC10BD10B5FFF71EF9D5
:1039F000044614B12046FFF769FC10BD13B5044618
:103A0000012101A8A26E90471CBD00002DE9F041E4
:103A100004460F4600253E46A06E10B90020BDE8C2
:103A2000F08102E0761C681C85B2307828B13078CD
:103A30000D2802D030780A28F4D1242D08DD242165
:103A40003846A26E9047032106A0A26E904703E07D
:103A500029463846A26E9047242D01DD2420DEE75A
:103A60002720DCE72E2E2E002DE9F04104460E46DD
:103A7000002331462046A26DFFF743FD0546EDB118
:103A80001248C16A204600F09FF82846FFF7A6F8C2
:103A900007463946204600F097F80DA1204600F071
:103AA00093F82846FFF782F807463946204600F08B
:103AB0008BF807A1204600F087F804E003488169ED
:103AC000204600F081F8BDE8F081000014000020DD
:103AD0000D0A000070B504460D4694F8600000F031
:103AE0000100D8B11DB110A1204600F06DF820688A
:103AF0004168204600F068F80CA1204600F064F808
:103B0000A06808B1A06800E009A00146204600F0C6
:103B10005BF808A1204600F057F804E00648016B66
:103B2000204600F051F870BD0D0A00003A00000078
:103B30002F0000002420000014000020FEB50546E0
:103B40000C4618A2D2E900109268CDE9010200915A
:103B500017A1284600F038F869462046FFF7EEFE28
:103B6000C0F10B00694646183146284600F02CF893
:103B700012A1284600F028F8002004E030210DF8BA
:103B80000010411C08B20B28F8DB69462046FFF7FD
:103B900000FF6946284600F017F80AA1284600F001
:103BA00013F8FEBD3030303030303030303030003F
:103BB00052657475726E3A20000000002C20307837
:103BC000000000000D0A00002DE9F04104460D46FA
:103BD00000262F46A06E10B90020BDE8F08101E05C
:103BE000701C86B217F8011B0029F9D1314628460E
:103BF000A26E904780B2F0E710B504A10020FEF756
:103C00008BFC02210648FCF7CDFD10BD6C656432CB
:103C100020746F67676C6520746573740D0A00000B
:103C20000008014010B505A10020FEF775FC40F624
:103C3000B830FCF713FCFCF79DFE10BD737973746C
:103C4000656D20726573746172740D0A0000000066
:103C500010B5084808498866084848660848C86694
:103C6000084808674FF4007207490348FFF75AF9FC
:103C700010BD0000251C00088C050020F91B000861
:103C8000F31B00081D1C00080006002002030405A9
:103C9000060708090A0B0C0D0E0F10100102000098
:103CA00000000000000001020304060708090000EC
:103CB00000000102030430313233343536373839ED
:103CC0004142434445460000000000005454522045
:103CD0005245474745530030313233343536373853
:103CE000394142434445466C657474657200006412
:103CF000656661756C7420757365720073657456C2
:103D00006172007365742076617200757000646F73
:103D1000776E007269676874006C65667400746120
:103D200062006261636B7370616365006261636B03
:103D300073706163650064656C65746500656E74BD
:103D4000657200656E7465720068656C70007368FA
:103D50006F7720636F6D6D616E6420696E666F0DA5
:103D60000A68656C70205B636D645D0075736572D5
:103D700073006C69737420616C6C207573657200DC
:103D8000636D6473006C69737420616C6C20636D87
:103D9000640076617273006C69737420616C6C20CE
:103DA000766172006B657973006C69737420616C65
:103DB0006C206B657900636C65617200636C656192
:103DC0007220636F6E736F6C65007265626F6F74E3
:103DD000006D6375207265736574006C6564006CBA
:103DE00065643220746F67676C65730066756E007A
:103DF00074657374000000000D0A436F6D6D616E91
:103E000064204C6973743A0D0A0000000D0A566173
:103E100072204C6973743A0D0A0000000D0A557344
:103E20006572204C6973743A0D0A00000D0A4B65E7
:103E300079204C6973743A0D0A000000436F6D6D70
:103E4000616E64206E6F7420466F756E640D0A009B
:103E50000D0A5761726E696E673A20436F6D6D612E
:103E60006E6420697320746F6F206C6F6E670D0A2B
:103E700000000000206973206E6F7420612076615D
:103E8000720D0A0063616E27742073657420726579
:103E90006164206F6E6C79207661720D0A000000FB
:103EA00063616E27742073657420706F696E74652A
:103EB000720D0A000D0A205F2020202020202020E3
:103EC000205F2020205F2020202020202020202074
:103ED00020202020202020205F20202020202020A3
:103EE0002020205F205F200D0A7C207C20202020C5
:103EF0005F5F5F7C207C5F7C207C5F205F5F5F205A
:103F00005F205F5F2020205F5F5F7C207C5F5F2001
:103F100020205F5F5F7C207C207C0D0A7C207C2041
:103F200020202F205F205C205F5F7C205F5F2F20A0
:103F30005F205C20275F5F7C202F205F5F7C202735
:103F40005F205C202F205F205C207C207C0D0A7C81
:103F5000207C5F5F7C20205F5F2F207C5F7C207C4B
:103F60007C20205F5F2F207C202020205C5F5F2052
:103F70005C207C207C207C20205F5F2F207C207CAC
:103F80000D0A7C5F5F5F5F5F5C5F5F5F7C5C5F5FB4
:103F90007C5C5F5F5C5F5F5F7C5F7C202020207CBF
:103FA0005F5F5F2F5F7C207C5F7C5C5F5F5F7C5F1F
:103FB0007C5F7C0D0A0D0A4275696C643A202020F2
:103FC000202020204A756C203131203230323320BD
:103FD00031313A32353A31320D0A56657273696FB2
:103FE0006E3A2020202020332E322E300D0A436FCF
:103FF000707972696768743A20202028632920321A
:10400000303230204C65747465720D0A0000000077
:104010000D0A70617373776F7264206572726F72CC
:104020000D0A0000566172206E6F7420466F756E27
:10403000740D0A001B5B324B0D000000434D442001
:104040000000000056415220000000004B4559205E
:1040500000000000636F6D6D616E642068656C70B8
:10406000206F662000000000506C65617365206958
:104070006E7075742070617373776F72643A0000AC
:104080004E4F4E45000000001B5B324A1B5B31481F
:104090000000000055534552000000000C4200088B
:1040A000000000206C000000402400087842000856
:1040B0006C000020940B0000502400080008000051
:1040C000E73C0008EE3C0008EF3C0008002100003F
:1040D000FC3C0008D9350008033D00080009000039
:1040E00000415B1BCB3900080B3D000800090000B4
:1040F00000425B1B692700080E3D00080019000004
:1041000000435B1B37340008133D00080019000012
:1041100000445B1BAF300008193D00080009000097
:1041200000000009DD3700081E3D000800190000EE
:104130000000000879250008223D00080019000051
:104140000000007F792500082C3D000800190000C0
:104150007E335B1B5F260008363D00080019000017
:104160000000000A792700083D3D00080019000002
:104170000000000D79270008433D000800200000E2
:10418000493D0008BD2D00084E3D000800210000FB
:104190006C3D0008D9390008723D0008002100007C
:1041A000803D00084D260008853D000800210000E4
:1041B000923D0008EB390008973D000800210000FF
:1041C000A43D00089D300008A93D00080021000022
:1041D000B63D000809260008BC3D000800010000AB
:1041E000CA3D0008253C0008D13D00080001000040
:1041F000DB3D0008F93B0008DF3D0008000100003E
:10420000EC3D000861240008F03D000800000000BB
:1042100010000000010000000024F4000000000075
:10422000B43E0008503E0008F83D00080C3E00086F
:104230001C3E00082C3E00083C3E0008A03E000842
:10424000843E0008743E00082440000854400008E2
:10425000684000081040000888400008344000080A
:104260003C40000844400008944000084C400008CE
:0842700080400008000000007E
:04000005080000ED02
:00000001FF
