:020000040800F2
:10000000801A002005010008E52700088D26000859
:10001000E12700089F0300084F5800080000000077
:10002000000000000000000000000000052D000896
:100030002D04000800000000DB2C0008072D00083C
:100040001F0100081F0100081F0100081F01000810
:100050001F0100081F0100081F0100081F01000800
:100060001F0100081F0100081F0100081F010008F0
:100070001F0100081F0100081F0100081F010008E0
:100080001F0100081F0100081F0100081F010008D0
:10009000995700081F0100081F0100081F010008F0
:1000A0001F0100081F0100081F0100081F010008B0
:1000B0001F0100081F0100081F0100081F010008A0
:1000C0001F0100081F0100081F0100081F01000890
:1000D0001F010008613100081F0100081F0100080E
:1000E0001F0100081F0100081F010008DFF810D0E1
:1000F00000F018F900480047AD580008AFF3008041
:10010000801A00200648804706480047FEE7FEE7C1
:10011000FEE7FEE7FEE7FEE7FEE7FEE7FEE7FEE7B7
:10012000932D0008ED00000840EA01039B0703D06F
:1001300009E008C9121F08C0042AFAD203E011F826
:10014000013B00F8013B521EF9D27047D2B201E0E8
:1001500000F8012B491EFBD270470022F6E710B5CC
:1001600013460A4604461946FFF7F0FF204610BD25
:10017000421C10F8011B0029FBD1801A704710B5F2
:10018000002200E0521C835C8C5CA34201D1002B56
:10019000F8D1D8B2E1B2401A10BD30B50546002002
:1001A000034600E05B1C934205D2EC5CC85C201A5D
:1001B00001D1002CF6D130BD80EA010210B502F069
:1001C0000043400022D04A001FD0010E01EB126113
:1001D000C0F35600C2F3560240F4000042F400029D
:1001E000A0FB022000047F39140400D0401C50EA18
:1001F000124001D44000491EC2B20C0604EBD010DC
:10020000401C4008802A02D003E0002010BD20F0EE
:100210000100002900DA0020184310BD30B480EA44
:10022000010202F0004530F0004221F0004013D0FE
:1002300090B1C30DD40DC2F31601C0F31600E41A39
:1002400041F4000140F400027D34914201D3641C6A
:1002500000E04900002C02DA30BC002070474FF467
:1002600000000023914201D3891A034340084FEA5A
:100270004101F7D151B1914202D14FF0004105E067
:1002800002D24FF0010101E06FF0010103EBC45015
:10029000284430BC00F00EB8C10F80EAE07008447A
:1002A000CA079623002100F00EB8962300221146BB
:1002B00000F009B80029A8BF7047401C490008BFDA
:1002C00020F00100704710B4B0FA80FC00FA0CF086
:1002D00050EA010404BF10BC704749B1CCF12004BE
:1002E00021FA04F411FA0CF118BF0121214308434B
:1002F000A3EB0C01CB1D4FEA00614FEA102042BF77
:10030000002010BC704700EBC35010440029A4BF6C
:1003100010BC7047401C490008BF20F0010010BC11
:1003200070470000064C074D06E0E06840F001030E
:1003300094E8070098471034AC42F6D3FFF7DAFE92
:10034000307300085073000870B58C1810F8015B0A
:1003500015F0070301D110F8013B2A1106D110F85E
:10036000012B03E010F8016B01F8016B5B1EF9D162
:100370002B0705D40023521E0DD401F8013BFAE7E8
:1003800010F8013BCB1A921C03E013F8015B01F853
:10039000015B521EF9D5A142D8D3002070BD00BF29
:1003A000FEE70346042B15D007DC7BB1012B0ED0F2
:1003B000022B0DD0032B12D10BE0202B0BD0212BC5
:1003C0000AD0222B09D0232B09D107E008E007E04F
:1003D00006E005E004E003E002E001E000E000BF29
:1003E00000BF0020704700207047000010B50022B9
:1003F0000449054802F0FBFF0449034802F0F0FFFE
:10040000002010BDE40A002020020020E4060020A5
:1004100070B504460D462146034802F0E1FF02484C
:1004200002F0BAFF002070BD20020020704772B6B3
:1004300000BFFEE770B50A480468001D0568001D8E
:100440000668344454B108220649204602F020F9D7
:10045000042204491031284602F01AF970BD000048
:10046000E8F7FF1F360000200146002291F8210026
:10047000022808D00420886300BF002081F82000F3
:1004800000BF012070470868006820F00E000B686C
:1004900018600868006820F001000B68186091F887
:1004A000403001209840CB6B5860012081F821003A
:1004B00000BF002081F8200000BF1046E2E70000E6
:1004C00070B50446002594F82100022803D00420CA
:1004D000A063012548E02068006820F00E00216834
:1004E00008602068006820F00100216808601F494A
:1004F0002068884201D1012026E01C49143120687F
:10050000884201D110201FE0184928312068884214
:1005100001D1801518E015493C312068884201D18D
:10052000801411E0114950312068884202D14FF403
:10053000803009E00D4964312068884202D14FF4CF
:10054000801001E04FF080700849083948600120B0
:1005500084F8210000BF002084F8200000BF606BF9
:1005600010B12046616B8847284670BD08000240E4
:1005700070B5044600F0B0F906462546681C10B177
:1005800004480078054400BF00F0A6F9801BA8428B
:10059000FAD370BD680000202DE9F8470346002219
:1005A00094466EE14FF0010808FA02F4D1F8008099
:1005B00008EA0400A0427DD1DFF8DCA2D1F8048073
:1005C000A8EB0A09D0453AD014DCB8F1030F50D09B
:1005D00009DCB8F1000F31D0B8F1010F1CD0B8F12F
:1005E000020F49D120E0B8F1110F18D0B8F1120F65
:1005F00042D11EE0B9F5881F25D006DCB9F5803F51
:1006000020D0B9F5801F37D11AE0B9F5001F18D0F6
:10061000B9F5041F30D117E0D1F80CC02DE0D1F8A6
:100620000C8008F1040C28E0D1F80C8008F1080CCB
:1006300023E0D1F80C8008F10C0C1EE000BF00BFD5
:1006400000BF00BF00BF00BFD1F80880B8F1000FA5
:1006500002D14FF0040C0BE0D1F80880B8F1010F83
:1006600003D14FF0080C1C6102E04FF0080C5C61F4
:1006700003E04FF0000C00E000BF00BFFF2801D8EE
:10068000984601E003F104084646FF2802D84FEAE5
:10069000820803E0A2F108084FEA88084746D6F826
:1006A00000804FF00F0909FA07F928EA09080CFA47
:1006B00007F900E088E048EA0908C6F80080D1F8A8
:1006C000048008F08058B8F1805F7DD100BFDFF86A
:1006D000CC81D8F8188048F00108DFF8C091C9F83B
:1006E0001880C846D8F8188008F00108CDF80080B6
:1006F00000BF00BF4FEAB9384FEA920958F82950B5
:100700004FEA82784FEA18794FF00F0808FA09F893
:1007100025EA0805DFF88881434502D14FF000083B
:1007200016E0DFF88081434502D14FF001080FE069
:10073000DFF87481434502D14FF0020808E0DFF88A
:100740006C81434502D14FF0030801E04FF00408EB
:100750004FEA82794FEA197908FA09F848EA05055B
:10076000DFF84C814FEA920948F82950D1F804800B
:1007700008F48018B8F5801F0AD1DFF83881D8F85E
:10078000008048EA0008DFF82C91C9F8008009E0F1
:10079000DFF82081D8F8008028EA0008DFF81491FB
:1007A000C9F80080D1F8048008F40018B8F5001FDB
:1007B00010D1DFF8008108F10408D8F8008048EA79
:1007C0000008DFF8F09000E05AE009F10409C9F8E8
:1007D00000800DE0DFF8DC8008F10408D8F8008024
:1007E00028EA0008DFF8CC9009F10409C9F8008074
:1007F000D1F8048008F40038B8F5003F0ED1DFF8D6
:10080000B480A8F10408D8F8008048EA0008DFF8AE
:10081000A490A9F10409C9F800800DE0DFF89480E4
:10082000A8F10408D8F8008028EA0008DFF88490CE
:10083000A9F10409C9F80080D1F8048008F48038CF
:10084000B8F5803F0ED1DFF86C80A8F10808D8F821
:10085000008048EA0008DFF85C90A9F10809C9F8AF
:1008600000800DE0DFF84C80A8F10808D8F800807F
:1008700028EA0008DFF83C90A9F10809C9F80080CF
:10088000521CD1F8008028FA02F8B8F1000F7FF46A
:1008900089AEBDE8F887000000001110001002408A
:1008A00000080140000C014000100140001401400C
:1008B000080001400804014010B5C26821EA0203A3
:1008C00002EA010443EA0443036110BD0AB1016175
:1008D00001E00B04036170470148006870470000A5
:1008E0006000002003480068034909780844014972
:1008F00008607047600000206800002010B50848BC
:10090000006840F0100006490860032000F0A8F8D5
:100910000F2000F007F800F02BF8002010BD0000B9
:100920000020024070B504460E4800784FF47A71FA
:10093000B1FBF0F00C490968B1FBF0F5284601F075
:10094000A7FB08B1012070BD102C07D20022214660
:10095000501E00F047F80548046001E00120F2E76E
:100960000020F0E7680000206C00002064000020F8
:1009700008B500BF1148806940F001000F49886147
:100980000846806900F00100009000BF00BF00BF72
:100990000846C06940F08050C8610846C06900F050
:1009A0008050009000BF00BF00BF0549486820F09C
:1009B000E06000BF486000BF08BD000000100240BA
:1009C0000000014001460846002809DB00F01F0333
:1009D00001229A4043099B0003F1E023C3F8002160
:1009E00000BF70472DE9F05F80460D461646002790
:1009F00004F030FF074639462A46334601F0070027
:100A0000C0F1070ABAF1040F02D94FF0040A01E05D
:100A1000C0F1070AD14600F1040ABAF1070F02D269
:100A20004FF0000A01E0A0F1030AD4464FF0010A9A
:100A30000AFA09FAAAF1010A0AEA020A0AFA0CFAFF
:100A40004FF0010B0BFA0CFBABF1010B0BEA030BA4
:100A50004AEA0B042146404604F004FFBDE8F09F3B
:100A600000BF00F00702064B19684FF6FF0319405C
:100A7000044B0B4343EA0221014B196000BF70474E
:100A80000CED00E00000FA0500BF00BF00BF00BF92
:100A900000BFBFF34F8F00BF00BF00BF0948006811
:100AA00000F4E06008490843001D0649086000BFE3
:100AB00000BF00BFBFF34F8F00BF00BF00BF00BF2C
:100AC00000BFFDE70CED00E00000FA0570B505463B
:100AD0000C4604F08000802808D104F0070000EBE9
:100AE000800605F1280000EBC60105E004EB840652
:100AF00005F5B47000EBC6011AB900200873CB806D
:100B000004E0012008730B81180C4881002070BD9F
:100B1000704770B504460D4605EB850304F12801C6
:100B200001EBC3014A692946D4F8EC0202F0D2FF76
:100B300070BD70B504460D4605EB850304F5B47130
:100B400001EBC3014A692946D4F8EC0203F042F8EC
:100B500070BD70B504460E4606F0800080280AD1AC
:100B600006F0070000EB800104F1280000EBC1054E
:100B70000120687009E006F0070000EB800104F531
:100B8000B47000EBC1050020687006F00700287003
:100B900000BF94F8A802012801D1022070BD0120F5
:100BA00084F8A80200BF2946206803F0CDFE00BFEC
:100BB000002084F8A80200BF00BFEFE770B504462C
:100BC0000E4606F00F006168884201D9012070BD11
:100BD00006F0800080280AD106F0070000EB8001B3
:100BE00004F1280000EBC1050120687009E006F05F
:100BF000070000EB800104F5B47000EBC105002094
:100C000068700020A87006F00700287000BF94F8F4
:100C1000A802012801D10220D9E7012084F8A80206
:100C200000BF2946206803F0EBFF00BF002084F8D6
:100C3000A80200BF00BFCAE72DE9F04105460C46F7
:100C4000174607F48040002850D02868B0F85010AC
:100C5000207801EBC000801C296801F5806131F823
:100C60001000C0F30906A069B04203D3A069801B3D
:100C7000A06101E00020A061A069A8B900BF2278AE
:100C80005200296831F812104BF68F7201EA020007
:100C900080F4005040F4004141F0800123785B0073
:100CA0002A6822F8131000BF07F04000A8B100BF67
:100CB00000BF22785200296831F8121048F68F726E
:100CC00001EA020040F4004141F0C00123785B00DA
:100CD0002A6822F8131000BF00BF002E55D02289C9
:100CE00061693346286804F063FD4EE02868B0F877
:100CF0005010207801EBC000801D296801F580614B
:100D000031F81000C0F30906A069B04203D3A0690E
:100D1000801BA06101E00020A061A069A8B900BF0C
:100D200022785200296831F812104BF68F7201EACE
:100D3000020080F4005040F4004141F0800123782B
:100D40005B002A6822F8131000BF07F04000A8B922
:100D500000BF00BF22785200296831F8121048F60F
:100D60008F7201EA020040F4004141F0C001237893
:100D70005B002A6822F8131000BF00BF2EB1628901
:100D800061693346286804F013FD3046BDE8F08100
:100D90002DE9F04705460C46904608F04000002833
:100DA0007ED02868B0F85010207801EBC000801C7D
:100DB000296801F5806131F81000C0F30907A069C6
:100DC000B84203D9A069C01BA06101E00020A06166
:100DD000A06900287ED100BF6078C0B900BF296833
:100DE0002A68B2F8502011442278022303EBC20291
:100DF00001F5806303EB420000BF0288C2F30902E1
:100E00000280028842F40042028000BF13E0607852
:100E1000012810D100BF28682A68B2F85020104479
:100E20002278022303EBC20200F5806303EB420148
:100E300000220A8000BF00BF00BF29686078F8B9AF
:100E400000BF2B68D5F800C0BCF850C0634494F8CC
:100E500000C04FF0060909EBCC0C03F5806909EBE3
:100E60004C0000BFB0F800C0CCF3090CA0F800C0E3
:100E7000B0F800C04CF4004CA0F800C000BF12E075
:100E8000607801280FD12868B0F85000014420781C
:100E9000062303EBC00001F5806303EB400200E092
:100EA000B7E00020108000BF21782846FFF731FE10
:100EB00008F48040002816D000BF00BF22785200FE
:100EC000296831F8121048F68F7201EA020040F4E6
:100ED000004100E008E041F4814123785B002A688A
:100EE00022F8131000BFD7E108F48040A8B100BF7A
:100EF00000BF22785200296831F8121048F68F722C
:100F000001EA020040F4004141F4814123785B0092
:100F10002A6822F8131000BF00BF94F824000128AB
:100F2000E1D1606938446061E0693844E061216979
:100F3000206A884204D32669206A801B20620BE065
:100F4000206A20B93E46002084F8240004E00020F6
:100F500084F82400266A206200BF6078E8BB00BFE6
:100F60002A682968B1F850100A442178022303EB5B
:100F7000C10102F5806303EB4101084600BF03880D
:100F8000C3F3090303803E2E10D900BF710906F098
:100F90001F0303B9491E03884FF4004C4CEA812C0F
:100FA0001FFA8CFC43EA0C03038014E026B9038883
:100FB00043F4004303800EE000BF710806F0010314
:100FC00003B1491C03884FF6FF7C0CEA812C43EAED
:100FD0000C03038000BF00BF13E0FFE76078012827
:100FE0000FD100BF28682A68B2F850201044227838
:100FF000022303EBC20200F5806303EB42010E8083
:1010000000BF00BFB3B222896169286804F0FFFB0A
:1010100042E12868B0F85010207801EBC000801D34
:10102000296801F5806131F81000C0F30907A06953
:10103000B84203D3A069C01BA06101E00020A061F9
:10104000A06900287ED100BF6078C0B900BF2968C0
:101050002A68B2F8502011442278022303EBC2021E
:1010600001F5806303EB420000BF0288C2F309026E
:101070000280028842F40042028000BF13E06078E0
:10108000012810D100BF28682A68B2F85020104407
:101090002278022303EBC20200F5806303EB4201D6
:1010A00000220A8000BF00BF00BF29686078F8B93D
:1010B00000BF2B68D5F800C0BCF850C0634494F85A
:1010C00000C04FF0060909EBCC0C03F5806909EB71
:1010D0004C0000BFB0F800C0CCF3090CA0F800C071
:1010E000B0F800C04CF4004CA0F800C000BF10E005
:1010F000607801280DD12868B0F8500001442078AC
:10110000062303EBC00001F5806303EB40020020DF
:10111000108000BF21782846FFF7FBFC08F48040D0
:10112000002816D100BF00BF22785200296831F88C
:10113000121048F68F7201EA020040F4004141F4B7
:10114000814100E006E023785B002A6822F8131052
:1011500000BFA1E008F48040A8B900BF00BF22781A
:101160005200296831F8121048F68F7201EA020025
:1011700040F4004141F4814123785B002A6822F861
:10118000131000BF00BF94F8240001287ED16069CD
:1011900038446061E0693844E0612169206A88422E
:1011A00004D32669206A801B20620BE0206A20B9E4
:1011B0003E46002084F8240004E0266A00202062D5
:1011C00084F8240000BF2A68607870BB00BFD5F89F
:1011D00000C02968B1F850108C4421784FF00609FE
:1011E00009EBC1010CF5806909EB4101084600BF1C
:1011F000B0F80090C9F30909A0F800903E2E15D967
:1012000000BF710906F01F09B9F1000F00D1491E96
:10121000B0F800904FF4004A4AEA812A1FFA8AFA8D
:1012200049EA0A09A0F800901BE01CE036B9B0F8C2
:10123000009049F40049A0F8009012E000BF710846
:1012400006F00109B9F1000F00D0491CB0F8009078
:101250004FF6FF7A0AEA812A49EA0A09A0F80090C3
:1012600000BF00BF0FE0607801280CD12868B0F8FB
:10127000500002442078062101EBC00002F5806195
:1012800001EB40031E8000BFB3B200E004E06289BE
:101290006169286804F0BBFA00BF2278520029680F
:1012A00031F8121048F6BF7201EA020080F0100017
:1012B00080F0200040F4004141F0800223785B0080
:1012C000296821F8132000BF0020BDE8F0870246FE
:1012D00001F0070000EB800302F5B47000EBC300DF
:1012E000C06970472DE9F04705460E4690461F46F7
:1012F0004FF0000906F0800080280AD106F00700B0
:1013000000EB800105F1280000EBC10401206070B2
:1013100009E006F0070000EB800105F5B47000EB72
:10132000C1040020607006F007002070C4F810802F
:10133000E770022F01D10020207100BF95F8A802AC
:10134000012802D10220BDE8F087012085F8A8021B
:1013500000BF2146286803F09BF800BF002085F8F5
:10136000A80200BF4846EEE72DE9F04105460E46CB
:101370001746984606F0070000EB800105F5B470AB
:1013800000EBC1046761C4F818800020E061607060
:1013900006F0070020702146286803F0CCFC0020EE
:1013A000BDE8F08170B504460D4605F007006168A0
:1013B000884201D9012070BD05F0800080280AD143
:1013C00005F0070000EB800104F1280000EBC106E6
:1013D0000120707007E005EB850104F5B47000EBA7
:1013E000C106002070700120B07005F00700307059
:1013F00000BF94F8A802012801D10220DBE70120F8
:1014000084F8A80200BF3146206803F066FC05F0AE
:10141000070020B904F52C71206803F0EEFB00BF33
:10142000002084F8A80200BF00BFC4E72DE9F04106
:1014300005460E4690461F4606F0070000EB800169
:1014400005F1280000EBC104C4F81480A761012055
:1014500084F8240027620020E0610120607006F01B
:10146000070020702146286803F065FC0020BDE8D5
:10147000F0817FB50446206804F096F9064606F42C
:101480000040B0F5004F03D1204601F0ADF97FBD1B
:1014900006F48060B0F5806F10D12068B0F8440089
:1014A0004FF6FF3108402168A1F84400204600F0C3
:1014B0008DF90021204600F0A9F9E8E706F4804004
:1014C000B0F5804F09D12068B0F844004BF6FF71A9
:1014D00008402168A1F84400D9E706F40050B0F5AF
:1014E000005F09D12068B0F844004DF6FF71084054
:1014F0002168A1F84400CAE706F48050B0F5805F87
:101500001ED12068B0F840004FF6FB7108402168FA
:10151000A1F840002068B0F840004FF6F77108408D
:101520002168A1F84000204600F062F92068B0F878
:1015300044004EF6FF7108402168A1F84400A6E778
:1015400006F40060B0F5006F56D1002507E0690091
:10155000206830F811002DF81500681CC5B2082D60
:10156000F5D32068B0F8400040F001002168A1F8F0
:1015700040002068B0F840004FF6FE710840216836
:10158000A1F8400000BF2068B0F8440000F480607B
:101590000028F8D02068B0F844004FF6FF3108402A
:1015A0002168A1F84400002507E03DF815006A0015
:1015B000216821F81200681CC5B2082DF5D32068F7
:1015C000B0F8400040F008002168A1F84000206811
:1015D000B0F844004FF2FF7108402168A1F84400C0
:1015E0002068B0F8400040F004002168A1F84000F5
:1015F000204600F04DF94AE706F40070B0F5007F90
:101600000CD12068B0F844004FF6FF510840216823
:10161000A1F84400204600F0F2F838E706F48070A4
:10162000B0F5807F09D12068B0F844004FF6FF6123
:1016300008402168A1F8440029E700BF27E730B53A
:1016400085B0044614B9012005B030BD94F8A90254
:1016500028B9002084F8A802204600F095F803205D
:1016600084F8A902206803F0BEFA142204F11001E4
:101670006846FEF759FD94E80F0003F061F920B1C8
:10168000022084F8A9020120DEE70021206804F08E
:10169000B4F800252AE0012105EB850204F12800B9
:1016A00000EBC200417005EB850104F1280000F851
:1016B0003150002105EB850200EBC200C17005EB43
:1016C000850204F1280000EBC200016105EB8502F0
:1016D00004F1280000EBC200416105EB850204F132
:1016E000280000EBC2008161681CC5B26068A84296
:1016F000D1D800252AE0002105EB850204F5B4705D
:1017000000EBC200417005EB850104F5B47000F8F0
:101710003150002105EB850200EBC200C17005EBE2
:10172000850204F5B47000EBC200016105EB85028F
:1017300004F5B47000EBC200416105EB850204F5CD
:10174000B47000EBC2008161681CC5B26068A84239
:10175000D1D8142204F110016846FEF7E5FC94E8A4
:101760000F0003F035FA20B1022084F8A90201200D
:101770006AE7002084F82400012084F8A902206888
:1017800003F023FA00205FE738B504460D492068CE
:10179000884215D100BF0C48C06940F400000A49D6
:1017A000C8610846C06900F40000009000BF00BF97
:1017B000002211461420FFF715F91420FFF702F953
:1017C00038BD0000005C00400010024070B50446C7
:1017D0000125A068022801D0FEF729FE2946D4F889
:1017E000EC0202F02BFBD4F8EC0202F0DDFA70BD43
:1017F00010B50446D4F8EC0202F004FB10BD10B59D
:101800000446D4F8EC0202F008FB10BD70B50446A3
:101810000D4600BF94F8A802012801D1022070BD36
:10182000012084F8A80200BF84F8245029462068CB
:1018300003F0E6FF00BF002084F8A80200BF00BF4D
:10184000EDE710B5044604F52C71D4F8EC0202F073
:101850000CFB10BD10B5044600BF94F8A802012887
:1018600001D1022010BD012084F8A80200BF206829
:1018700003F089FF01212046FFF74AF9206803F0B1
:10188000A1F900BF002084F8A80200BF00BFE9E76B
:1018900010B50446D4F8EC0202F040FBA06928B170
:1018A0000348006840F006000149086010BD0000D0
:1018B00010ED00E0F8B5044600260025207800F081
:1018C000010000286BD000274348C06900F0805019
:1018D00070B900BF4048C06940F080503E49C861BF
:1018E0000846C06900F08050009000BF00BF01278B
:1018F0003A48006800F48070B0B93848006840F495
:10190000807036490860FEF7E7FF064606E0FEF7FE
:10191000E3FF801B642801D90320F8BD2F4800682D
:1019200000F480700028F2D02B48006A00F4407563
:101930002DB3A08800F44070A84220D02648006A49
:1019400020F44075012026490860002008602248E4
:10195000056205F0010090B1FEF7BEFF064608E003
:10196000FEF7BAFF801B41F28831884201D903207B
:10197000D3E71948006A00F002000028F0D01648AA
:10198000006A20F440706168084313490862012F1F
:1019900004D10846C06920F08050C86100BF20789B
:1019A00000F00200022807D10B48406820F44040B4
:1019B000A168084308494860207800F0100010280A
:1019C00007D10548406820F48000E16808430249D7
:1019D00048600020A1E700000010024000700040B5
:1019E0004004424270B504460D460CB9012070BD5A
:1019F0005A48006800F00700A8420ED25748006815
:101A000020F007002843554908600846006800F0A8
:101A10000700A84201D00120E9E7207800F0020089
:101A200002281DD1207800F00400042805D14C487C
:101A3000406840F4E0604A494860207800F00800BF
:101A4000082805D14648406840F460504449486041
:101A50004348406820F0F000A168084340494860CE
:101A6000207800F0010078B36068012806D13C4876
:101A7000006800F4003090B90120B8E760680228DF
:101A800006D13748006800F0007040B90120AEE789
:101A90003348006800F0020008B90120A7E7304889
:101AA000406820F00300616808432D494860FEF754
:101AB00013FF064609E0FEF70FFF801B41F2883155
:101AC000884202D9032092E707E02548406800F0E9
:101AD0000C006168B0EB810FEDD12048006800F088
:101AE0000700A8420ED91D48006820F007002843CF
:101AF0001A4908600846006800F00700A84201D0B3
:101B0000012074E7207800F00400042807D114486D
:101B1000406820F4E060E16808431149486020789B
:101B200000F00800082808D10D48406820F46050F3
:101B3000216940EAC1000A49486000F03FF80849BD
:101B40004968C1F30311074A515CC840064908605F
:101B500006480068FEF7E6FE002048E70020024045
:101B6000001002406A6F00086C0000206400002032
:101B700001480068704700006C00002000B5FFF7C6
:101B8000F7FF04494968C1F30221034A515CC84088
:101B900000BD0000001002407A6F000800B5FFF79A
:101BA000E7FF04494968C1F3C221034A515CC840B8
:101BB00000BD0000001002407A6F000870B50021DF
:101BC0000022002400230020134D696801F00C0559
:101BD000F5B1042D02D0082D19D101E00F4819E00C
:101BE0000F4DC1F38346AB5D01F4803555B10A4D0D
:101BF0006D68C5F340450B4E725D084D5D43B5FB06
:101C0000F2F402E0084D03FB05F4204602E000BFB9
:101C1000024800BF00BF70BD0010024000127A00F1
:101C2000586F0008686F000800093D00F8B50446C9
:101C30000CB90120F8BD207800F00100002878D010
:101C4000F848406800F00C0004280CD0F5484068C3
:101C500000F00C00082811D1F248406800F48030F0
:101C6000B0F5803F0AD1EF48006800F4003000284A
:101C70005FD0606800285CD10120DBE700BF6068AE
:101C8000B0F5803F06D1E748006840F48030E54970
:101C9000086028E0606858B9E248006820F48030A5
:101CA000E04908600846006820F4802008601AE0D7
:101CB0006068B0F5A02F0BD1DA48006840F48020AE
:101CC000D84908600846006840F4803008600AE09F
:101CD000D448006820F48030D24908600846006883
:101CE00020F48020086000BF606888B1FEF7F4FD32
:101CF000054606E0FEF7F0FD401B642801D90320ED
:101D000098E7C848006800F400300028F2D010E0DE
:101D1000FEF7E2FD054606E0FEF7DEFD401B642807
:101D200001D9032086E7BF48006800F4003000288E
:101D3000F2D1207800F00200022857D1B94840685B
:101D400000F00C0050B1B748406800F00C000828C3
:101D500018D1B448406800F4803098B9B1480068A0
:101D600000F0020020B12069012801D0012061E7C4
:101D7000AC48006820F0F800616940EAC100A94958
:101D8000086033E02069E8B10120A7490860FEF748
:101D9000A3FD054606E0FEF79FFD401B022801D982
:101DA000032047E79F48006800F002000028F2D0B7
:101DB0009C48006820F0F800616940EAC100994938
:101DC000086013E0002098490860FEF785FD05468D
:101DD00006E0FEF781FD401B022801D9032029E718
:101DE0009048006800F002000028F2D1207800F04E
:101DF000080008282DD1A069B8B101208B490860DE
:101E0000FEF76AFD054606E0FEF766FD401B022868
:101E100001D903200EE78348406A00F00200002841
:101E2000F2D0012000F05AFF13E000207F49086043
:101E3000FEF752FD054606E0FEF74EFD401B022868
:101E400001D90320F6E67748406A00F00200002836
:101E5000F2D1207800F00400042873D100277148E3
:101E6000C06900F0805070B900BF6E48C06940F092
:101E700080506C49C8610846C06900F080500090ED
:101E800000BF00BF01276A48006800F48070B0B945
:101E90006748006840F4807065490860FEF71CFDE3
:101EA000054606E0FEF718FD401B642801D9032013
:101EB000C0E65F48006800F480700028F2D000BFE0
:101EC000E068012806D15748006A40F001005549F2
:101ED000086227E0E06858B95248006A20F0010023
:101EE000504908620846006A20F00400086219E0C0
:101EF000E06805280BD14B48006A40F004004949CE
:101F000008620846006A40F0010008620AE045489D
:101F1000006A20F00100434908620846006A20F088
:101F20000400086200BFE068A0B1FEF7D5FC0546DA
:101F300009E0FEF7D1FC401B41F28831884202D90A
:101F4000032077E622E03748006A00F0020000280C
:101F5000EFD012E0FEF7C0FC054608E0FEF7BCFC3F
:101F6000401B41F28831884201D9032062E62D48A6
:101F7000006A00F002000028F0D1012F05D12948A5
:101F8000C06920F080502749C86100BFE069C8B32C
:101F90002448406800F00C00082860D0E06902285E
:101FA00048D1002020490866FEF796FC054606E069
:101FB000FEF792FC401B022801D903203AE619489B
:101FC000006800F000700028F2D1206AB0F5803F70
:101FD00007D11448406820F40030A1680843114933
:101FE0004860D4E9080108430E49496821F4741196
:101FF00008430C49486001200B490866FEF76CFC59
:10200000054607E03DE0FEF767FC401B022801D9CA
:1020100003200FE60348006800F000700028F2D0AB
:102020002FE00000001002400000424280044242C3
:1020300000700040002014490866FEF74DFC05467C
:1020400006E0FEF749FC401B022801D90320F1E518
:102050000E48006800F000700028F2D111E0E0693D
:10206000012800D1E6E50948466806F48031206A77
:10207000814204D106F47011606A814201D00120CE
:10208000D8E50020D6E500000000424200100240E2
:1020900070B504462546681EB0F1807F01D301204B
:1020A0000FE0681E4FF0E02148610F214FF0FF3034
:1020B00003F0D8FB00204FF0E02188610720086181
:1020C000002070BD704770472DE9F84F0446206826
:1020D00005682068C668206847694FF00009CA464D
:1020E00005F00F09B9F1000F0AD105F0200038B151
:1020F00006F0200020B1204600F09CFEBDE8F88FDD
:10210000B9F1000F7BD007F0010018B906F4907008
:10211000002874D005F0010030B106F4807018B1C9
:10212000606C40F00100606405F0040030B107F01D
:10213000010018B1606C40F00200606405F002001C
:1021400030B107F0010018B1606C40F00400606429
:1021500005F0080048B106F0200010B907F00100B2
:1021600018B1606C40F008006064606C002845D0D5
:1021700005F0200028B106F0200010B1204600F044
:1021800059FE20684069C0F3801A606C00F00800B6
:1021900010B9BAF1000F2CD0204600F005FE2068DF
:1021A000406900F0400000B300BF00BF2168143157
:1021B00051E8001F21F040002168143141E800027D
:1021C000002AF3D100BFE06B50B17748E16B486360
:1021D000E06BFEF775F988B1E06B416B88470DE065
:1021E0002046FFF770FF09E009E02046FFF76BFF8C
:1021F00004E02046FFF767FF002060647EE7206B65
:10220000012877D105F01000002873D006F01000E7
:102210000028FAD000BF00200090206800680090DD
:1022200020684068009000BF00BF2068406900F04F
:10223000400000285FD0E06B006840681FFA80F81B
:10224000B8F1000F55D0A08D404552DDA4F82E8086
:10225000E06B8069202843D000BF00BF21680C31AB
:1022600051E8001F21F4807021680C3141E8000220
:10227000002AF3D100BF00BF00BF2168143151E82C
:10228000001F21F001002168143141E80002002AFA
:10229000F3D100BF00BF00BF2168143151E8001F17
:1022A00021F040002168143141E80002002AF3D1F6
:1022B00000BF202084F842000020206300BF00BF40
:1022C00021680C3151E8001F21F0100021680C3109
:1022D00041E80002002AF3D100BFE06BFEF7C4F82A
:1022E00002206063A08DE28D801A81B22046FFF744
:1022F000E9FE03E742E0A08DE18D401A1FFA80F865
:10230000E08DD0B3B8F1000F37D000BF00BF216817
:102310000C3151E8001F21F4907021680C3141E824
:102320000002002AF3D100BF00BF00BF21681431B2
:1023300051E8001F21F001002168143141E800023A
:10234000002AF3D100BF202084F84200002020633F
:1023500000BF00BF21680C3151E8001F21F01000C0
:1023600021680C3141E80002002AF3D100BF0220AD
:10237000606341462046FFF7A5FEBFE605F08000FA
:1023800030B106F0800018B1204600F06FFEB5E6CF
:1023900005F0400030B106F0400018B1204600F0D2
:1023A00039FDABE600BFA9E6952D000810B504463F
:1023B0000CB9012010BDA06900B100E000BF94F885
:1023C000410028B9002084F84000204600F02AF897
:1023D000242084F841002068C06820F4005021685F
:1023E000C860204600F0A4FD2068006920F49040F9
:1023F000216808612068406920F02A00216848614E
:102400002068C06840F400502168C8600020606403
:10241000202084F8410084F842000020606300BF5F
:10242000C8E7000010B586B0044600200290039073
:10243000049005901E492068884236D100BF1D488F
:10244000806940F480401B4988610846806900F437
:102450008040019000BF00BF00BF0846806940F087
:10246000040088610846806900F00400019000BF04
:1024700000BF48150290022003900320059002A996
:102480000D48FEF789F84FF4806002900020039019
:10249000049002A90848FEF77FF800221146252083
:1024A000FEF7A0FA2520FEF78DFA06B010BD000059
:1024B0000038014000100240000801402DE9F84FAB
:1024C00004460E46174699464FF0000A94F842001B
:1024D00020284FD106B117B90120BDE8F88F0020A0
:1024E0006064222084F8420000202063FEF7F4F9A3
:1024F0008246A785E785A068B0F5805F04D1206992
:1025000010B90025B04602E035464FF0000829E03A
:102510005346002220212046CDF8009000F0D6FD41
:1025200008B10320D9E745B920684068C0F3080026
:10253000A8F8000008F1020811E0A068B0F5805F7B
:1025400003D0A06828B9206918B9206840682870AD
:1025500004E02068406800F07F0028706D1CE08D6A
:10256000401EE085E08D0028D2D1202084F8420072
:102570000020B2E70220B0E770B504460D461646CB
:1025800094F8420020280BD105B10EB9012070BD8E
:102590000020206332462946204600F047FDF6E73A
:1025A0000220F4E710B5044607492068884209D1A3
:1025B00006480178064803F013FD01220349054847
:1025C000FFF7DAFF10BD0000003801408301002052
:1025D000F4130020D80100202DE9F84F04460E46E0
:1025E000174699464FF0000A94F8410020284AD136
:1025F00006B117B90120BDE8F88F002060642120E2
:1026000084F84100FEF768F98246A784E784A06851
:10261000B0F5805F04D1206910B90025B04602E012
:1026200035464FF000081BE053460022802120462B
:10263000CDF8009000F04AFD08B10320DBE745B972
:10264000B8F80000C0F308002168486008F10208EB
:1026500003E02878216848606D1CE08C401EE0840F
:10266000E08C0028E0D15346002240212046CDF8DE
:10267000009000F02BFD08B10320BCE7202084F877
:1026800041000020B7E70220B5E7704700BFFEE732
:1026900030B50B46002100BF16E00A24B4EB107FD2
:1026A00005D9302404EB107403F8114005E04124EF
:1026B00004EB10740A3C03F81140000100254C00A3
:1026C000641C1D554C1CE1B29142E6DB30BD00009C
:1026D00000B585B00020019002900390049000BFE7
:1026E0001C48806940F020001A49886108468069CA
:1026F00000F02000009000BF00BF00BF08468069C6
:1027000040F0040088610846806900F004000090F1
:1027100000BF00BF00BF0846806940F00800886124
:102720000846806900F00800009000BF00BF012249
:1027300006210948FEF7CAF8062001900120029000
:10274000002003900220049001A90348FDF724FF14
:1027500005B000BD001002400008014010B50B4854
:102760000B4908604FF4E13048600021084881605F
:10277000C16001610C21416100218161C161FFF7EC
:1027800015FE08B1FDF753FE10BD000000380140F2
:10279000D801002010B500220D490E4801F05BF968
:1027A00008B1FDF744FE0C490A4801F0EDFB08B101
:1027B000FDF73DFE0949074800F00BFE08B1FDF7A3
:1027C00036FE044801F0AAFC08B1FDF730FE10BD4A
:1027D0000000002020020020800000205000002087
:1027E00000BFFEE700BFFEE72DE9F05F05466AE2A5
:1027F0002868B0F844A00AF00F07002F7DD10AF036
:102800001000B0BB00BF2968098848F60F7201EAC2
:10281000020040F400412A68118000BF05F128043D
:102820002868B0F85010207801EBC000801C29689F
:1028300001F5806131F81000C0F30900E061E16941
:1028400060690844606100212846FEF762F995F846
:1028500024000028CBD0A0690028C8D195F8240016
:1028600040F080002968A1F84C00002085F8240081
:1028700029E2FFE705F5B4742868068806F40060CD
:1028800030B32868B0F85010207801EBC000801DEC
:10289000296801F5806131F81000C0F30900E0619A
:1028A000A18B8BB2E28805F52C71286802F080FFBD
:1028B00000BF2968098840F68F7201EA020040F0E3
:1028C00080012A68118000BF2846FEF7BAFFFAE1AE
:1028D00006F4004000288AD000BF2968098840F625
:1028E0008F7201EA020040F080012A68118000BF67
:1028F0002868B0F85010207800E07AE001EBC000C2
:10290000801D296801F5806131F81000C0F30900CD
:10291000E061E06990B1606980B1B4F81CC01FFA51
:102920008CF3E2886169286802F042FFE16960691E
:102930000844606100212846FEF7FBF828680688F5
:1029400006F40060002893D106F44050B0F5405FD3
:102950008ED000BF2A682968B1F850100A4402F2EC
:102960000C41084600BF0388C3F3090303802369B1
:102970003E2B12D900BF23695909237C03F01F03A2
:1029800003B9491E03884FF4004C4CEA812C1FFA0E
:102990008CFC43EA0C03038017E0236923B9038806
:1029A00043F40043038010E000BF23695908237CEF
:1029B00003F0010303B1491C03884FF6FF7C0CEAC6
:1029C000812C43EA0C03038000BF00BF00BF00BF9F
:1029D000296809884BF68F7201EA020080F4805062
:1029E00080F4005040F4004141F080012A681180D9
:1029F00069E17900286830F8116006F40040002889
:102A00006FD000BF7A00296831F8121040F68F723B
:102A100001EA020040F080017B002A6822F81310CE
:102A200000BF07EB870105F5B47000EBC104207B04
:102A3000B8B92868B0F85010207801EBC000801DAC
:102A4000296801F5806131F81000C0F30908B8F178
:102A5000000F5ED0E28861694346286802F0A8FE54
:102A600057E0E078022806D1324621462846FEF794
:102A7000E3F880464DE000BF00BF2278520029688D
:102A800031F8121048F68F7201EA020040F400415A
:102A900041F0C00123785B002A6822F8131000BFC0
:102AA00000BF21784900286830F8110000F4804008
:102AB000C0B12868B0F85010207801EBC000801C2D
:102AC000296801F5806131F81000C0F30908B8F1F8
:102AD000000F1ED0228961694346286802F068FE13
:102AE00017E02AE02868B0F85010207801EBC00009
:102AF000801D296801F5806131F81000C0F30908D4
:102B0000B8F1000F05D0628961694346286802F078
:102B10004FFEE0694044E061606940446061A06943
:102B200010B12069404504D921782846FEF701F804
:102B300003E02146286802F0FEF806F08000002835
:102B400076D007EB870105F1280000EBC10400BF38
:102B50007A00296831F8121048F60F7201EA020073
:102B600040F400417B002A6822F8131000BFE0788F
:102B7000012876D10020A061207B00286BD006F0D0
:102B8000400080B300BF6078C0B900BF29682A68E0
:102B9000B2F8502011442278022303EBC20201F55F
:102BA000806303EB420000BF0288C2F30902028087
:102BB000028842F40042028000BF13E060780128DE
:102BC00010D100BF28682A68B2F85020104422783B
:102BD000022303EBC20200F5806303EB42010022F3
:102BE0000A8000BF37E0FFE700BF2968607800BBBC
:102BF00000BF2B68D5F800C0BCF850C0634494F8FF
:102C000000C04FF0060B0BEBCC0C03F5806B0BEB0D
:102C10004C0000BFB0F800C0CCF3090CA0F800C015
:102C2000B0F800C04CF4004CA0F800C000BF11E0A8
:102C300049E0607801280DD12868B0F850000144BF
:102C40002078062303EBC00001F5806303EB40020C
:102C50000020108000BF21782846FDF75AFF32E09F
:102C6000FFE706F4807048BB2868B0F85010207861
:102C700001EBC000801C296801F5806131F810006B
:102C8000C0F30909A069484504D9A069A0EB09006F
:102C9000A06101E00020A061A06920B92178284648
:102CA000FDF737FF0FE0606948446061E069484420
:102CB000E0612146286802F03EF804E032462146F1
:102CC0002846FEF765F82868B0F8440000F4004094
:102CD00000287FF48DADBDE8F09F704708B5084926
:102CE0000968C9084FF47A72B1FBF2F141430091CF
:102CF00000BF00BF00994A1E00920029F9D108BD0B
:102D00006C000020704710B5FDF7ECFD10BD00B55C
:102D100093B0282109A8FDF720FA142104A8FDF793
:102D20001CFA00200090019002900390012009906D
:102D300000040A9000200B9001200D9002201090BA
:102D4000C10311914FF4E011129109A8FEF76EFF33
:102D500008B1FDF76CFB0F200490022005900020C5
:102D600006904FF48060079000200890022104A88C
:102D7000FEF738FE08B1FDF75AFB10200090002046
:102D800003906846FEF796FD08B1FDF750FB13B0BF
:102D900000BD704770B505466C6A0020E085E08490
:102DA0002046FFF790F970BD00BF00BF02680C32EB
:102DB00052E8002F22F4907102680C3242E80013AE
:102DC000002BF3D100BF00BF00BF0268143252E8ED
:102DD000002F22F001010268143242E80013002B98
:102DE000F3D100BF016B01290ED100BF00BF026803
:102DF0000C3252E8002F22F0100102680C3242E837
:102E00000013002BF3D100BF202180F842100021D5
:102E10000163704710B504462068C06820F0400088
:102E20002168C860202084F841002046FFF72DFC6F
:102E3000002010BDF8B5044694F84200222875D150
:102E4000A068B0F5805F0CD1206950B90025A66A52
:102E500020684068C0F308003080A06A801CA0622F
:102E600015E0A56A0026A068B0F5805F03D0A068D1
:102E700028B9206918B920684068287004E02068E3
:102E8000406800F07F002870A06A401CA062E08DBE
:102E9000401E80B2E085002846D12068C06820F03E
:102EA00020002168C8602068C06820F48070216814
:102EB000C8602068406920F0010021684861202036
:102EC00084F8420000206063206B012826D1002096
:102ED000206300BF00BF21680C3151E8001F21F0C2
:102EE000100021680C3141E80002002AF3D100BF34
:102EF0002068006800F0100010280AD100BF0020F0
:102F0000009020680068009020684068009000BF32
:102F100000BFA18D2046FFF7D5F802E02046FFF75D
:102F200041FB0020F8BD01E00020FBE70220F9E7AB
:102F300070B504462168096921F44051E2681143E3
:102F4000226811612269A1681143626941EA0205A0
:102F50002168C96841F20C62914329432268D1601B
:102F60002168496921F44071A269114322685161C5
:102F70002D4A2168914202D1FEF710FE01E0FEF7D2
:102F8000FDFD00EBC00101EB001162689200B1FB96
:102F9000F2F100EBC00202EB001263689B00B2FB8F
:102FA000F3F26423B2FBF3F202EBC20303EB02126F
:102FB000A1EB8201322202EB01116422B1FBF2F19A
:102FC00001F0F00100EBC00202EB001263689B000D
:102FD000B2FBF3F26423B2FBF3F201EB021200EB5B
:102FE000C00101EB001163689B00B1FBF3F100EB42
:102FF000C00303EB00136668B600B3FBF6F3642668
:10300000B3FBF6F303EBC30606EB0313A1EB83015B
:10301000322303EB01116423B1FBF3F101F00F0143
:1030200011442268916070BD0038014010B503461C
:1030300099629A85DA8500205864222083F842003C
:10304000186928B11868C06840F480701C68E06096
:103050001868406940F001001C6860611868C06829
:1030600040F020001C68E060002010BD014691F88F
:103070004100212828D18868B0F5805F0BD108690C
:1030800048B90A6A1088C0F308000B685860086ADB
:10309000801C086205E00B6A581C086218780B68EF
:1030A0005860C88C401E80B2C88458B90868C0688F
:1030B00020F080000B68D8600868C06840F04000CD
:1030C0000B68D860002070470220FCE72DE9F04132
:1030D00004460D4617469846069E34E0701C88B399
:1030E0002EB1FDF7F9FBA0EB0800B0422BD900BFD1
:1030F00000BF21680C3151E8001F21F4D070216815
:103100000C3141E80002002AF3D100BF00BF00BF2C
:103110002168143151E8001F21F0010021681431A9
:1031200041E80002002AF3D100BF202084F84100CA
:1031300084F8420000BF002084F8400000BF032054
:10314000BDE8F081FFE7206800682840A84201D16F
:10315000012000E00020B842C0D00020F0E70000CD
:1031600010B50248FEF7B0FF10BD0000D8010020E6
:103170002DE9F04104460D46D4F8B862D4F8C07287
:10318000D4F8B80278B305EB850104F1140000EB24
:103190008100806808B305EB850104F1140000EBA1
:1031A000810005EB8502816807F1280000EBC20071
:1031B0000069B1FBF0F200FB121070B9002105EBC1
:1031C000850204F1140000EB8200816000231A469E
:1031D0002946204600F0ACFE02E00020C6F81402AA
:1031E0000020BDE8F081FFE70220FAE770B5044651
:1031F0000E46D4F8B8523146204600F03EFDC5F8E0
:103200000C02D4F8B80248B1D5F80402D4F8BC12C4
:10321000CA6805F503719047002070BD0220FCE7E5
:1032200070B504460E4600258121204600F03FFC83
:103230000021E1620121204600F039FC0021C4F8A0
:103240006C118221204600F032FC00212164D4F868
:10325000B80250B1D4F8BC1248688047D4F8B8021C
:1032600001F00FF90020C4F8B802284670BD70B50F
:103270000546D5F8B842D5F8BC0278B194F80002FA
:10328000FF280BD094F8012294F80002D5F8BC1264
:103290008B6821469847FF2084F80002002070BD0B
:1032A00001460A2008800148704700007400002091
:1032B000014643200880014870470000FC000020C0
:1032C000014643200880014870470000B8000020F4
:1032D000014643200880014870470000400100205B
:1032E0002DE9F04104460F460026207C88B94FF4B2
:1032F000007302228121204600F026FD0121E162B7
:103300004B020222204600F01FFD0121C4F86C117F
:103310000FE0402302228121204600F015FD01210B
:10332000E16240230222204600F00EFD0121C4F894
:103330006C11082303228221204600F005FD0121A3
:1033400021644FF4077001F09DF8C4F8B802D4F876
:10335000B80208B901261CE0D4F8B852D4F8BC125F
:10336000086880470020C5F81402C5F81802207CC0
:1033700040B94FF4007301212046D5F8042200F033
:10338000FBFC06E0402301212046D5F8042200F092
:10339000F3FC3046BDE8F08170B50446D4F8B8526D
:1033A000D4F8B80298B1207C40B94FF400730121E1
:1033B0002046D5F8042200F0DFFC06E0402301217E
:1033C0002046D5F8042200F0D7FC002070BD022072
:1033D000FCE70246022011B1C2F8BC12002070477F
:1033E0000246D2F8B832C3F804120020704710B574
:1033F0000346D3F8B842C4F80812C4F810220020DB
:1034000010BD2DE9FC4105460C46D5F8B8620020F8
:10341000019000900027207800F0600040B3202841
:103420005FD1E088E0B1207800F0800060B1E288F0
:103430006078D5F8BC128B6831469847E2883146EF
:10344000284600F0C7F812E0607886F80002A079FC
:1034500086F80102E2883146284600F09AF806E034
:103460006078D5F8BC1200228B68214698473EE070
:10347000607820B10A2812D00B282AD11FE095F8D5
:103480009C02032805D102226946284600F0A2F8D2
:1034900004E02146284600F070F802271FE095F866
:1034A0009C02032805D1012201A9284600F092F8C8
:1034B00004E02146284600F060F802270FE095F866
:1034C0009C02032804D02146284600F056F8022723
:1034D00005E02146284600F050F8022700BF00BF53
:1034E00005E02146284600F048F8022700BF00BF4B
:1034F0003846BDE8FC8170B504460D46D4F8B402E8
:103500002946426820469047002070BD70B50446A9
:103510000D4694F89C02012804D0022803D0032809
:103520000CD101E000BF00BF6888012805D1002050
:10353000C4F8A402204600F05EF804E029462046C4
:1035400000F01BF800BF00BF70BD70B506460C460A
:1035500015462B4622460021304600F00DFC002087
:1035600070BD70B506460C4615462B462246002116
:10357000304600F0DDFC002070BD70B504460D46FD
:103580008021204600F0A8FC0021204600F0A4FC89
:1035900070BD70B504460E4615460320C4F894026B
:1035A0004FF4AE700551001D05512B4632460021E7
:1035B000204600F0E1FB002070BD10B50446052058
:1035C000C4F8940200231A461946204600F0D4FBA2
:1035D000002010BD70B504460E4615460220C4F802
:1035E0009402E56125622B4632460021204600F018
:1035F0009FFC002070BD10B504460420C4F894025E
:1036000000231A461946204600F092FC002010BD07
:1036100070B505460C462DB92246064906A000F0B5
:10362000DBF904E02246034903A000F0D5F9014884
:1036300070BD0000E404002043444320436F6E66E5
:1036400069670000024612200880014870470000A8
:103650001C00002070B505460C462DB922460649CF
:1036600006A000F0B9F904E02246034903A000F0E7
:10367000B3F9014870BD0000E40400204344432036
:10368000496E74657266616365000000024604203D
:1036900008800148704700003000002070B50546E2
:1036A0000C462246024903A000F096F9004870BD7E
:1036B000E404002053544D6963726F656C65637454
:1036C000726F6E696373000070B505460C462DB9C4
:1036D0002246064906A000F07FF904E0224603498D
:1036E00003A000F079F9014870BD0000E404002057
:1036F00053544D3332205669727475616C20436F98
:103700006D506F727400000070B505460C461A20AB
:103710002080FCF78FFE014870BD000034000020BF
:1037200070B504460D46E888012804D02946204695
:10373000FFF723FF1EE094F89C02012804D0022822
:1037400003D0032810D109E000BF0020A0600122AF
:1037500004F108012046FFF73DFF0AE00122211D88
:103760002046FFF737FF04E029462046FFF705FF14
:1037700000BF00BF70BDF8B504460E4600200090A3
:103780000027002570880012082875D2DFE800F0B5
:10379000C7040C20C7C7A5B5207CD4F8B0120A68AE
:1037A000694690470746C1E0207C40B9D4F8B4028E
:1037B000816A6846884707460220787007E0D4F897
:1037C000B402C16A68468847074602207870ADE0B7
:1037D000B078062878D2DFE800F00316293C506361
:1037E000D4F8B002406838B1207CD4F8B0124A68EE
:1037F00069469047074605E031462046FFF7BDFE83
:10380000681CC5B267E0D4F8B002806838B1207C8B
:10381000D4F8B0128A6869469047074605E03146F9
:103820002046FFF7AAFE681CC5B254E0D4F8B002E7
:10383000C06838B1207CD4F8B012CA686946904795
:10384000074605E031462046FFF797FE681CC5B2E3
:1038500041E0D4F8B002006938B1207CD4F8B0124D
:103860000A6969469047074605E031462046FFF75A
:1038700084FE681CC5B22EE051E0D4F8B002406965
:1038800038B1207CD4F8B0124A696946904707469F
:1038900005E031462046FFF770FE681CC5B21AE00D
:1038A000D4F8B002806940B1207CD4F8B0128A69A3
:1038B00069469047074606E006E031462046FFF796
:1038C0005CFE681CC5B206E031462046FFF755FE97
:1038D000681CC5B200BF00BF28E0207C30B9D4F816
:1038E000B402416B68468847074605E031462046EA
:1038F000FFF743FE681CC5B218E0207C40B9D4F83D
:10390000B402016B6846884707460720787005E0D7
:1039100031462046FFF731FE681CC5B206E031464D
:103920002046FFF72AFE681CC5B200BF00BF05B1E4
:10393000F8BDBDF8000088B1F08878B1F088BDF816
:103940000010884202DDBDF8000000E0F088009021
:10395000BDF8002039462046FFF73CFEF08810B93C
:103960002046FFF748FE00BFE2E70146002002E0E4
:10397000421CD0B2491C0A78002AF9D1704770B5B0
:1039800004460D4694F89C02012804D0022803D076
:1039900003281AD101E000BF00BFE888022804D044
:1039A00029462046FFF7E9FD14E00120E060D4F845
:1039B000A40218B1E06840F00200E060022204F1C5
:1039C0000C012046FFF706FE04E029462046FFF7DB
:1039D000D4FD00BF00BF70BD2DE9F04104460D4687
:1039E00017460026FCB12046FFF7BFFF022101EB7E
:1039F000400038803A783046711CCEB22A540322F7
:103A00003046711CCEB22A540AE014F8012B30461D
:103A1000711CCEB22A5400223046711CCEB22A54F8
:103A200020780028F1D1BDE8F0810146002031B1B5
:103A3000012906D0022906D0032908D105E000207B
:103A400007E0022005E0012003E0022001E002205F
:103A500000BF00BF704770B504460D4616460CB94E
:103A6000022070BDD4F8B40210B10020C4F8B40232
:103A70000DB1C4F8B052012084F89C022670204693
:103A800000F004F90020ECE72DE9F04104460D4672
:103A9000002600272946D4F8C002FDF78FF8064615
:103AA0003046FFF7C2FF07463846BDE8F0812DE9F2
:103AB000F04104460D46002600272946D4F8C002EE
:103AC000FDF747F806463046FFF7AFFF0746384692
:103AD000BDE8F0812DE9F04104460E461746002E60
:103AE00064D104F11405D4F89402022848D1D5E930
:103AF0000301884210D9D5E90301401AE860A8897A
:103B000082B239462046FFF72CFD00231A4619469B
:103B1000204600F031F93EE02969A868B0FBF1F2D7
:103B200001FB1200B8B92969A868884213D3A868B4
:103B3000D4F8981288420ED2002211462046FFF790
:103B400010FD0020C4F8980200231A4619462046AA
:103B500000F012F91FE0D4F8B402C06840B194F844
:103B60009C02032804D1D4F8B402C16820468847D7
:103B70008021204600F0B0F92046FFF71EFD0AE044
:103B8000D4F89402042802D0D4F8940218B9802101
:103B9000204600F0A1F994F8A002012818D120468F
:103BA00000F0FAF9002084F8A00211E0D4F8B40281
:103BB000406950B194F89C02032806D1D4F8B402AD
:103BC000314642692046904702E00220BDE8F0817C
:103BD0000020FBE72DE9F04104460E461746BEBB28
:103BE00004F5AA75D4F89402032825D1D5E9030178
:103BF000884210D9D5E90301401AE860D5E90301EC
:103C0000884201D2E86800E0286982B2394620463D
:103C1000FFF79BFC2FE0D4F8B402006940B194F8A0
:103C20009C02032804D1D4F8B402016920468847D5
:103C30002046FFF7E0FC1EE0D4F8940205281AD1D4
:103C40000020C4F894020021204600F045F912E05B
:103C5000FFE7D4F8B402806950B194F89C020328BD
:103C600006D1D4F8B402314682692046904702E07A
:103C70000220BDE8F0810020FBE770B504460D4648
:103C80002946D4F8C002FDF722FB70BD10B50446EA
:103C90001D48C0F8EC42C4F8C0021C481A4908602C
:103CA0000820486002211848816000218161C161BB
:103CB0000162FDF7C4FC08B1FCF7B9FB04F53074F0
:103CC0001823002211462068FCF700FF5823002229
:103CD00080212068FCF7FAFEC023002281212068A1
:103CE000FCF7F4FE4FF48873002201212068FCF7F2
:103CF000EDFE2068A4F530744FF480730022822119
:103D0000FCF7E4FE002010BDE40E0020005C004043
:103D100010B50246D2F8C03201F08000802809D1E7
:103D200001F07F0000EB800403F1280000EBC400E9
:103D3000807810BD01F07F0000EB800403F5B470C3
:103D400000EBC4008078F4E72DE9F04704460F4605
:103D500015461E464FF00008C1462B4632463946EE
:103D6000D4F8C002FDF7BEFA80464046FFF75DFE7C
:103D700081464846BDE8F0872DE9F04704460D46E8
:103D800016461F464FF00008C1463B4632462946BC
:103D9000D4F8C002FDF7E8FA80464046FFF745FE3A
:103DA00081464846BDE8F08710B50446402300220E
:103DB00011462046FFF7C8FF01214FF4AC700151B6
:103DC00040214FF4B270015140230022802120464F
:103DD000FFF7BAFF0121A16140216162012084F84F
:103DE0009C020020C4F894026060C4F8A402D4F8D5
:103DF000B80228B12179D4F8B4024268204690472D
:103E0000002010BD014691F89C02042803D191F8CE
:103E10009D0281F89C020020704710B5044694F87A
:103E20009C02032808D1D4F8B402C06920B1D4F8A8
:103E3000B402C16920468847002010BD02461174B3
:103E4000002070472DE9F04104460D46002600276A
:103E50002946D4F8C002FDF7D9FC06463046FFF7E4
:103E6000E4FD07463846BDE8F08170B504460D46CE
:103E7000294604F52A7000F073F80120C4F8940272
:103E800040F2AE20005BC4F8980294F8A80200F05B
:103E90001F0020B1012808D0022812D10BE004F540
:103EA0002A71204600F041F913E004F52A712046FA
:103EB00000F0A8FA0DE004F52A71204600F086F91A
:103EC00007E094F8A80200F08001204600F004F812
:103ED00000BF00BF002070BD2DE9F04104460D4633
:103EE000002600272946D4F8C002FDF75BFA0646F3
:103EF0003046FFF79AFD07463846BDE8F08170B5B9
:103F0000044600250026D4F8C002FDF7A3FC0546B0
:103F10002846FFF78AFD0646304670BD014691F8F7
:103F20009C0281F89D02042081F89C0200207047C9
:103F30002DE9F04704460D4616461F464FF000088F
:103F4000C1463B4632462946D4F8C002FDF76EFA18
:103F500080464046FFF769FD81464846BDE8F08748
:103F60000A7802704A7842708B78CA7803EB022292
:103F700042800B794A7903EB022282808B79CA79DD
:103F800003EB0222C28070470246002011B1C2F842
:103F9000B41200E00220704701460020704770B55F
:103FA00004460D46A88810BBE88800BB68888028B6
:103FB0001DD2A87800F07F0694F89C02032804D153
:103FC00029462046FFF7D9FA15E084F89E6231466B
:103FD0002046FFF737FF2046FFF70DFB1EB10220FA
:103FE00084F89C0207E0012084F89C0203E0294643
:103FF0002046FFF7C2FA70BD70B504460D46022692
:10400000D4F8B40238B1D4F8B40229460268204684
:10401000904700B90026304670BD000070B50446D8
:104020000D46A8783649087008460078012804DD56
:1040300029462046FFF7A1FA60E094F89C02022886
:1040400002D003284FD11CE02D480078A8B12C489D
:1040500000786060032084F89C022948017820469B
:10406000FFF7CAFF022804D129462046FFF785FA48
:1040700070BD2046FFF7BFFA02E02046FFF7BBFA0B
:104080003BE01F48007870B9022084F89C021C486D
:10409000007860601A4801782046FFF72CFA204625
:1040A000FFF7A9FA1EE0164909786068884216D021
:1040B00021792046FFF71FFA114800786060104808
:1040C00001782046FFF798FF022804D129462046B0
:1040D000FFF753FACCE72046FFF78DFA02E02046BF
:1040E000FFF789FA09E029462046FFF746FA044817
:1040F00001782046FFF7FFF900BF00BF00BFB7E718
:104100007000002070B505460C466088012804D177
:10411000C5F8A4022846FFF76EFA70BD10B5044634
:104120002046FFF7ECFE002010BD70B505460C469A
:104130000026207800F0600060B1202802D04028DE
:104140003CD100E000BFD5F8B40221468268284681
:10415000904738E060780A2829D2DFE800F0192378
:10416000281E280A0528140F21462846FFF703FBBE
:1041700022E021462846FFF712FF1DE0214628468F
:10418000FFF74CFF18E021462846FFF7C9FA13E075
:1041900021462846FFF7F3FB0EE021462846FFF7AD
:1041A000B1FF09E021462846FFF7B0F904E02146B7
:1041B0002846FFF7E2F900BF00BF04E02146284689
:1041C000FFF7DBF900BF00BF304670BD2DE9F041BD
:1041D00005460E464FF000083479307800F0600054
:1041E00060B1202802D0402871D100E000BFD5F88E
:1041F000B402314682682846904700E1307800F0EA
:104200006000202809D1D5F8B402314682682846DA
:10421000904780464046BDE8F081707800285ED027
:1042200001282FD0032876D195F89C02022802D0CD
:10423000032820D110E054B1802C08D02146284614
:10424000FFF74AFE80212846FFF746FE03E031468D
:104250002846FFF792F913E0708840B93CB1802CF2
:1042600005D0F08818B921462846FFF735FE2846C4
:10427000FFF7C1F904E031462846FFF77EF900BF99
:1042800000BFB5E095F89C02022802D003281FD198
:1042900010E054B1802C08D021462846FFF71CFEC0
:1042A00080212846FFF718FE03E031462846FFF735
:1042B00064F912E0708848B904F07F0018B1214613
:1042C0002846FFF7E1FB2846FFF795F905E091E066
:1042D00031462846FFF751F900BF00BF88E095F846
:1042E0009C02022802D0032876D126E034B1802C2B
:1042F00004D031462846FFF740F972E004F0800010
:10430000802809D104F07F0000EB800105F1140042
:1043100000EB810008E066E004F07F0000EB800124
:1043200005F5AA7000EB81000746002038600222E4
:1043300039462846FFF74EF953E004F08000802804
:104340000ED104F00F0000EB800105F1140000EB2A
:104350008100406898B931462846FFF70EF940E0E1
:1043600004F00F0000EB800105F5AA7000EB81005E
:10437000406820B931462846FFF7FFF831E004F0E5
:104380008000802808D104F07F0000EB800105F157
:10439000140000EB810007E004F07F0000EB8001D7
:1043A00005F5AA7000EB810007460CB1802C02D104
:1043B0000020386009E021462846FFF7A9FC10B12B
:1043C0000120386001E0002038600222394628468A
:1043D000FFF700F905E0FFE731462846FFF7CDF883
:1043E00000BF00BF04E031462846FFF7C6F800BF13
:1043F00000BF04E031462846FFF7BFF800BF00BF0A
:10440000404608E770B505460C460026207800F0C7
:10441000600030B1202802D040282AD100E000BF3F
:1044200000BF95F89C02012804D0022803D003287D
:1044300018D101E000BF00BF207901280DDCD5F8BC
:10444000B40221468268284690470646E08840B973
:104450003EB92846FFF7CFF803E021462846FFF78C
:104460008CF804E021462846FFF787F800BF00BF1C
:1044700004E021462846FFF780F800BF00BF002077
:1044800070BD70470146014870470000D4110020FC
:10449000F0B5024600260878400032F8100048F6D1
:1044A0008F1400EA0403C87830B101280CD0022828
:1044B00005D003280BD104E043F4007309E000BFEA
:1044C00007E043F4C06304E043F4806301E00126A5
:1044D00000BF00BF43F4004040F080000C7864004F
:1044E00022F8140000BF0C78640032F8144048F63B
:1044F0008F752C400D7844EA050040F4004444F0E8
:1045000080040D786D0022F8154000BF087B00285C
:104510007ED14878002852D000BF1046B2F85050E3
:1045200028440D7800F5806707EB0514CD886D10E1
:104530006D00258000BF00BF0C78640032F81400C5
:1045400000F040048CB100BF0D786D0032F81550BA
:1045500048F68F7705EA070444F4004545F0C005A6
:104560000F787F0022F8175000BF00BFC8780128DD
:1045700013D000BF0C78640032F8144048F6BF75C1
:1045800004EA050080F0200040F4004444F0800478
:104590000D786D0022F81540D0E100BF0C78640062
:1045A00032F8144048F6BF7504EA050040F40044B0
:1045B00044F080040D786D0022F81540BEE100BF84
:1045C0001046B2F8505028440D78042707EBC50573
:1045D00000F5806707EB4504CD886D106D002580E0
:1045E00000BF00BF1546B2F8504025440C7806279E
:1045F00007EBC40405F5806707EB4404204600BFC1
:104600000788C7F3090707800F693E2F14D900E018
:1046100073E000BF0F697C090F7C07F01F0707B923
:10462000641E07884FF4004C4CEA842C1FFA8CFC63
:1046300047EA0C07078017E00F6927B9078847F496
:104640000047078010E000BF0F697C080F7C07F06F
:10465000010707B1641C07884FF6FF7C0CEA842C25
:1046600047EA0C07078000BF00BF00BF00BF0C78FF
:10467000640032F8140000F480448CB100BF0D785F
:104680006D0032F8155048F68F7705EA070444F4B8
:10469000004545F481450F787F0022F8175000BF90
:1046A00000BF0878A8B900BF0C78640032F8144045
:1046B0004BF68F7504EA050080F4805080F40050BA
:1046C00040F4004444F080040D786D0022F8154059
:1046D00034E100BF0C78640032F814404BF68F755B
:1046E00004EA050080F4005040F4004444F08004E3
:1046F0000D786D0022F8154020E1C878022811D10C
:1047000000BF0C78640032F8144048F68F7504EA54
:10471000050040F4004444F4C0740D786D0022F8A4
:10472000154011E000BF0C78640032F8144048F6E0
:104730008F6504EA050040F4004444F080040D78DD
:104740006D0022F8154000BF00BF00BF00BF10463B
:10475000B2F8505028440D7800F5806707EB051437
:104760000D896D106D00258000BF00BF00BF00BF28
:104770001046B2F8505028440D78042707EBC505C1
:1047800000F5806707EB45044D896D106D002580AD
:1047900000BF00BF00BF4878E8BB00BF0C786400D2
:1047A00032F8140000F480448CB100BF0D786D0025
:1047B00032F8155048F68F7705EA070444F40045AF
:1047C00045F481450F787F0022F8175000BF00BFE5
:1047D00000BF0C78640032F8140000F040048CB183
:1047E00000BF0D786D0032F8155048F68F7705EA56
:1047F000070444F4004545F0C0050F787F0022F817
:10480000175000BF00BF00BF0C78640032F814409E
:104810004BF68F7500E020E004EA050080F480503C
:1048200080F4005040F4004444F080040D786D00A2
:1048300022F8154000BF00BF0C78640032F8144025
:1048400048F6BF7504EA050040F4004444F08004D3
:104850000D786D0022F8154070E000BF0C78640000
:1048600032F8140000F480448CB100BF0D786D0064
:1048700032F8155048F68F7705EA070444F40045EE
:1048800045F481450F787F0022F8175000BF00BF24
:1048900000BF0C78640032F8140000F040048CB1C2
:1048A00000BF0D786D0032F8155048F68F7705EA95
:1048B000070444F4004545F0C0050F787F0022F856
:1048C000175000BF00BFC878012813D000BF0C7874
:1048D000640032F8144048F6BF7504EA050080F021
:1048E000200040F4004444F080040D786D0022F86C
:1048F000154011E000BF0C78640032F8144048F60F
:10490000BF7504EA050040F4004444F080040D78CB
:104910006D0022F8154000BF00BF0C78640032F82B
:1049200014404BF68F7504EA050040F4004444F04F
:1049300080040D786D0022F8154000BF3046F0BDB0
:1049400010B50446002010BD30B50246087B002893
:104950005BD1487860B300BF0B785B0032F813007E
:1049600000F040038BB100BF0C78640032F81440B3
:1049700048F68F7504EA050343F4004444F0C0048C
:104980000D786D0022F8154000BF00BF00BF0B7806
:104990005B0032F8133048F6BF7403EA040040F4B9
:1049A000004343F080030C78640022F8143007E1E0
:1049B00000BF0B785B0032F8130000F480438BB12A
:1049C00000BF0C78640032F8144048F68F7504EA92
:1049D000050343F4004444F481440D786D0022F84B
:1049E000154000BF00BF00BF0B785B0032F81330EA
:1049F0004BF68F7403EA040040F4004343F0800355
:104A00000C78640022F81430DAE0487800286BD182
:104A100000BF0B785B0032F8130000F480438BB1C9
:104A200000BF0C78640032F8144048F68F7504EA31
:104A3000050343F4004444F481440D786D0022F8EA
:104A4000154000BF00BF00BF0B785B0032F81300B9
:104A500000F040038BB100BF0C78640032F81440C2
:104A600048F68F7504EA050343F4004444F0C0049B
:104A70000D786D0022F8154000BF00BF00BF0B7815
:104A80005B0032F8133048F68F7403EA040040F4F8
:104A9000004343F0C0030C78640022F8143000BFD8
:104AA00000BF0B785B0032F813304BF68F7403EACB
:104AB000040040F4004343F080030C78640022F8C3
:104AC000143000BF00BF0B785B0032F8133048F69B
:104AD000BF7403EA040040F4004343F080030C7801
:104AE000640022F814306BE000BF0B785B0032F8F2
:104AF000130000F480438BB100BF0C78640032F8DF
:104B0000144048F68F7504EA050343F4004444F466
:104B100081440D786D0022F8154000BF00BF00BF32
:104B20000B785B0032F8130000F040038BB100BF3C
:104B30000C78640032F8144048F68F7504EA0503D7
:104B400043F4004444F0C0040D786D0022F8154091
:104B500000BF00BF00BF0B785B0032F8133048F68F
:104B60008F7403EA040040F4004343F481430C785B
:104B7000640022F8143000BF00BF0B785B0032F8ED
:104B8000133048F6BF7403EA040040F4004343F0D6
:104B900080030C78640022F8143000BF00BF0B784B
:104BA0005B0032F813304BF68F7403EA040040F4D4
:104BB000004343F080030C78640022F8143000BFF7
:104BC000002030BD0146002070470146002070479C
:104BD00010B50446012024F8400F00202080A0805A
:104BE0002082403C10BD01464FF43F42B1F84000E6
:104BF0009043A1F840000020704702460020704713
:104C000030B50246087B002865D1487888B300BFDC
:104C10000B785B0032F8130000F040038BB100BF4B
:104C20000C78640032F8144048F68F7504EA0503E6
:104C300043F4004444F0C0040D786D0022F81540A0
:104C400000BF00BFC878012845D000BF0B785B00CB
:104C500032F8133048F6BF7403EA040080F02000F5
:104C600040F4004343F080030C78640022F81430D1
:104C700031E0FFE700BF0B785B0032F8130000F46F
:104C800080438BB100BF0C78640032F8144048F6C2
:104C90008F7504EA050343F4004444F481440D781D
:104CA0006D0022F8154000BF00BF00BF0B785B000D
:104CB00032F813304BF68F7403EA040080F480500E
:104CC00080F4005040F4004343F080030C7864000B
:104CD00022F8143000BF002030BD10B502464878DD
:104CE00098B100BF0B785B0032F8133048F6BF7400
:104CF00003EA040080F0100040F4004343F0800316
:104D00000C78640022F8143013E000BF0B785B00CD
:104D100032F813304BF68F7403EA040080F48050AD
:104D200040F4004343F080030C78640022F8143010
:104D300000BF002010BD2DE9F04706460C46607804
:104D4000012872D12169A069884201D9256900E052
:104D5000A569207BA0B9ABB2E2883046616900F05A
:104D600056FD00BF3046B6F850201044227802238A
:104D700003EBC20200F5806303EB42010D80C1E248
:104D8000E078022870D12169206A88426DD900BF7D
:104D90002178490036F8111048F68F7201EA0200B6
:104DA00040F4004141F4C0712278520026F81210FC
:104DB00000BF206A401B20622078400036F81000B7
:104DC00000F04000002874D000BF3346607868BB14
:104DD00000BF3246B6F850100A4421784FF0060959
:104DE00009EBC10102F5806909EB4101084600BFEA
:104DF000B0F80090C9F30909A0F800903E2D16D92B
:104E000000BF690905F01F09B9F1000F00D1491E63
:104E1000B0F800904FF4004A4AEA812A1FFA8AFA51
:104E200049EA0A09A0F800901CE081E21EE035B9C9
:104E3000B0F8009049F40049A0F8009012E000BFDB
:104E4000690805F00109B9F1000F00D0491CB0F85C
:104E500000904FF6FF7A0AEA812A49EA0A09A0F887
:104E6000009000BF00BF11E07EE153E160780128AF
:104E70000CD1B6F8500003442078062101EBC000A5
:104E800003F5806101EB400CACF8005000BF67896E
:104E9000ABB23A463046616900F0B9FC606928441B
:104EA00060612169206A884204D9206A401B20621F
:104EB00003E05EE0256A0020206200BF6078E0BB6E
:104EC00000BF3246B6F850100A442178022303EBA3
:104ED000C10102F5806303EB4101084600BF03886E
:104EE000C3F3090303803E2D10D900BF690905F003
:104EF0001F0303B9491E03884FF4004C4CEA812C70
:104F00001FFA8CFC43EA0C03038014E025B90388E4
:104F100043F4004303800EE000BF690805F001037D
:104F200003B1491C03884FF6FF7C0CEA812C43EA4D
:104F30000C03038000BF00BF12E0FFE76078012888
:104F40000ED100BF3046B6F850201044227802231C
:104F500003EBC20200F5806303EB42010D8000BF4A
:104F600000BF2789ABB23A463046616900F04FFC7A
:104F7000C8E100BF6078E0BB00BF3246B6F8501011
:104F80000A442178022303EBC10102F5806303EB9D
:104F90004101084600BF0388C3F3090303803E2D87
:104FA00010D900BF690905F01F0303B9491E038822
:104FB0004FF4004C4CEA812C1FFA8CFC43EA0C03A2
:104FC000038014E025B9038843F4004303800EE016
:104FD00000BF690805F0010303B1491C03884FF6BF
:104FE000FF7C0CEA812C43EA0C03038000BF00BF66
:104FF00012E0FFE7607801280ED100BF3046B6F816
:10500000502010442278022303EBC20200F5806393
:1050100003EB42010D8000BF00BF2789ABB23A46C7
:105020003046616900F0F3FB6069284460612169E2
:10503000206A884203D9206A401B206202E0256A68
:105040000020206200BF33466078A0BB00BF32461C
:10505000B6F850100A4421784FF0060909EBC10157
:1050600002F5806909EB4101084600BFB0F80090E5
:10507000C9F30909A0F800903E2D14D900BF6909B1
:1050800005F01F09B9F1000F00D1491EB0F80090DA
:105090004FF4004A4AEA812A1FFA8AFA49EA0A09C1
:1050A000A0F800901BE03DB9B0F8009049F4004929
:1050B000A0F8009013E014E000BF690805F00109B2
:1050C000B9F1000F00D0491CB0F800904FF6FF7AFC
:1050D0000AEA812A49EA0A09A0F8009000BF00BF45
:1050E0000FE0607801280CD1B6F850000344207816
:1050F000062101EBC00003F5806101EB400CACF828
:10510000005000BF6789ABB23A463046616900F093
:105110007EFBF7E0256A00BF2178490036F81110C0
:1051200048F68F6201EA020040F4004141F080013C
:105130002278520026F8121000BF00BF3046B6F8A1
:10514000502010442278022303EBC20200F5806352
:1051500003EB42010D8000BF2789ABB23A463046CF
:10516000616900F054FBCDE0206A401B206220788A
:10517000400036F8100000F0400080B300BF334616
:10518000607868BB00BF3246B6F850100A442178F8
:105190004FF0060909EBC10102F5806909EB4101F5
:1051A000084600BFB0F80090C9F30909A0F80090C4
:1051B0003E2D16D900BF690905F01F09B9F1000F8E
:1051C00000D1491EB0F800904FF4004A4AEA812A03
:1051D0001FFA8AFA49EA0A09A0F800901CE036E0B2
:1051E0001CE035B9B0F8009049F40049A0F80090EF
:1051F00012E000BF690805F00109B9F1000F00D005
:10520000491CB0F800904FF6FF7A0AEA812A49EA71
:105210000A09A0F8009000BF00BF0FE060780128E5
:105220000CD1B6F8500003442078062101EBC000F1
:1052300003F5806101EB400CACF8005000BF6789BA
:10524000ABB23A463046616900F0E1FA5AE000BF7D
:105250006078E0BB00BF3246B6F850100A442178AF
:10526000022303EBC10102F5806303EB4101084611
:1052700000BF0388C3F3090303803E2D10D900BF8C
:10528000690905F01F0303B9491E03884FF4004C58
:105290004CEA812C1FFA8CFC43EA0C03038014E0D7
:1052A00025B9038843F4004303800EE000BF69087A
:1052B00005F0010303B1491C03884FF6FF7C0CEA9B
:1052C000812C43EA0C03038000BF00BF12E0FFE71C
:1052D000607801280ED100BF3046B6F85020104447
:1052E0002278022303EBC20200F5806303EB420144
:1052F0000D8000BF00BF2789ABB23A4630466169D6
:1053000000F085FA00BF2178490036F8111048F600
:10531000BF7201EA020080F0100080F0200040F42B
:10532000004141F080012278520026F8121028E254
:10533000207B88BB2169A069884204D92569A069BE
:10534000401BA06102E0A5690020A06100BF3246B9
:10535000B6F850100A442178062303EBC10102F588
:10536000806303EB4101084600BF0388C3F30903D0
:1053700003803E2D11D900BF690905F01F0303B951
:10538000491E03884FF4004C4CEA812C1FFA8CFC18
:1053900043EA0C03038015E016E025B9038843F4C3
:1053A000004303800EE000BF690805F0010303B16C
:1053B000491C03884FF6FF7C0CEA812C43EA0C035E
:1053C000038000BF00BFC6E1E07802287CD100BFA7
:1053D00000BF607878BB00BF3246B6F850100A4470
:1053E0002178022303EBC10102F5806303EB410145
:1053F000084600BF0388C3F30903038023693E2BDB
:1054000012D900BF23695909237C03F01F0303B994
:10541000491E03884FF4004C4CEA812C1FFA8CFC87
:1054200043EA0C03038018E023692BB9038843F493
:105430000043038011E012E000BF23695908237C78
:1054400003F0010303B1491C03884FF6FF7C0CEA0B
:10545000812C43EA0C03038000BF00BF12E0607898
:1054600001280FD100BF3046B6F8502010442278F2
:10547000022303EBC20200F5806303EB4201228AA0
:105480000A8000BF00BF00BF33466078B0BB00BFDA
:105490003246B6F850100A4421784FF0060909EB5D
:1054A000C10102F5806909EB4101084600BFB0F86F
:1054B0000090C9F30909A0F80090D4F81090B9F150
:1054C0003E0F1CD900BF00E07BE0D4F810904FEAFB
:1054D000591194F8109009F01F09B9F1000F00D18B
:1054E000491EB0F800904FF4004A4AEA812A1FFA98
:1054F0008AFA49EA0A09A0F8009024E025E0D4F8E5
:105500001090B9F1000F06D1B0F8009049F40049AD
:10551000A0F8009017E000BFD4F810904FEA5901AE
:1055200094F8109009F00109B9F1000F00D0491C5E
:10553000B0F800904FF6FF7A0AEA812A49EA0A0990
:10554000A0F8009000BF00BF10E0607801280DD1E6
:10555000B6F8500003442078062101EBC00003F5A3
:10556000806101EB400C208AACF8000000BF00BF56
:10557000E069002824D02078400036F8108008F434
:10558000804010B108F0400038B908F4804000288D
:1055900016D108F04000002812D100BF00BF2178CA
:1055A000490036F8111048F68F7201EA020040F403
:1055B000004141F0C0012278520026F8121000BFCD
:1055C000C9E0E07801287ED12169A069884204D928
:1055D0002569A069401BA06102E0A5690020A061C7
:1055E00000BF00BF6078E0BB00BF3246B6F8501085
:1055F0000A442178022303EBC10102F5806303EB27
:105600004101084600BF0388C3F3090303803E2D10
:1056100010D900BF690905F01F0303B9491E0388AB
:105620004FF4004C4CEA812C1FFA8CFC43EA0C032B
:10563000038014E025B9038843F4004303800EE09F
:1056400000BF690805F0010303B1491C03884FF648
:10565000FF7C0CEA812C43EA0C03038000BF00BFEF
:1056600012E0FFE7607801280ED100BF3046B6F89F
:10567000502010442278022303EBC20200F580631D
:1056800003EB42010D8000BF00BF00BF33466078CE
:1056900070BB00BF3246B6F850100A4421784FF074
:1056A000060909EBC10102F5806909EB41010846D1
:1056B00000BFB0F80090C9F30909A0F800903E2D92
:1056C00017D900BF00E043E0690905F01F09B9F1EF
:1056D000000F00D1491EB0F800904FF4004A4AEA8A
:1056E000812A1FFA8AFA49EA0A09A0F800901BE009
:1056F0001CE035B9B0F8009049F40049A0F80090DA
:1057000012E000BF690805F00109B9F1000F00D0EF
:10571000491CB0F800904FF6FF7A0AEA812A49EA5C
:105720000A09A0F8009000BF00BF0FE060780128D0
:105730000CD1B6F8500003442078062101EBC000DC
:1057400003F5806101EB400CACF8005000BF02E0B3
:105750000120BDE8F08700BF2178490036F811101C
:105760004BF68F7201EA020080F4805080F4005002
:1057700040F4004141F080012278520026F81210D6
:1057800000BF0020E5E701460020A1F844004FF4E7
:105790003F42A1F84020704710B50248FBF769FE70
:1057A00010BD0000E40E00200146B1F8440070472F
:1057B0002DE9F04304460E4615464FEA530CA04629
:1057C000304608F5806909EB450267460AE0118812
:1057D000921C0170401C4FEA112980F80090401C77
:1057E000921C7F1E002FF2D103F00109B9F1000FC6
:1057F00001D011880170BDE8F08302460020704797
:10580000024611B98020A2F84C00002070472DE913
:10581000F04304460D461E4606F101094FEA590CB5
:10582000A046284608F5806909EB420367460AE06E
:10583000017890F8019041EA092119809B1C9B1C7A
:10584000401C401C7F1E002FF2D1BDE8F08300BF3A
:10585000FEE7000002480068C0F302207047000025
:105860000CED00E010B5002804DB0A07130E054A12
:10587000135406E00A07140E034A00F00F031B1F1F
:10588000D45410BD00E400E018ED00E002E008C8C8
:10589000121F08C1002AFAD170477047002001E0AA
:1058A00001C1121F002AFBD170470000FBF726F848
:1058B000FDF72DFAFCF70CFFFCF750FFFCF76AFF31
:1058C00001F02CFB09E001F027FB04210348FAF763
:1058D000F3FF4FF4FA70FAF74BFEF4E700080140CB
:1058E0000146002009E0074A52F820201AB9054A6B
:1058F00042F820107047421C10B20528F3DB00BFAD
:10590000F8E700006016002010B50446012120468B
:1059100000F073F810BD000010B5044622689168CD
:105920002069FAF72CFC60B994F8600020F00100BF
:10593000401C84F8600008480168204601F0A4FA81
:1059400004E00548416B204601F09EFA0020A0814A
:105950000021E18110BD000084010020024608788A
:1059600048B1487800F00F00082804D00878136880
:105970001B78184050B192F8600000F0010018B98F
:105980004878C0F3001008B1002070474FF0FF3096
:10599000FBE7000010B500F0DFFA044624B103482D
:1059A000816B204601F070FA10BD000084010020D8
:1059B00070B50446A189E089081A05B205E02021E6
:1059C000204601F07BF9681E05B2002DF7DC217B33
:1059D000204600F07FF870BD10B500F0BDFA044617
:1059E00014B1204600F0FEFC10BD10B504464FF087
:1059F000FF31204600F001F810BD2DE9F0410446CA
:105A00000D46681C08B9012000E000200746E08927
:105A100008B9012D05D0E089A189884203D1681C0D
:105A200008B9BDE8F081E089A189884210D1012D33
:105A30000ED1E089401EE081A089401EA081002196
:105A4000A289206981540121204600F043F83FE0FB
:105A500038460AE0E18901442269525CE189014447
:105A6000491E23695A54411C08B2A289E189511A7E
:105A70008142EFDCA089401EA08137B9E089401E39
:105A8000E0810821204601F019F90021A28920694E
:105A90008154E08906B206E02069815D204601F06C
:105AA0000DF9701C06B2A089B042F5DC2021204619
:105AB00001F004F9A189E089081A401C06B205E04A
:105AC0000821204601F0FAF8701E06B2002EF7DC1D
:105AD00000BFA6E770B505460C4603E004A12846C2
